{"abi":[{"type":"function","name":"set","inputs":[{"name":"v","type":"uint256","internalType":"uint256"}],"outputs":[],"stateMutability":"nonpayable"},{"type":"function","name":"value","inputs":[],"outputs":[{"name":"","type":"uint256","internalType":"uint256"}],"stateMutability":"view"}],"bytecode":{"object":"0x6080604052348015600f57600080fd5b5060b180601d6000396000f3fe6080604052348015600f57600080fd5b506004361060325760003560e01c80633fa4f24514603757806360fe47b1146051575b600080fd5b603f60005481565b60405190815260200160405180910390f35b6061605c3660046063565b600055565b005b600060208284031215607457600080fd5b503591905056fea2646970667358221220c0b15ef13cd5725fa1212c7630b0e8ea245081b1af8ff08501408d35fa93dc9664736f6c634300081a0033","linkReferences":{}},"methodIdentifiers":{"set(uint256)":"60fe47b1","value()":"3fa4f245"},"id":52}