{"abi":[{"type":"function","name":"performCreate","inputs":[{"name":"value","type":"uint256","internalType":"uint256"},{"name":"deploymentData","type":"bytes","internalType":"bytes"}],"outputs":[{"name":"newContract","type":"address","internalType":"address"}],"stateMutability":"nonpayable"},{"type":"function","name":"performCreate2","inputs":[{"name":"value","type":"uint256","internalType":"uint256"},{"name":"deploymentData","type":"bytes","internalType":"bytes"},{"name":"salt","type":"bytes32","internalType":"bytes32"}],"outputs":[{"name":"newContract","type":"address","internalType":"address"}],"stateMutability":"nonpayable"},{"type":"event","name":"ContractCreation","inputs":[{"name":"newContract","type":"address","indexed":true,"internalType":"address"}],"anonymous":false}],"bytecode":{"object":"0x6080806040523460155761020b908161001b8239f35b600080fdfe6080604052600436101561001257600080fd5b60003560e01c80634847be6f146100b557634c8c9ea11461003257600080fd5b346100b05760403660031901126100b05760243567ffffffffffffffff81116100b057610065602091369060040161010a565b80516001600160a01b03918301600435f016610082811515610189565b60405190807f4db17dd5e4732fb6da34a148104a592783ca119a1e7bb8829eba6cbadef0b511600080a28152f35b600080fd5b346100b05760603660031901126100b05760243567ffffffffffffffff81116100b0576100e8602091369060040161010a565b80516001600160a01b039160443591908401600435f516610082811515610189565b81601f820112156100b05780359067ffffffffffffffff82116101735760405192601f8301601f19908116603f0116840167ffffffffffffffff81118582101761017357604052828452602083830101116100b057816000926020809301838601378301015290565b634e487b7160e01b600052604160045260246000fd5b1561019057565b60405162461bcd60e51b815260206004820152601960248201527f436f756c64206e6f74206465706c6f7920636f6e7472616374000000000000006044820152606490fdfea26469706673582212200fc8bd117c2d76396b8258f99438b11d206c21dff2752ee8ba7ea6b2b403ff2564736f6c634300081a0033","linkReferences":{}},"methodIdentifiers":{"performCreate(uint256,bytes)":"4c8c9ea1","performCreate2(uint256,bytes,bytes32)":"4847be6f"},"id":59}