{"abi":[{"type":"function","name":"set","inputs":[{"name":"v","type":"uint256","internalType":"uint256"}],"outputs":[],"stateMutability":"nonpayable"},{"type":"function","name":"value","inputs":[],"outputs":[{"name":"","type":"uint256","internalType":"uint256"}],"stateMutability":"view"},{"type":"event","name":"ValueSet","inputs":[{"name":"v","type":"uint256","indexed":false,"internalType":"uint256"},{"name":"caller","type":"address","indexed":false,"internalType":"address"}],"anonymous":false}],"bytecode":{"object":"0x6080806040523460135760cd908160198239f35b600080fdfe6080806040526004361015601257600080fd5b60003560e01c9081633fa4f24514607e57506360fe47b114603257600080fd5b3460795760203660031901126079577ff421846e535e82c1fbd6ac49ea86e258f1940223db04456b26480f6f2db9f6a76040600435806000558151908152336020820152a1005b600080fd5b3460795760003660031901126079576020906000548152f3fea2646970667358221220a1a99769ef0d66380c28aefe5d9cd76d8f2c6a796765d0a94f15f42ffc6702f464736f6c634300081a0033","linkReferences":{}},"methodIdentifiers":{"set(uint256)":"60fe47b1","value()":"3fa4f245"},"id":71}