{"abi":[{"type":"function","name":"onERC1155BatchReceived","inputs":[{"name":"","type":"address","internalType":"address"},{"name":"","type":"address","internalType":"address"},{"name":"","type":"uint256[]","internalType":"uint256[]"},{"name":"","type":"uint256[]","internalType":"uint256[]"},{"name":"","type":"bytes","internalType":"bytes"}],"outputs":[{"name":"","type":"bytes4","internalType":"bytes4"}],"stateMutability":"view"},{"type":"function","name":"onERC1155Received","inputs":[{"name":"","type":"address","internalType":"address"},{"name":"","type":"address","internalType":"address"},{"name":"","type":"uint256","internalType":"uint256"},{"name":"","type":"uint256","internalType":"uint256"},{"name":"","type":"bytes","internalType":"bytes"}],"outputs":[{"name":"","type":"bytes4","internalType":"bytes4"}],"stateMutability":"view"},{"type":"function","name":"onERC721Received","inputs":[{"name":"","type":"address","internalType":"address"},{"name":"","type":"address","internalType":"address"},{"name":"","type":"uint256","internalType":"uint256"},{"name":"","type":"bytes","internalType":"bytes"}],"outputs":[{"name":"","type":"bytes4","internalType":"bytes4"}],"stateMutability":"view"},{"type":"function","name":"supportsInterface","inputs":[{"name":"interfaceId","type":"bytes4","internalType":"bytes4"}],"outputs":[{"name":"","type":"bool","internalType":"bool"}],"stateMutability":"view"},{"type":"function","name":"tokensReceived","inputs":[{"name":"","type":"address","internalType":"address"},{"name":"","type":"address","internalType":"address"},{"name":"","type":"address","internalType":"address"},{"name":"","type":"uint256","internalType":"uint256"},{"name":"","type":"bytes","internalType":"bytes"},{"name":"","type":"bytes","internalType":"bytes"}],"outputs":[],"stateMutability":"pure"}],"bytecode":{"object":"0x60808060405234601557610525908161001b8239f35b600080fdfe608080604052600436101561001357600080fd5b60003560e01c90816223de291461022657816301ffc9a7146101bb57508063150b7a021461015c578063bc197c81146100b95763f23a6e611461005557600080fd5b346100b45760a03660031901126100b45761006e610296565b506100776102ac565b5060843567ffffffffffffffff81116100b4576100989036906004016102d8565b50506100a261036f565b60405163f23a6e6160e01b8152602090f35b600080fd5b346100b45760a03660031901126100b4576100d2610296565b506100db6102ac565b5060443567ffffffffffffffff81116100b4576100fc903690600401610306565b505060643567ffffffffffffffff81116100b45761011e903690600401610306565b505060843567ffffffffffffffff81116100b4576101409036906004016102d8565b505061014a61036f565b60405163bc197c8160e01b8152602090f35b346100b45760803660031901126100b457610175610296565b5061017e6102ac565b5060643567ffffffffffffffff81116100b45761019f9036906004016102d8565b50506101a961036f565b604051630a85bd0160e11b8152602090f35b346100b45760203660031901126100b4576004359063ffffffff60e01b82168092036100b457602091630271189760e51b8114908115610215575b8115610204575b5015158152f35b6301ffc9a760e01b149050836101fd565b630a85bd0160e11b811491506101f6565b346100b45760c03660031901126100b45761023f610296565b506102486102ac565b506102516102c2565b5060843567ffffffffffffffff81116100b4576102729036906004016102d8565b505060a43567ffffffffffffffff81116100b4576102949036906004016102d8565b005b600435906001600160a01b03821682036100b457565b602435906001600160a01b03821682036100b457565b604435906001600160a01b03821682036100b457565b9181601f840112156100b45782359167ffffffffffffffff83116100b457602083818601950101116100b457565b9181601f840112156100b45782359167ffffffffffffffff83116100b4576020808501948460051b0101116100b457565b90601f8019910116810190811067ffffffffffffffff82111761035957604052565b634e487b7160e01b600052604160045260246000fd5b604051635624b25b60e01b81527f6c9a6c4a39284e37ed1cf53d337577d14212a4870fb976a4366c693b939918d5600482015260016024820152600081604481335afa9081156104e357600091610428575b506020818051810103126100b457602001516001600160a01b038116908190036100b45730036103ed57565b60405162461bcd60e51b81526020600482015260136024820152721b9bdd08184819985b1b189858dac818d85b1b606a1b6044820152606490fd5b903d8082843e6104388184610337565b8201916020818403126104df5780519067ffffffffffffffff82116104c7570182601f820112156104df5780519067ffffffffffffffff82116104cb576040519361048d601f8401601f191660200186610337565b828552602083830101116104c757825b8281106104b2575050820160200152386103c1565b8060208092840101518282880101520161049d565b8280fd5b634e487b7160e01b83526041600452602483fd5b5080fd5b6040513d6000823e3d90fdfea26469706673582212202fc453194ab0fa17bed05c092257d98bccebdef183e69358baf8159799b146bd64736f6c634300081a0033","linkReferences":{}},"methodIdentifiers":{"onERC1155BatchReceived(address,address,uint256[],uint256[],bytes)":"bc197c81","onERC1155Received(address,address,uint256,uint256,bytes)":"f23a6e61","onERC721Received(address,address,uint256,bytes)":"150b7a02","supportsInterface(bytes4)":"01ffc9a7","tokensReceived(address,address,address,uint256,bytes,bytes)":"0023de29"},"id":39}