{"abi":[{"type":"function","name":"onERC1155BatchReceived","inputs":[{"name":"","type":"address","internalType":"address"},{"name":"","type":"address","internalType":"address"},{"name":"","type":"uint256[]","internalType":"uint256[]"},{"name":"","type":"uint256[]","internalType":"uint256[]"},{"name":"","type":"bytes","internalType":"bytes"}],"outputs":[{"name":"","type":"bytes4","internalType":"bytes4"}],"stateMutability":"pure"},{"type":"function","name":"onERC1155Received","inputs":[{"name":"","type":"address","internalType":"address"},{"name":"","type":"address","internalType":"address"},{"name":"","type":"uint256","internalType":"uint256"},{"name":"","type":"uint256","internalType":"uint256"},{"name":"","type":"bytes","internalType":"bytes"}],"outputs":[{"name":"","type":"bytes4","internalType":"bytes4"}],"stateMutability":"pure"},{"type":"function","name":"onERC721Received","inputs":[{"name":"","type":"address","internalType":"address"},{"name":"","type":"address","internalType":"address"},{"name":"","type":"uint256","internalType":"uint256"},{"name":"","type":"bytes","internalType":"bytes"}],"outputs":[{"name":"","type":"bytes4","internalType":"bytes4"}],"stateMutability":"pure"},{"type":"function","name":"supportsInterface","inputs":[{"name":"interfaceId","type":"bytes4","internalType":"bytes4"}],"outputs":[{"name":"","type":"bool","internalType":"bool"}],"stateMutability":"view"},{"type":"function","name":"tokensReceived","inputs":[{"name":"","type":"address","internalType":"address"},{"name":"","type":"address","internalType":"address"},{"name":"","type":"address","internalType":"address"},{"name":"","type":"uint256","internalType":"uint256"},{"name":"","type":"bytes","internalType":"bytes"},{"name":"","type":"bytes","internalType":"bytes"}],"outputs":[],"stateMutability":"pure"}],"bytecode":{"object":"0x6080604052348015600f57600080fd5b506104b88061001f6000396000f3fe608060405234801561001057600080fd5b50600436106100565760003560e01c806223de291461005b57806301ffc9a714610075578063150b7a021461009d578063bc197c81146100d5578063f23a6e61146100f7575b600080fd5b6100736100693660046101ce565b5050505050505050565b005b61008861008336600461027e565b610117565b60405190151581526020015b60405180910390f35b6100bc6100ab3660046102af565b630a85bd0160e11b95945050505050565b6040516001600160e01b03199091168152602001610094565b6100bc6100e3366004610363565b63bc197c8160e01b98975050505050505050565b6100bc61010536600461040a565b63f23a6e6160e01b9695505050505050565b60006001600160e01b03198216630271189760e51b148061014857506001600160e01b03198216630a85bd0160e11b145b8061016357506001600160e01b031982166301ffc9a760e01b145b92915050565b80356001600160a01b038116811461018057600080fd5b919050565b60008083601f84011261019757600080fd5b50813567ffffffffffffffff8111156101af57600080fd5b6020830191508360208285010111156101c757600080fd5b9250929050565b60008060008060008060008060c0898b0312156101ea57600080fd5b6101f389610169565b975061020160208a01610169565b965061020f60408a01610169565b955060608901359450608089013567ffffffffffffffff81111561023257600080fd5b61023e8b828c01610185565b90955093505060a089013567ffffffffffffffff81111561025e57600080fd5b61026a8b828c01610185565b999c989b5096995094979396929594505050565b60006020828403121561029057600080fd5b81356001600160e01b0319811681146102a857600080fd5b9392505050565b6000806000806000608086880312156102c757600080fd5b6102d086610169565b94506102de60208701610169565b935060408601359250606086013567ffffffffffffffff81111561030157600080fd5b61030d88828901610185565b969995985093965092949392505050565b60008083601f84011261033057600080fd5b50813567ffffffffffffffff81111561034857600080fd5b6020830191508360208260051b85010111156101c757600080fd5b60008060008060008060008060a0898b03121561037f57600080fd5b61038889610169565b975061039660208a01610169565b9650604089013567ffffffffffffffff8111156103b257600080fd5b6103be8b828c0161031e565b909750955050606089013567ffffffffffffffff8111156103de57600080fd5b6103ea8b828c0161031e565b909550935050608089013567ffffffffffffffff81111561025e57600080fd5b60008060008060008060a0878903121561042357600080fd5b61042c87610169565b955061043a60208801610169565b94506040870135935060608701359250608087013567ffffffffffffffff81111561046457600080fd5b61047089828a01610185565b979a969950949750929593949250505056fea26469706673582212201668c9756ed3e4123642f9f0bc041e3598e56770faf2a027918a12b6aa9a09db64736f6c634300081a0033","linkReferences":{}},"methodIdentifiers":{"onERC1155BatchReceived(address,address,uint256[],uint256[],bytes)":"bc197c81","onERC1155Received(address,address,uint256,uint256,bytes)":"f23a6e61","onERC721Received(address,address,uint256,bytes)":"150b7a02","supportsInterface(bytes4)":"01ffc9a7","tokensReceived(address,address,address,uint256,bytes,bytes)":"0023de29"},"id":37}