{"abi":[{"type":"function","name":"getMessageHash","inputs":[{"name":"message","type":"bytes","internalType":"bytes"}],"outputs":[{"name":"","type":"bytes32","internalType":"bytes32"}],"stateMutability":"view"},{"type":"function","name":"signMessage","inputs":[{"name":"_data","type":"bytes","internalType":"bytes"}],"outputs":[],"stateMutability":"nonpayable"},{"type":"event","name":"SignMsg","inputs":[{"name":"msgHash","type":"bytes32","indexed":true,"internalType":"bytes32"}],"anonymous":false}],"bytecode":{"object":"0x6080604052348015600f57600080fd5b5061039c8061001f6000396000f3fe608060405234801561001057600080fd5b50600436106100365760003560e01c80630a1028c41461003b57806385a5affe14610060575b600080fd5b61004e610049366004610220565b610075565b60405190815260200160405180910390f35b61007361006e3660046102d9565b610187565b005b6000807f60b3cbf8b4a223d68d641b3b6ddf9a298e7f33710cf3d3a9d1146b5a6150fbca60001b83805190602001206040516020016100be929190918252602082015260400190565b60408051601f19818403018152828252805160209182012063f698da2560e01b84529151919350601960f81b92600160f81b92309263f698da2592600480820193918290030181865afa158015610119573d6000803e3d6000fd5b505050506040513d601f19601f8201168201806040525081019061013d919061034d565b6040516001600160f81b0319938416602082015292909116602183015260228201526042810182905260620160405160208183030381529060405280519060200120915050919050565b60006101c883838080601f01602080910402602001604051908101604052809392919081815260200183838082843760009201919091525061007592505050565b600081815260076020526040808220600190555191925082917fe7f4675038f4f6034dfcbbb24c4dc08e4ebf10eb9d257d3d02c0f38d122ac6e49190a2505050565b634e487b7160e01b600052604160045260246000fd5b60006020828403121561023257600080fd5b813567ffffffffffffffff81111561024957600080fd5b8201601f8101841361025a57600080fd5b803567ffffffffffffffff8111156102745761027461020a565b604051601f8201601f19908116603f0116810167ffffffffffffffff811182821017156102a3576102a361020a565b6040528181528282016020018610156102bb57600080fd5b81602084016020830137600091810160200191909152949350505050565b600080602083850312156102ec57600080fd5b823567ffffffffffffffff81111561030357600080fd5b8301601f8101851361031457600080fd5b803567ffffffffffffffff81111561032b57600080fd5b85602082840101111561033d57600080fd5b6020919091019590945092505050565b60006020828403121561035f57600080fd5b505191905056fea2646970667358221220bf6f67488818a0cf5f00aef3d859c699777141d1178c47a10ca3750a20cd889c64736f6c634300081a0033","linkReferences":{}},"methodIdentifiers":{"getMessageHash(bytes)":"0a1028c4","signMessage(bytes)":"85a5affe"},"id":47}