{"abi":[{"type":"function","name":"getMessageHash","inputs":[{"name":"message","type":"bytes","internalType":"bytes"}],"outputs":[{"name":"","type":"bytes32","internalType":"bytes32"}],"stateMutability":"view"},{"type":"function","name":"signMessage","inputs":[{"name":"_data","type":"bytes","internalType":"bytes"}],"outputs":[],"stateMutability":"nonpayable"},{"type":"event","name":"SignMsg","inputs":[{"name":"msgHash","type":"bytes32","indexed":true,"internalType":"bytes32"}],"anonymous":false}],"bytecode":{"object":"0x608080604052346015576102c1908161001b8239f35b600080fdfe6080604052600436101561001257600080fd5b60003560e01c80630a1028c4146100d4576385a5affe1461003257600080fd5b346100cf5760203660031901126100cf5760043567ffffffffffffffff81116100cf57366023820112156100cf57806004013567ffffffffffffffff81116100cf5736602482840101116100cf576100979161009291602436920161015b565b6101a2565b80600052600760205260016040600020557fe7f4675038f4f6034dfcbbb24c4dc08e4ebf10eb9d257d3d02c0f38d122ac6e4600080a2005b600080fd5b346100cf5760203660031901126100cf5760043567ffffffffffffffff81116100cf57366023820112156100cf5761011b610092602092369060248160040135910161015b565b604051908152f35b90601f8019910116810190811067ffffffffffffffff82111761014557604052565b634e487b7160e01b600052604160045260246000fd5b92919267ffffffffffffffff82116101455760405191610185601f8201601f191660200184610123565b8294818452818301116100cf578281602093846000960137010152565b6020815191012060405160208101917f60b3cbf8b4a223d68d641b3b6ddf9a298e7f33710cf3d3a9d1146b5a6150fbca83526040820152604081526101e8606082610123565b51902060405163f698da2560e01b815290602082600481305afa91821561027f5760009261024b575b50604051906020820192601960f81b8452600160f81b60218401526022830152604282015260428152610245606282610123565b51902090565b9091506020813d602011610277575b8161026760209383610123565b810103126100cf57519038610211565b3d915061025a565b6040513d6000823e3d90fdfea26469706673582212203bf106e19beb85db0bfa7843d7bff8cd4b50db3338aecc2c92f41fb345ce0ba864736f6c634300081a0033","linkReferences":{}},"methodIdentifiers":{"getMessageHash(bytes)":"0a1028c4","signMessage(bytes)":"85a5affe"},"id":67}