{"abi":[{"type":"constructor","inputs":[],"stateMutability":"nonpayable"},{"type":"function","name":"simulate","inputs":[{"name":"to","type":"address","internalType":"address"},{"name":"value","type":"uint256","internalType":"uint256"},{"name":"data","type":"bytes","internalType":"bytes"},{"name":"operation","type":"uint8","internalType":"enum Enum.Operation"}],"outputs":[{"name":"estimate","type":"uint256","internalType":"uint256"},{"name":"success","type":"bool","internalType":"bool"},{"name":"returnData","type":"bytes","internalType":"bytes"}],"stateMutability":"nonpayable"}],"bytecode":{"object":"0x60a0604052348015600f57600080fd5b503060805260805161035a61002e6000396000606a015261035a6000f3fe608060405234801561001057600080fd5b506004361061002b5760003560e01c80631c5fb21114610030575b600080fd5b61004361003e3660046101db565b61005b565b60405161005293929190610289565b60405180910390f35b60008060606001600160a01b037f00000000000000000000000000000000000000000000000000000000000000001630036101025760405162461bcd60e51b815260206004820152603960248201527f53696d756c61746554784163636573736f722073686f756c64206f6e6c79206260448201527f652063616c6c6564207669612064656c656761746563616c6c00000000000000606482015260840160405180910390fd5b60005a905061014a898989898080601f0160208091040260200160405190810160405280939291908181526020018383808284376000920191909152508b925050505a610180565b92505a61015790826102e7565b935060405160203d0181016040523d81523d6000602083013e8092505050955095509592505050565b600060018360018111156101965761019661030e565b036101ae576000808551602087018986f490506101be565b600080855160208701888a87f190505b95945050505050565b8035600281106101d657600080fd5b919050565b6000806000806000608086880312156101f357600080fd5b85356001600160a01b038116811461020a57600080fd5b945060208601359350604086013567ffffffffffffffff81111561022d57600080fd5b8601601f8101881361023e57600080fd5b803567ffffffffffffffff81111561025557600080fd5b88602082840101111561026757600080fd5b6020919091019350915061027d606087016101c7565b90509295509295909350565b8381528215156020820152606060408201526000825180606084015260005b818110156102c557602081860181015160808684010152016102a8565b506000608082850101526080601f19601f830116840101915050949350505050565b8181038181111561030857634e487b7160e01b600052601160045260246000fd5b92915050565b634e487b7160e01b600052602160045260246000fdfea2646970667358221220274bae6229f3e24dfc962b1031a6db487f75daa24c0c6ca707432c12aaf188e464736f6c634300081a0033","linkReferences":{}},"methodIdentifiers":{"simulate(address,uint256,bytes,uint8)":"1c5fb211"},"id":22}