{"abi":[{"type":"constructor","inputs":[],"stateMutability":"nonpayable"},{"type":"function","name":"simulate","inputs":[{"name":"to","type":"address","internalType":"address"},{"name":"value","type":"uint256","internalType":"uint256"},{"name":"data","type":"bytes","internalType":"bytes"},{"name":"operation","type":"uint8","internalType":"enum Enum.Operation"}],"outputs":[{"name":"estimate","type":"uint256","internalType":"uint256"},{"name":"success","type":"bool","internalType":"bool"},{"name":"returnData","type":"bytes","internalType":"bytes"}],"stateMutability":"nonpayable"}],"bytecode":{"object":"0x60a08060405234602157306080526102799081610027823960805181609b0152f35b600080fdfe608080604052600436101561001357600080fd5b60003560e01c631c5fb2111461002857600080fd5b3461023e57608036600319011261023e57600435906001600160a01b038216820361023e5760443567ffffffffffffffff811161023e573660238201121561023e5780600401359067ffffffffffffffff821161023e57366024838301011161023e5760643592600284101561023e57307f00000000000000000000000000000000000000000000000000000000000000006001600160a01b0316146101d657505a935a9260009460405191601f19603f601f19601f8401160116830183811067ffffffffffffffff8211176101c25787969492876020819896946001946040528086528060248388019901893785010152036101b4575192f4905b5a83039283116101a057826040519160203d8401016040523d83523d81602085013e60405193849283521515602083015260606040830152825192836060840152815b84811061018857505091608092838284010152601f80199101168101030190f35b60208282018101516080888401015286945001610167565b634e487b7160e01b81526011600452602490fd5b51926024359190f190610124565b634e487b7160e01b88526041600452602488fd5b62461bcd60e51b815260206004820152603960248201527f53696d756c61746554784163636573736f722073686f756c64206f6e6c79206260448201527f652063616c6c6564207669612064656c656761746563616c6c000000000000006064820152608490fd5b600080fdfea26469706673582212207c9547d2c4d51af10cd0e62086a038a45f0bb9334b03afeabf89d5506535f53464736f6c634300081a0033","linkReferences":{}},"methodIdentifiers":{"simulate(address,uint256,bytes,uint8)":"1c5fb211"},"id":23}