{"abi":[{"type":"constructor","inputs":[{"name":"safeSingleton","type":"address","internalType":"address"},{"name":"safeL2Singleton","type":"address","internalType":"address"},{"name":"fallbackHandler","type":"address","internalType":"address"}],"stateMutability":"nonpayable"},{"type":"function","name":"MIGRATION_SINGLETON","inputs":[],"outputs":[{"name":"","type":"address","internalType":"address"}],"stateMutability":"view"},{"type":"function","name":"SAFE_FALLBACK_HANDLER","inputs":[],"outputs":[{"name":"","type":"address","internalType":"address"}],"stateMutability":"view"},{"type":"function","name":"SAFE_L2_SINGLETON","inputs":[],"outputs":[{"name":"","type":"address","internalType":"address"}],"stateMutability":"view"},{"type":"function","name":"SAFE_SINGLETON","inputs":[],"outputs":[{"name":"","type":"address","internalType":"address"}],"stateMutability":"view"},{"type":"function","name":"migrateL2Singleton","inputs":[],"outputs":[],"stateMutability":"nonpayable"},{"type":"function","name":"migrateL2WithFallbackHandler","inputs":[],"outputs":[],"stateMutability":"nonpayable"},{"type":"function","name":"migrateSingleton","inputs":[],"outputs":[],"stateMutability":"nonpayable"},{"type":"function","name":"migrateWithFallbackHandler","inputs":[],"outputs":[],"stateMutability":"nonpayable"},{"type":"event","name":"ChangedMasterCopy","inputs":[{"name":"singleton","type":"address","indexed":false,"internalType":"address"}],"anonymous":false}],"bytecode":{"object":"0x610100346101d557601f6107ee38819003918201601f19168301916001600160401b038311848410176101da578084926060946040528339810103126101d557610048816101f0565b90610061604061005a602084016101f0565b92016101f0565b9130608052803b1561019057813b1561013f57823b156100fb5760a05260c05260e0526040516105e990816102058239608051818181608b0152818161012c015281816102d001528181610316015261046f015260a05181818160c8015281816101720152610246015260c05181818161028b0152818161035701526104ac015260e0518181816101cf015281816103b401526104290152f35b606460405162461bcd60e51b815260206004820152602060248201527f66616c6c6261636b2068616e646c6572206973206e6f74206465706c6f7965646044820152fd5b60405162461bcd60e51b815260206004820152602360248201527f536166652053696e676c65746f6e20284c3229206973206e6f74206465706c6f6044820152621e595960ea1b6064820152608490fd5b60405162461bcd60e51b815260206004820152601e60248201527f536166652053696e676c65746f6e206973206e6f74206465706c6f79656400006044820152606490fd5b600080fd5b634e487b7160e01b600052604160045260246000fd5b51906001600160a01b03821682036101d55756fe6080604052600436101561001257600080fd5b6000803560e01c806307f464a4146104585780630d7101f71461041357806368cb3d94146102ff57806372f7a956146102ba5780639bf47d6e14610275578063caa12add14610230578063ed007fc6146101155763f6682ab01461007557600080fd5b346101125780600319360112610112576100ba307f00000000000000000000000000000000000000000000000000000000000000006001600160a01b031614156104f6565b80546001600160a01b0319167f00000000000000000000000000000000000000000000000000000000000000006001600160a01b0316908117825560405190815260008051602061059483398151915290602090a180f35b80fd5b5034610112578060031936011261011257610164307f00000000000000000000000000000000000000000000000000000000000000006001600160a01b0316141561015f816104f6565b6104f6565b80546001600160a01b0319167f00000000000000000000000000000000000000000000000000000000000000006001600160a01b0316908117825560405190815260008051602061059483398151915290602090a1303b156101125760405163f08a032360e01b81527f00000000000000000000000000000000000000000000000000000000000000006001600160a01b031660048201528190818160248183305af18015610225576102145750f35b8161021e9161055b565b6101125780f35b6040513d84823e3d90fd5b50346101125780600319360112610112576040517f00000000000000000000000000000000000000000000000000000000000000006001600160a01b03168152602090f35b50346101125780600319360112610112576040517f00000000000000000000000000000000000000000000000000000000000000006001600160a01b03168152602090f35b50346101125780600319360112610112576040517f00000000000000000000000000000000000000000000000000000000000000006001600160a01b03168152602090f35b5034610112578060031936011261011257610349307f00000000000000000000000000000000000000000000000000000000000000006001600160a01b0316141561015f816104f6565b80546001600160a01b0319167f00000000000000000000000000000000000000000000000000000000000000006001600160a01b0316908117825560405190815260008051602061059483398151915290602090a1303b156101125760405163f08a032360e01b81527f00000000000000000000000000000000000000000000000000000000000000006001600160a01b0316600482015281808260248183305af18015610406576103f85780f35b6104019161055b565b388180f35b50604051903d90823e3d90fd5b50346101125780600319360112610112576040517f00000000000000000000000000000000000000000000000000000000000000006001600160a01b03168152602090f35b503461011257806003193601126101125761049e307f00000000000000000000000000000000000000000000000000000000000000006001600160a01b031614156104f6565b80546001600160a01b0319167f00000000000000000000000000000000000000000000000000000000000000006001600160a01b0316908117825560405190815260008051602061059483398151915290602090a180f35b156104fd57565b60405162461bcd60e51b815260206004820152603060248201527f4d6967726174696f6e2073686f756c64206f6e6c792062652063616c6c65642060448201526f1d9a584819195b1959d85d1958d85b1b60821b6064820152608490fd5b90601f8019910116810190811067ffffffffffffffff82111761057d57604052565b634e487b7160e01b600052604160045260246000fdfe75e41bc35ff1bf14d81d1d2f649c0084a0f974f9289c803ec9898eeec4c8d0b8a2646970667358221220b550bbb9de89622444a90c9c6724069b249c856d063c790df819924ae04a399f64736f6c634300081a0033","linkReferences":{}},"methodIdentifiers":{"MIGRATION_SINGLETON()":"72f7a956","SAFE_FALLBACK_HANDLER()":"0d7101f7","SAFE_L2_SINGLETON()":"9bf47d6e","SAFE_SINGLETON()":"caa12add","migrateL2Singleton()":"07f464a4","migrateL2WithFallbackHandler()":"68cb3d94","migrateSingleton()":"f6682ab0","migrateWithFallbackHandler()":"ed007fc6"},"id":64}