{"abi":[{"type":"constructor","inputs":[],"stateMutability":"nonpayable"},{"type":"function","name":"multiSend","inputs":[{"name":"transactions","type":"bytes","internalType":"bytes"}],"outputs":[],"stateMutability":"payable"}],"bytecode":{"object":"0x60a0604052348015600f57600080fd5b503060805260805161025a61002e60003960006042015261025a6000f3fe60806040526004361061001e5760003560e01c80638d80ff0a14610023575b600080fd5b61003661003136600461016b565b610038565b005b6001600160a01b037f00000000000000000000000000000000000000000000000000000000000000001630036100cd5760405162461bcd60e51b815260206004820152603060248201527f4d756c746953656e642073686f756c64206f6e6c792062652063616c6c65642060448201526f1d9a584819195b1959d85d1958d85b1b60821b606482015260840160405180910390fd5b805160205b81811015610150578083015160f81c6001820184015160601c601583018501516035840186015160558501870160008560008114610117576001811461012757610132565b6000808585888a5af19150610132565b6000808585895af491505b508061013d57600080fd5b50508060550185019450505050506100d2565b505050565b634e487b7160e01b600052604160045260246000fd5b60006020828403121561017d57600080fd5b813567ffffffffffffffff81111561019457600080fd5b8201601f810184136101a557600080fd5b803567ffffffffffffffff8111156101bf576101bf610155565b604051601f8201601f19908116603f0116810167ffffffffffffffff811182821017156101ee576101ee610155565b60405281815282820160200186101561020657600080fd5b8160208401602083013760009181016020019190915294935050505056fea2646970667358221220302c534db3bbaec8d1fbf50090db5439a2739dbe8caf41ed00fbceba95d7541c64736f6c634300081a0033","linkReferences":{}},"methodIdentifiers":{"multiSend(bytes)":"8d80ff0a"},"id":44}