{"abi":[{"type":"constructor","inputs":[],"stateMutability":"nonpayable"},{"type":"function","name":"setupToL2","inputs":[{"name":"l2Singleton","type":"address","internalType":"address"}],"outputs":[],"stateMutability":"nonpayable"},{"type":"event","name":"ChangedMasterCopy","inputs":[{"name":"singleton","type":"address","indexed":false,"internalType":"address"}],"anonymous":false}],"bytecode":{"object":"0x60a080604052346021573060805261020b908161002782396080518160510152f35b600080fdfe608080604052600436101561001357600080fd5b60003560e01c63fe51f6431461002857600080fd5b346101d05760203660031901126101d0576004356001600160a01b038116918282036101d057307f00000000000000000000000000000000000000000000000000000000000000006001600160a01b0316146101715750600554610121573b156100dc576001460361009657005b6020817f75e41bc35ff1bf14d81d1d2f649c0084a0f974f9289c803ec9898eeec4c8d0b8926bffffffffffffffffffffffff60a01b6000541617600055604051908152a1005b60405162461bcd60e51b815260206004820152601c60248201527f4163636f756e7420646f65736e277420636f6e7461696e20636f6465000000006044820152606490fd5b60405162461bcd60e51b815260206004820152602260248201527f53616665206d7573742068617665206e6f7420657865637574656420616e79206044820152610e8f60f31b6064820152608490fd5b62461bcd60e51b815260206004820152603460248201527f53616665546f4c3253657475702073686f756c64206f6e6c792062652063616c6044820152731b1959081d9a584819195b1959d85d1958d85b1b60621b6064820152608490fd5b600080fdfea2646970667358221220505f112f8ceb02a38d9db0a6138c7ea29a1cbb60cbcdc70f03a7733c617c820964736f6c634300081a0033","linkReferences":{}},"methodIdentifiers":{"setupToL2(address)":"fe51f643"},"id":66}