{"abi":[{"type":"fallback","stateMutability":"nonpayable"},{"type":"receive","stateMutability":"payable"},{"type":"function","name":"VERSION","inputs":[],"outputs":[{"name":"","type":"string","internalType":"string"}],"stateMutability":"view"},{"type":"function","name":"addOwnerWithThreshold","inputs":[{"name":"owner","type":"address","internalType":"address"},{"name":"_threshold","type":"uint256","internalType":"uint256"}],"outputs":[],"stateMutability":"nonpayable"},{"type":"function","name":"approveHash","inputs":[{"name":"hashToApprove","type":"bytes32","internalType":"bytes32"}],"outputs":[],"stateMutability":"nonpayable"},{"type":"function","name":"approvedHashes","inputs":[{"name":"","type":"address","internalType":"address"},{"name":"","type":"bytes32","internalType":"bytes32"}],"outputs":[{"name":"","type":"uint256","internalType":"uint256"}],"stateMutability":"view"},{"type":"function","name":"changeThreshold","inputs":[{"name":"_threshold","type":"uint256","internalType":"uint256"}],"outputs":[],"stateMutability":"nonpayable"},{"type":"function","name":"checkNSignatures","inputs":[{"name":"dataHash","type":"bytes32","internalType":"bytes32"},{"name":"data","type":"bytes","internalType":"bytes"},{"name":"signatures","type":"bytes","internalType":"bytes"},{"name":"requiredSignatures","type":"uint256","internalType":"uint256"}],"outputs":[],"stateMutability":"view"},{"type":"function","name":"checkSignatures","inputs":[{"name":"dataHash","type":"bytes32","internalType":"bytes32"},{"name":"data","type":"bytes","internalType":"bytes"},{"name":"signatures","type":"bytes","internalType":"bytes"}],"outputs":[],"stateMutability":"view"},{"type":"function","name":"disableModule","inputs":[{"name":"prevModule","type":"address","internalType":"address"},{"name":"module","type":"address","internalType":"address"}],"outputs":[],"stateMutability":"nonpayable"},{"type":"function","name":"domainSeparator","inputs":[],"outputs":[{"name":"","type":"bytes32","internalType":"bytes32"}],"stateMutability":"view"},{"type":"function","name":"enableModule","inputs":[{"name":"module","type":"address","internalType":"address"}],"outputs":[],"stateMutability":"nonpayable"},{"type":"function","name":"encodeTransactionData","inputs":[{"name":"to","type":"address","internalType":"address"},{"name":"value","type":"uint256","internalType":"uint256"},{"name":"data","type":"bytes","internalType":"bytes"},{"name":"operation","type":"uint8","internalType":"enum Enum.Operation"},{"name":"safeTxGas","type":"uint256","internalType":"uint256"},{"name":"baseGas","type":"uint256","internalType":"uint256"},{"name":"gasPrice","type":"uint256","internalType":"uint256"},{"name":"gasToken","type":"address","internalType":"address"},{"name":"refundReceiver","type":"address","internalType":"address"},{"name":"_nonce","type":"uint256","internalType":"uint256"}],"outputs":[{"name":"","type":"bytes","internalType":"bytes"}],"stateMutability":"view"},{"type":"function","name":"execTransaction","inputs":[{"name":"to","type":"address","internalType":"address"},{"name":"value","type":"uint256","internalType":"uint256"},{"name":"data","type":"bytes","internalType":"bytes"},{"name":"operation","type":"uint8","internalType":"enum Enum.Operation"},{"name":"safeTxGas","type":"uint256","internalType":"uint256"},{"name":"baseGas","type":"uint256","internalType":"uint256"},{"name":"gasPrice","type":"uint256","internalType":"uint256"},{"name":"gasToken","type":"address","internalType":"address"},{"name":"refundReceiver","type":"address","internalType":"address payable"},{"name":"signatures","type":"bytes","internalType":"bytes"}],"outputs":[{"name":"","type":"bool","internalType":"bool"}],"stateMutability":"payable"},{"type":"function","name":"execTransactionFromModule","inputs":[{"name":"to","type":"address","internalType":"address"},{"name":"value","type":"uint256","internalType":"uint256"},{"name":"data","type":"bytes","internalType":"bytes"},{"name":"operation","type":"uint8","internalType":"enum Enum.Operation"}],"outputs":[{"name":"success","type":"bool","internalType":"bool"}],"stateMutability":"nonpayable"},{"type":"function","name":"execTransactionFromModuleReturnData","inputs":[{"name":"to","type":"address","internalType":"address"},{"name":"value","type":"uint256","internalType":"uint256"},{"name":"data","type":"bytes","internalType":"bytes"},{"name":"operation","type":"uint8","internalType":"enum Enum.Operation"}],"outputs":[{"name":"success","type":"bool","internalType":"bool"},{"name":"returnData","type":"bytes","internalType":"bytes"}],"stateMutability":"nonpayable"},{"type":"function","name":"getChainId","inputs":[],"outputs":[{"name":"","type":"uint256","internalType":"uint256"}],"stateMutability":"view"},{"type":"function","name":"getModulesPaginated","inputs":[{"name":"start","type":"address","internalType":"address"},{"name":"pageSize","type":"uint256","internalType":"uint256"}],"outputs":[{"name":"array","type":"address[]","internalType":"address[]"},{"name":"next","type":"address","internalType":"address"}],"stateMutability":"view"},{"type":"function","name":"getOwners","inputs":[],"outputs":[{"name":"","type":"address[]","internalType":"address[]"}],"stateMutability":"view"},{"type":"function","name":"getStorageAt","inputs":[{"name":"offset","type":"uint256","internalType":"uint256"},{"name":"length","type":"uint256","internalType":"uint256"}],"outputs":[{"name":"","type":"bytes","internalType":"bytes"}],"stateMutability":"view"},{"type":"function","name":"getThreshold","inputs":[],"outputs":[{"name":"","type":"uint256","internalType":"uint256"}],"stateMutability":"view"},{"type":"function","name":"getTransactionHash","inputs":[{"name":"to","type":"address","internalType":"address"},{"name":"value","type":"uint256","internalType":"uint256"},{"name":"data","type":"bytes","internalType":"bytes"},{"name":"operation","type":"uint8","internalType":"enum Enum.Operation"},{"name":"safeTxGas","type":"uint256","internalType":"uint256"},{"name":"baseGas","type":"uint256","internalType":"uint256"},{"name":"gasPrice","type":"uint256","internalType":"uint256"},{"name":"gasToken","type":"address","internalType":"address"},{"name":"refundReceiver","type":"address","internalType":"address"},{"name":"_nonce","type":"uint256","internalType":"uint256"}],"outputs":[{"name":"","type":"bytes32","internalType":"bytes32"}],"stateMutability":"view"},{"type":"function","name":"isModuleEnabled","inputs":[{"name":"module","type":"address","internalType":"address"}],"outputs":[{"name":"","type":"bool","internalType":"bool"}],"stateMutability":"view"},{"type":"function","name":"isOwner","inputs":[{"name":"owner","type":"address","internalType":"address"}],"outputs":[{"name":"","type":"bool","internalType":"bool"}],"stateMutability":"view"},{"type":"function","name":"nonce","inputs":[],"outputs":[{"name":"","type":"uint256","internalType":"uint256"}],"stateMutability":"view"},{"type":"function","name":"removeOwner","inputs":[{"name":"prevOwner","type":"address","internalType":"address"},{"name":"owner","type":"address","internalType":"address"},{"name":"_threshold","type":"uint256","internalType":"uint256"}],"outputs":[],"stateMutability":"nonpayable"},{"type":"function","name":"setFallbackHandler","inputs":[{"name":"handler","type":"address","internalType":"address"}],"outputs":[],"stateMutability":"nonpayable"},{"type":"function","name":"setGuard","inputs":[{"name":"guard","type":"address","internalType":"address"}],"outputs":[],"stateMutability":"nonpayable"},{"type":"function","name":"setup","inputs":[{"name":"_owners","type":"address[]","internalType":"address[]"},{"name":"_threshold","type":"uint256","internalType":"uint256"},{"name":"to","type":"address","internalType":"address"},{"name":"data","type":"bytes","internalType":"bytes"},{"name":"fallbackHandler","type":"address","internalType":"address"},{"name":"paymentToken","type":"address","internalType":"address"},{"name":"payment","type":"uint256","internalType":"uint256"},{"name":"paymentReceiver","type":"address","internalType":"address payable"}],"outputs":[],"stateMutability":"nonpayable"},{"type":"function","name":"signedMessages","inputs":[{"name":"","type":"bytes32","internalType":"bytes32"}],"outputs":[{"name":"","type":"uint256","internalType":"uint256"}],"stateMutability":"view"},{"type":"function","name":"simulateAndRevert","inputs":[{"name":"targetContract","type":"address","internalType":"address"},{"name":"calldataPayload","type":"bytes","internalType":"bytes"}],"outputs":[],"stateMutability":"nonpayable"},{"type":"function","name":"swapOwner","inputs":[{"name":"prevOwner","type":"address","internalType":"address"},{"name":"oldOwner","type":"address","internalType":"address"},{"name":"newOwner","type":"address","internalType":"address"}],"outputs":[],"stateMutability":"nonpayable"},{"type":"event","name":"AddedOwner","inputs":[{"name":"owner","type":"address","indexed":true,"internalType":"address"}],"anonymous":false},{"type":"event","name":"ApproveHash","inputs":[{"name":"approvedHash","type":"bytes32","indexed":true,"internalType":"bytes32"},{"name":"owner","type":"address","indexed":true,"internalType":"address"}],"anonymous":false},{"type":"event","name":"ChangedFallbackHandler","inputs":[{"name":"handler","type":"address","indexed":true,"internalType":"address"}],"anonymous":false},{"type":"event","name":"ChangedGuard","inputs":[{"name":"guard","type":"address","indexed":true,"internalType":"address"}],"anonymous":false},{"type":"event","name":"ChangedThreshold","inputs":[{"name":"threshold","type":"uint256","indexed":false,"internalType":"uint256"}],"anonymous":false},{"type":"event","name":"DisabledModule","inputs":[{"name":"module","type":"address","indexed":true,"internalType":"address"}],"anonymous":false},{"type":"event","name":"EnabledModule","inputs":[{"name":"module","type":"address","indexed":true,"internalType":"address"}],"anonymous":false},{"type":"event","name":"ExecutionFailure","inputs":[{"name":"txHash","type":"bytes32","indexed":true,"internalType":"bytes32"},{"name":"payment","type":"uint256","indexed":false,"internalType":"uint256"}],"anonymous":false},{"type":"event","name":"ExecutionFromModuleFailure","inputs":[{"name":"module","type":"address","indexed":true,"internalType":"address"}],"anonymous":false},{"type":"event","name":"ExecutionFromModuleSuccess","inputs":[{"name":"module","type":"address","indexed":true,"internalType":"address"}],"anonymous":false},{"type":"event","name":"ExecutionSuccess","inputs":[{"name":"txHash","type":"bytes32","indexed":true,"internalType":"bytes32"},{"name":"payment","type":"uint256","indexed":false,"internalType":"uint256"}],"anonymous":false},{"type":"event","name":"RemovedOwner","inputs":[{"name":"owner","type":"address","indexed":true,"internalType":"address"}],"anonymous":false},{"type":"event","name":"SafeModuleTransaction","inputs":[{"name":"module","type":"address","indexed":false,"internalType":"address"},{"name":"to","type":"address","indexed":false,"internalType":"address"},{"name":"value","type":"uint256","indexed":false,"internalType":"uint256"},{"name":"data","type":"bytes","indexed":false,"internalType":"bytes"},{"name":"operation","type":"uint8","indexed":false,"internalType":"enum Enum.Operation"}],"anonymous":false},{"type":"event","name":"SafeMultiSigTransaction","inputs":[{"name":"to","type":"address","indexed":false,"internalType":"address"},{"name":"value","type":"uint256","indexed":false,"internalType":"uint256"},{"name":"data","type":"bytes","indexed":false,"internalType":"bytes"},{"name":"operation","type":"uint8","indexed":false,"internalType":"enum Enum.Operation"},{"name":"safeTxGas","type":"uint256","indexed":false,"internalType":"uint256"},{"name":"baseGas","type":"uint256","indexed":false,"internalType":"uint256"},{"name":"gasPrice","type":"uint256","indexed":false,"internalType":"uint256"},{"name":"gasToken","type":"address","indexed":false,"internalType":"address"},{"name":"refundReceiver","type":"address","indexed":false,"internalType":"address payable"},{"name":"signatures","type":"bytes","indexed":false,"internalType":"bytes"},{"name":"additionalInfo","type":"bytes","indexed":false,"internalType":"bytes"}],"anonymous":false},{"type":"event","name":"SafeReceived","inputs":[{"name":"sender","type":"address","indexed":true,"internalType":"address"},{"name":"value","type":"uint256","indexed":false,"internalType":"uint256"}],"anonymous":false},{"type":"event","name":"SafeSetup","inputs":[{"name":"initiator","type":"address","indexed":true,"internalType":"address"},{"name":"owners","type":"address[]","indexed":false,"internalType":"address[]"},{"name":"threshold","type":"uint256","indexed":false,"internalType":"uint256"},{"name":"initializer","type":"address","indexed":false,"internalType":"address"},{"name":"fallbackHandler","type":"address","indexed":false,"internalType":"address"}],"anonymous":false},{"type":"event","name":"SignMsg","inputs":[{"name":"msgHash","type":"bytes32","indexed":true,"internalType":"bytes32"}],"anonymous":false}],"bytecode":{"object":"0x6080604052348015600f57600080fd5b5060016004556132b6806100246000396000f3fe6080604052600436106101d15760003560e01c8063affed0e0116100f7578063e19a9dd911610095578063f08a032311610064578063f08a0323146105f5578063f698da2514610615578063f8dc5dd91461062a578063ffa1ad741461064a5761020d565b8063e19a9dd914610580578063e318b52b146105a0578063e75235b8146105c0578063e86637db146105d55761020d565b8063cc2f8452116100d1578063cc2f8452146104f2578063d4d9bdcd14610520578063d8d11f7814610540578063e009cfde146105605761020d565b8063affed0e01461049c578063b4faba09146104b2578063b63e800d146104d25761020d565b80635624b25b1161016f5780636a7612021161013e5780636a7612021461040f5780637d83297414610422578063934f3a111461045a578063a0e67e2b1461047a5761020d565b80635624b25b146103755780635ae6bd37146103a2578063610b5925146103cf578063694e80c3146103ef5761020d565b80632f54bf6e116101ab5780632f54bf6e146102ea5780633408e4701461030a578063468721a7146103275780635229073f146103475761020d565b80630d582f131461027357806312fb68e0146102955780632d9ad53d146102b55761020d565b3661020d5760405134815233907f3d0ce9bfc3ed7d6862dbb28b2dea94561fe714a1b4d019aa8af39730d1ad7c3d9060200160405180910390a2005b34801561021957600080fd5b507f6c9a6c4a39284e37ed1cf53d337577d14212a4870fb976a4366c693b939918d580548061024457005b36600080373360601b365260008060143601600080855af190503d6000803e8061026d573d6000fd5b503d6000f35b34801561027f57600080fd5b5061029361028e366004612698565b61067b565b005b3480156102a157600080fd5b506102936102b0366004612767565b6107d3565b3480156102c157600080fd5b506102d56102d03660046127df565b610c72565b60405190151581526020015b60405180910390f35b3480156102f657600080fd5b506102d56103053660046127df565b610cad565b34801561031657600080fd5b50465b6040519081526020016102e1565b34801561033357600080fd5b506102d561034236600461280b565b610ce5565b34801561035357600080fd5b5061036761036236600461280b565b610d3b565b6040516102e19291906128ba565b34801561038157600080fd5b506103956103903660046128d5565b610d71565b6040516102e191906128f7565b3480156103ae57600080fd5b506103196103bd36600461290a565b60076020526000908152604090205481565b3480156103db57600080fd5b506102936103ea3660046127df565b610dec565b3480156103fb57600080fd5b5061029361040a36600461290a565b610f25565b6102d561041d36600461296b565b610fc3565b34801561042e57600080fd5b5061031961043d366004612698565b600860209081526000928352604080842090915290825290205481565b34801561046657600080fd5b50610293610475366004612a44565b61106b565b34801561048657600080fd5b5061048f6110b5565b6040516102e19190612af9565b3480156104a857600080fd5b5061031960055481565b3480156104be57600080fd5b506102936104cd366004612b0c565b6111a5565b3480156104de57600080fd5b506102936104ed366004612b5b565b6111c8565b3480156104fe57600080fd5b5061051261050d366004612698565b6112ca565b6040516102e1929190612c55565b34801561052c57600080fd5b5061029361053b36600461290a565b611485565b34801561054c57600080fd5b5061031961055b366004612c7f565b61151a565b34801561056c57600080fd5b5061029361057b366004612d45565b611547565b34801561058c57600080fd5b5061029361059b3660046127df565b611669565b3480156105ac57600080fd5b506102936105bb366004612d7e565b61177f565b3480156105cc57600080fd5b50600454610319565b3480156105e157600080fd5b506103956105f0366004612c7f565b61195a565b34801561060157600080fd5b506102936106103660046127df565b611a33565b34801561062157600080fd5b50610319611a7b565b34801561063657600080fd5b50610293610645366004612dc9565b611ad2565b34801561065657600080fd5b5061039560405180604001604052806005815260200164312e342e3160d81b81525081565b610683611c3d565b6001600160a01b038216158015906106a557506001600160a01b038216600114155b80156106ba57506001600160a01b0382163014155b6106df5760405162461bcd60e51b81526004016106d690612e0a565b60405180910390fd5b6001600160a01b0382811660009081526002602052604090205416156107175760405162461bcd60e51b81526004016106d690612e29565b60026020527fe90b7bceb6e7df5418fb78d8ee546e97c83a08bbccc01a0644d599ccd2a7c2e080546001600160a01b038481166000818152604081208054939094166001600160a01b03199384161790935560018352835490911617909155600380549161078483612e5e565b90915550506040516001600160a01b038316907f9465fa0c962cc76958e6373a993326400c1c94f8be2fe3a952adfa7f60b2ea2690600090a280600454146107cf576107cf81610f25565b5050565b6107de816041611c76565b825110156108165760405162461bcd60e51b8152602060048201526005602482015264047533032360dc1b60448201526064016106d6565b6000808060008060005b86811015610c66576041818102890160208101516040820151919092015160ff16955090935091506000849003610a2e57885160208a01208a1461088e5760405162461bcd60e51b8152602060048201526005602482015264475330323760d81b60448201526064016106d6565b919350839161089e876041611c76565b8210156108d55760405162461bcd60e51b8152602060048201526005602482015264475330323160d81b60448201526064016106d6565b87516108e2836020611cb2565b11156109185760405162461bcd60e51b815260206004820152600560248201526423a998191960d91b60448201526064016106d6565b60208289018101518951909161093b908390610935908790611cb2565b90611cb2565b11156109715760405162461bcd60e51b8152602060048201526005602482015264475330323360d81b60448201526064016106d6565b6040516320c13b0b60e01b8082528a8501602001916001600160a01b038916906320c13b0b906109a7908f908690600401612e77565b602060405180830381865afa1580156109c4573d6000803e3d6000fd5b505050506040513d601f19601f820116820180604052508101906109e89190612e9c565b6001600160e01b03191614610a275760405162461bcd60e51b815260206004820152600560248201526411d4cc0c8d60da1b60448201526064016106d6565b5050610bd5565b8360ff16600103610ab0579193508391336001600160a01b0384161480610a7757506001600160a01b03851660009081526008602090815260408083208d845290915290205415155b610aab5760405162461bcd60e51b8152602060048201526005602482015264475330323560d81b60448201526064016106d6565b610bd5565b601e8460ff161115610b75576040517f19457468657265756d205369676e6564204d6573736167653a0a3332000000006020820152603c81018b9052600190605c0160405160208183030381529060405280519060200120600486610b159190612ec6565b6040805160008152602081018083529390935260ff90911690820152606081018590526080810184905260a0016020604051602081039080840390855afa158015610b64573d6000803e3d6000fd5b505050602060405103519450610bd5565b6040805160008152602081018083528c905260ff861691810191909152606081018490526080810183905260019060a0016020604051602081039080840390855afa158015610bc8573d6000803e3d6000fd5b5050506020604051035194505b856001600160a01b0316856001600160a01b0316118015610c0f57506001600160a01b038581166000908152600260205260409020541615155b8015610c2557506001600160a01b038516600114155b610c595760405162461bcd60e51b815260206004820152600560248201526423a998191b60d91b60448201526064016106d6565b9394508493600101610820565b50505050505050505050565b600060016001600160a01b03831614801590610ca757506001600160a01b038281166000908152600160205260409020541615155b92915050565b60006001600160a01b038216600114801590610ca75750506001600160a01b0390811660009081526002602052604090205416151590565b60007fb648d3644f584ed1c2232d53c46d87e693586486ad0d1175f8656013110b714e3386868686604051610d1e959493929190612f17565b60405180910390a1610d3285858585611cce565b95945050505050565b60006060610d4b86868686610ce5565b915060405160203d0181016040523d81523d6000602083013e8091505094509492505050565b60606000610d80836020612f63565b6001600160401b03811115610d9757610d976126c4565b6040519080825280601f01601f191660200182016040528015610dc1576020820181803683370190505b50905060005b83811015610de45784810154602080830284010152600101610dc7565b509392505050565b610df4611c3d565b6001600160a01b03811615801590610e1657506001600160a01b038116600114155b610e4a5760405162461bcd60e51b8152602060048201526005602482015264475331303160d81b60448201526064016106d6565b6001600160a01b038181166000908152600160205260409020541615610e9a5760405162461bcd60e51b815260206004820152600560248201526423a998981960d91b60448201526064016106d6565b600160208190527fcc69885fda6bcc1a4ace058b4a62bf5e179ea78fd58a1ccd71c22cc9b688792f80546001600160a01b03848116600081815260408082208054949095166001600160a01b031994851617909455948552835490911681179092555190917fecdf3a3effea5783a3c4c2140e677577666428d44ed9d474a0b3a4c9943f844091a250565b610f2d611c3d565b600354811115610f4f5760405162461bcd60e51b81526004016106d690612f7a565b6001811015610f885760405162461bcd60e51b815260206004820152600560248201526423a999181960d91b60448201526064016106d6565b60048190556040518181527f610f7ff2b304ae8903c3de74c60c6ab1f7d6226b3f52c5161905bb5ad4039c939060200160405180910390a150565b600554600454604080516020810193909352339083015260608281019190915260009160800160405160208183030381529060405290507f66753cd2356569ee081232e3be8909b950e0a76c1f8460c3a5e3c2be32b11bed8d8d8d8d8d8d8d8d8d8d8d8c60405161103f9c9b9a99989796959493929190612fc2565b60405180910390a161105a8d8d8d8d8d8d8d8d8d8d8d611da7565b9d9c50505050505050505050505050565b600454806110a35760405162461bcd60e51b8152602060048201526005602482015264475330303160d81b60448201526064016106d6565b6110af848484846107d3565b50505050565b606060006003546001600160401b038111156110d3576110d36126c4565b6040519080825280602002602001820160405280156110fc578160200160208202803683370190505b506001600090815260026020527fe90b7bceb6e7df5418fb78d8ee546e97c83a08bbccc01a0644d599ccd2a7c2e054919250906001600160a01b03165b6001600160a01b03811660011461119d578083838151811061115d5761115d613061565b6001600160a01b0392831660209182029290920181019190915291811660009081526002909252604090912054168161119581612e5e565b925050611139565b509092915050565b600080825160208401855af480600052503d6020523d600060403e60403d016000fd5b6112068a8a808060200260200160405190810160405280939291908181526020018383602002808284376000920191909152508c92506120f2915050565b6001600160a01b0384161561121e5761121e846122ce565b61125e8787878080601f01602080910402602001604051908101604052809392919081815260200183838082843760009201919091525061233292505050565b81156112755761127382600060018685612464565b505b336001600160a01b03167f141df868a6331af528e38c83b7aa03edc19be66e37ae67f9285bf4f8e3c6a1a88b8b8b8b896040516112b6959493929190613077565b60405180910390a250505050505050505050565b606060006001600160a01b038416600114806112ea57506112ea84610c72565b61131e5760405162461bcd60e51b8152602060048201526005602482015264475331303560d81b60448201526064016106d6565b600083116113565760405162461bcd60e51b815260206004820152600560248201526423a998981b60d91b60448201526064016106d6565b826001600160401b0381111561136e5761136e6126c4565b604051908082528060200260200182016040528015611397578160200160208202803683370190505b506001600160a01b03808616600090815260016020526040812054929450911691505b6001600160a01b038216158015906113dc57506001600160a01b038216600114155b80156113e757508381105b1561144257818382815181106113ff576113ff613061565b6001600160a01b0392831660209182029290920181019190915292811660009081526001909352604090922054909116908061143a81612e5e565b9150506113ba565b6001600160a01b03821660011461147a578261145f6001836130e3565b8151811061146f5761146f613061565b602002602001015191505b808352509250929050565b336000908152600260205260409020546001600160a01b03166114d25760405162461bcd60e51b8152602060048201526005602482015264047533033360dc1b60448201526064016106d6565b336000818152600860209081526040808320858452909152808220600190555183917ff2a0eb156472d1440255b0d7c1e19cc07115d1051fe605b0dce69acfec884d9c91a350565b600061152f8c8c8c8c8c8c8c8c8c8c8c61195a565b8051906020012090509b9a5050505050505050505050565b61154f611c3d565b6001600160a01b0381161580159061157157506001600160a01b038116600114155b6115a55760405162461bcd60e51b8152602060048201526005602482015264475331303160d81b60448201526064016106d6565b6001600160a01b038281166000908152600160205260409020548116908216146115f95760405162461bcd60e51b8152602060048201526005602482015264475331303360d81b60448201526064016106d6565b6001600160a01b03818116600081815260016020526040808220805487861684528284208054919096166001600160a01b0319918216179095558383528054909416909355915190917faab4fa2b463f581b2b32cb3b7e3b704b9ce37cc209b5fb4d77e593ace405427691a25050565b611671611c3d565b6001600160a01b03811615611723576040516301ffc9a760e01b815263736bd41d60e11b60048201526001600160a01b038216906301ffc9a790602401602060405180830381865afa1580156116cb573d6000803e3d6000fd5b505050506040513d601f19601f820116820180604052508101906116ef91906130f6565b6117235760405162461bcd60e51b8152602060048201526005602482015264047533330360dc1b60448201526064016106d6565b7f4a204f620c8c5ccdca3fd54d003badd85ba500436a431f0cbda4f558c93c34c88181556040516001600160a01b038316907f1151116914515bc0891ff9047a6cb32cf902546f83066499bcf8ba33d2353fa290600090a25050565b611787611c3d565b6001600160a01b038116158015906117a957506001600160a01b038116600114155b80156117be57506001600160a01b0381163014155b6117da5760405162461bcd60e51b81526004016106d690612e0a565b6001600160a01b0381811660009081526002602052604090205416156118125760405162461bcd60e51b81526004016106d690612e29565b6001600160a01b0382161580159061183457506001600160a01b038216600114155b6118505760405162461bcd60e51b81526004016106d690612e0a565b6001600160a01b038381166000908152600260205260409020548116908316146118a45760405162461bcd60e51b8152602060048201526005602482015264475332303560d81b60448201526064016106d6565b6001600160a01b03828116600081815260026020526040808220805486861680855283852080549288166001600160a01b03199384161790559589168452828420805482169096179095558383528054909416909355915190917ff8d49fc529812e9a7c5c50e69c20f0dccc0db8fa95c98bc58cc9a4f1c1299eaf91a26040516001600160a01b038216907f9465fa0c962cc76958e6373a993326400c1c94f8be2fe3a952adfa7f60b2ea2690600090a2505050565b606060007fbb8310d486368db6bd6f849402fdd73ad53d316b5a4b2644ad6efe0f941286d860001b8d8d8d8d604051611994929190613118565b6040519081900381206119ba949392918e908e908e908e908e908e908e90602001613128565b60408051601f1981840301815291905280516020909101209050601960f81b600160f81b6119e6611a7b565b6040516001600160f81b031993841660208201529290911660218301526022820152604281018290526062016040516020818303038152906040529150509b9a5050505050505050505050565b611a3b611c3d565b611a44816122ce565b6040516001600160a01b038216907f5ac6c46c93c8d0e53714ba3b53db3e7c046da994313d7ed0d192028bc7c228b090600090a250565b60007f47e79534a245952e8b16893a336b85a3d9ea9fa8c573f3d803afb92a794692184660408051602081019390935282015230606082015260800160405160208183030381529060405280519060200120905090565b611ada611c3d565b806001600354611aea91906130e3565b1015611b085760405162461bcd60e51b81526004016106d690612f7a565b6001600160a01b03821615801590611b2a57506001600160a01b038216600114155b611b465760405162461bcd60e51b81526004016106d690612e0a565b6001600160a01b03838116600090815260026020526040902054811690831614611b9a5760405162461bcd60e51b8152602060048201526005602482015264475332303560d81b60448201526064016106d6565b6001600160a01b03828116600081815260026020526040808220805488861684529183208054929095166001600160a01b03199283161790945591815282549091169091556003805491611bed8361319a565b90915550506040516001600160a01b038316907ff8d49fc529812e9a7c5c50e69c20f0dccc0db8fa95c98bc58cc9a4f1c1299eaf90600090a28060045414611c3857611c3881610f25565b505050565b333014611c745760405162461bcd60e51b8152602060048201526005602482015264475330333160d81b60448201526064016106d6565b565b600082600003611c8857506000610ca7565b6000611c948385612f63565b905082611ca185836131b1565b14611cab57600080fd5b9392505050565b600080611cbf83856131d3565b905083811015611cab57600080fd5b600033600114801590611cf85750336000908152600160205260409020546001600160a01b031615155b611d2c5760405162461bcd60e51b815260206004820152600560248201526411d4cc4c0d60da1b60448201526064016106d6565b611d3b8585858560001961256a565b90508015611d735760405133907f6895c13664aa4f67288b25d7a21d7aaa34916e355fb9b6fae0a139a9085becb890600090a2611d9f565b60405133907facd2c8702804128fdb0db2bb49f6d127dd0181c13fd45dbfe16de0930e2bd37590600090a25b949350505050565b6000806000611dc18e8e8e8e8e8e8e8e8e8e60055461195a565b600580549192506000611dd383612e5e565b9091555050805160208201209150611dec82828661106b565b506000611e177f4a204f620c8c5ccdca3fd54d003badd85ba500436a431f0cbda4f558c93c34c85490565b90506001600160a01b03811615611e9d57806001600160a01b03166375f0bb528f8f8f8f8f8f8f8f8f8f8f336040518d63ffffffff1660e01b8152600401611e6a9c9b9a999897969594939291906131e6565b600060405180830381600087803b158015611e8457600080fd5b505af1158015611e98573d6000803e3d6000fd5b505050505b611ec9611eac8a6109c46131d3565b603f611eb98c6040612f63565b611ec391906131b1565b906125af565b611ed5906101f46131d3565b5a1015611f0c5760405162461bcd60e51b8152602060048201526005602482015264047533031360dc1b60448201526064016106d6565b60005a9050611f7d8f8f8f8f8080601f016020809104026020016040519081016040528093929190818152602001838380828437600081840152601f19601f820116905080830192505050505050508e8c600014611f6a578e61256a565b6109c45a611f7891906130e3565b61256a565b9350611f8a5a82906125c6565b90508380611f9757508915155b80611fa157508715155b611fd55760405162461bcd60e51b8152602060048201526005602482015264475330313360d81b60448201526064016106d6565b60008815611fed57611fea828b8b8b8b612464565b90505b841561203257837f442e715f626346e8c54381002da614f62bee8d27386535b2521ec8540898556e8260405161202591815260200190565b60405180910390a261206d565b837f23428b18acfb3ea64b08dc0c1d296ea9c09702c09083ca5272e64d115b687d238260405161206491815260200190565b60405180910390a25b50506001600160a01b038116156120e157604051631264e26d60e31b81526004810183905283151560248201526001600160a01b03821690639327136890604401600060405180830381600087803b1580156120c857600080fd5b505af11580156120dc573d6000803e3d6000fd5b505050505b50509b9a5050505050505050505050565b6004541561212a5760405162461bcd60e51b8152602060048201526005602482015264047533230360dc1b60448201526064016106d6565b815181111561214b5760405162461bcd60e51b81526004016106d690612f7a565b60018110156121845760405162461bcd60e51b815260206004820152600560248201526423a999181960d91b60448201526064016106d6565b600160005b835181101561229b5760008482815181106121a6576121a6613061565b6020026020010151905060006001600160a01b0316816001600160a01b0316141580156121dd57506001600160a01b038116600114155b80156121f257506001600160a01b0381163014155b80156122105750806001600160a01b0316836001600160a01b031614155b61222c5760405162461bcd60e51b81526004016106d690612e0a565b6001600160a01b0381811660009081526002602052604090205416156122645760405162461bcd60e51b81526004016106d690612e29565b6001600160a01b03928316600090815260026020526040902080546001600160a01b03191693821693909317909255600101612189565b506001600160a01b0316600090815260026020526040902080546001600160a01b03191660011790559051600355600455565b306001600160a01b0382160361230e5760405162461bcd60e51b8152602060048201526005602482015264047533430360dc1b60448201526064016106d6565b7f6c9a6c4a39284e37ed1cf53d337577d14212a4870fb976a4366c693b939918d555565b600160008190526020527fcc69885fda6bcc1a4ace058b4a62bf5e179ea78fd58a1ccd71c22cc9b688792f546001600160a01b03161561239c5760405162461bcd60e51b8152602060048201526005602482015264047533130360dc1b60448201526064016106d6565b6001600081905260208190527fcc69885fda6bcc1a4ace058b4a62bf5e179ea78fd58a1ccd71c22cc9b688792f80546001600160a01b03191690911790556001600160a01b038216156107cf57813b61241f5760405162461bcd60e51b815260206004820152600560248201526423a998181960d91b60448201526064016106d6565b61243082600083600160001961256a565b6107cf5760405162461bcd60e51b8152602060048201526005602482015264047533030360dc1b60448201526064016106d6565b6000806001600160a01b0383161561247c578261247e565b325b90506001600160a01b038416612511576124b03a861061249e573a6124a0565b855b6124aa8989611cb2565b90611c76565b6040519092506001600160a01b0382169083156108fc029084906000818181858888f1935050505061250c5760405162461bcd60e51b8152602060048201526005602482015264475330313160d81b60448201526064016106d6565b612560565b61251f856124aa8989611cb2565b915061252c8482846125e1565b6125605760405162461bcd60e51b815260206004820152600560248201526423a998189960d91b60448201526064016106d6565b5095945050505050565b6000600183600181111561258057612580612edf565b03612598576000808551602087018986f49050610d32565b600080855160208701888a87f19695505050505050565b6000818310156125bf5781611cab565b5090919050565b6000828211156125d557600080fd5b6000611d9f83856130e3565b604080516001600160a01b03841660248201526044808201849052825180830390910181526064909101909152602080820180516001600160e01b031663a9059cbb60e01b1781528251600093929184919082896127105a03f13d8015612653576020811461265b5760009350612666565b819350612666565b600051158215171593505b5050509392505050565b6001600160a01b038116811461268557600080fd5b50565b803561269381612670565b919050565b600080604083850312156126ab57600080fd5b82356126b681612670565b946020939093013593505050565b634e487b7160e01b600052604160045260246000fd5b600082601f8301126126eb57600080fd5b81356001600160401b03811115612704576127046126c4565b604051601f8201601f19908116603f011681016001600160401b0381118282101715612732576127326126c4565b60405281815283820160200185101561274a57600080fd5b816020850160208301376000918101602001919091529392505050565b6000806000806080858703121561277d57600080fd5b8435935060208501356001600160401b0381111561279a57600080fd5b6127a6878288016126da565b93505060408501356001600160401b038111156127c257600080fd5b6127ce878288016126da565b949793965093946060013593505050565b6000602082840312156127f157600080fd5b8135611cab81612670565b80356002811061269357600080fd5b6000806000806080858703121561282157600080fd5b843561282c81612670565b93506020850135925060408501356001600160401b0381111561284e57600080fd5b61285a878288016126da565b925050612869606086016127fc565b905092959194509250565b6000815180845260005b8181101561289a5760208185018101518683018201520161287e565b506000602082860101526020601f19601f83011685010191505092915050565b8215158152604060208201526000611d9f6040830184612874565b600080604083850312156128e857600080fd5b50508035926020909101359150565b602081526000611cab6020830184612874565b60006020828403121561291c57600080fd5b5035919050565b60008083601f84011261293557600080fd5b5081356001600160401b0381111561294c57600080fd5b60208301915083602082850101111561296457600080fd5b9250929050565b60008060008060008060008060008060006101408c8e03121561298d57600080fd5b6129968c612688565b9a5060208c0135995060408c01356001600160401b038111156129b857600080fd5b6129c48e828f01612923565b909a5098506129d7905060608d016127fc565b965060808c0135955060a08c0135945060c08c013593506129fa60e08d01612688565b9250612a096101008d01612688565b91506101208c01356001600160401b03811115612a2557600080fd5b612a318e828f016126da565b9150509295989b509295989b9093969950565b600080600060608486031215612a5957600080fd5b8335925060208401356001600160401b03811115612a7657600080fd5b612a82868287016126da565b92505060408401356001600160401b03811115612a9e57600080fd5b612aaa868287016126da565b9150509250925092565b600081518084526020840193506020830160005b82811015612aef5781516001600160a01b0316865260209586019590910190600101612ac8565b5093949350505050565b602081526000611cab6020830184612ab4565b60008060408385031215612b1f57600080fd5b8235612b2a81612670565b915060208301356001600160401b03811115612b4557600080fd5b612b51858286016126da565b9150509250929050565b6000806000806000806000806000806101008b8d031215612b7b57600080fd5b8a356001600160401b03811115612b9157600080fd5b8b01601f81018d13612ba257600080fd5b80356001600160401b03811115612bb857600080fd5b8d60208260051b8401011115612bcd57600080fd5b60209182019b5099508b01359750612be760408c01612688565b965060608b01356001600160401b03811115612c0257600080fd5b612c0e8d828e01612923565b9097509550612c21905060808c01612688565b9350612c2f60a08c01612688565b925060c08b01359150612c4460e08c01612688565b90509295989b9194979a5092959850565b604081526000612c686040830185612ab4565b905060018060a01b03831660208301529392505050565b60008060008060008060008060008060006101408c8e031215612ca157600080fd5b8b35612cac81612670565b9a5060208c0135995060408c01356001600160401b03811115612cce57600080fd5b612cda8e828f01612923565b909a509850612ced905060608d016127fc565b965060808c0135955060a08c0135945060c08c0135935060e08c0135612d1281612670565b92506101008c0135612d2381612670565b8092505060006101208d01359050809150509295989b509295989b9093969950565b60008060408385031215612d5857600080fd5b8235612d6381612670565b91506020830135612d7381612670565b809150509250929050565b600080600060608486031215612d9357600080fd5b8335612d9e81612670565b92506020840135612dae81612670565b91506040840135612dbe81612670565b809150509250925092565b600080600060608486031215612dde57600080fd5b8335612de981612670565b92506020840135612df981612670565b929592945050506040919091013590565b602080825260059082015264475332303360d81b604082015260600190565b60208082526005908201526411d4cc8c0d60da1b604082015260600190565b634e487b7160e01b600052601160045260246000fd5b600060018201612e7057612e70612e48565b5060010190565b604081526000612e8a6040830185612874565b8281036020840152610d328185612874565b600060208284031215612eae57600080fd5b81516001600160e01b031981168114611cab57600080fd5b60ff8281168282160390811115610ca757610ca7612e48565b634e487b7160e01b600052602160045260246000fd5b60028110612f1357634e487b7160e01b600052602160045260246000fd5b9052565b6001600160a01b038681168252851660208201526040810184905260a060608201819052600090612f4a90830185612874565b9050612f596080830184612ef5565b9695505050505050565b8082028115828204841417610ca757610ca7612e48565b602080825260059082015264475332303160d81b604082015260600190565b81835281816020850137506000828201602090810191909152601f909101601f19169091010190565b60018060a01b038d1681528b602082015261016060408201526000612fec61016083018c8e612f99565b612ff9606084018c612ef5565b608083018a905260a0830189905260c083018890526001600160a01b0387811660e085015286166101008401528281036101208401526130398186612874565b905082810361014084015261304e8185612874565b9f9e505050505050505050505050505050565b634e487b7160e01b600052603260045260246000fd5b6080808252810185905260008660a08301825b888110156130ba57823561309d81612670565b6001600160a01b031682526020928301929091019060010161308a565b50602084019690965250506001600160a01b039283166040820152911660609091015292915050565b81810381811115610ca757610ca7612e48565b60006020828403121561310857600080fd5b81518015158114611cab57600080fd5b8183823760009101908152919050565b8b81526001600160a01b038b166020820152604081018a905260608101899052610160810161315a608083018a612ef5565b60a082019790975260c081019590955260e08501939093526001600160a01b03918216610100850152166101208301526101409091015295945050505050565b6000816131a9576131a9612e48565b506000190190565b6000826131ce57634e487b7160e01b600052601260045260246000fd5b500490565b80820180821115610ca757610ca7612e48565b60018060a01b038d1681528b60208201526101606040820152600061321061016083018c8e612f99565b61321d606084018c612ef5565b608083018a905260a0830189905260c083018890526001600160a01b0387811660e0850152861661010084015282810361012084015261325d8186612874565b91505060018060a01b0383166101408301529d9c5050505050505050505050505056fea264697066735822122063d0113d6a4e74d620a4a0f7757ecbd1abd1a5aee2401f587e9306f2eb32e6ea64736f6c634300081a0033","linkReferences":{}},"methodIdentifiers":{"VERSION()":"ffa1ad74","addOwnerWithThreshold(address,uint256)":"0d582f13","approveHash(bytes32)":"d4d9bdcd","approvedHashes(address,bytes32)":"7d832974","changeThreshold(uint256)":"694e80c3","checkNSignatures(bytes32,bytes,bytes,uint256)":"12fb68e0","checkSignatures(bytes32,bytes,bytes)":"934f3a11","disableModule(address,address)":"e009cfde","domainSeparator()":"f698da25","enableModule(address)":"610b5925","encodeTransactionData(address,uint256,bytes,uint8,uint256,uint256,uint256,address,address,uint256)":"e86637db","execTransaction(address,uint256,bytes,uint8,uint256,uint256,uint256,address,address,bytes)":"6a761202","execTransactionFromModule(address,uint256,bytes,uint8)":"468721a7","execTransactionFromModuleReturnData(address,uint256,bytes,uint8)":"5229073f","getChainId()":"3408e470","getModulesPaginated(address,uint256)":"cc2f8452","getOwners()":"a0e67e2b","getStorageAt(uint256,uint256)":"5624b25b","getThreshold()":"e75235b8","getTransactionHash(address,uint256,bytes,uint8,uint256,uint256,uint256,address,address,uint256)":"d8d11f78","isModuleEnabled(address)":"2d9ad53d","isOwner(address)":"2f54bf6e","nonce()":"affed0e0","removeOwner(address,address,uint256)":"f8dc5dd9","setFallbackHandler(address)":"f08a0323","setGuard(address)":"e19a9dd9","setup(address[],uint256,address,bytes,address,address,uint256,address)":"b63e800d","signedMessages(bytes32)":"5ae6bd37","simulateAndRevert(address,bytes)":"b4faba09","swapOwner(address,address,address)":"e318b52b"},"id":21}