{"abi":[{"type":"fallback","stateMutability":"nonpayable"},{"type":"receive","stateMutability":"payable"},{"type":"function","name":"VERSION","inputs":[],"outputs":[{"name":"","type":"string","internalType":"string"}],"stateMutability":"view"},{"type":"function","name":"addOwnerWithThreshold","inputs":[{"name":"owner","type":"address","internalType":"address"},{"name":"_threshold","type":"uint256","internalType":"uint256"}],"outputs":[],"stateMutability":"nonpayable"},{"type":"function","name":"approveHash","inputs":[{"name":"hashToApprove","type":"bytes32","internalType":"bytes32"}],"outputs":[],"stateMutability":"nonpayable"},{"type":"function","name":"approvedHashes","inputs":[{"name":"","type":"address","internalType":"address"},{"name":"","type":"bytes32","internalType":"bytes32"}],"outputs":[{"name":"","type":"uint256","internalType":"uint256"}],"stateMutability":"view"},{"type":"function","name":"changeThreshold","inputs":[{"name":"_threshold","type":"uint256","internalType":"uint256"}],"outputs":[],"stateMutability":"nonpayable"},{"type":"function","name":"checkNSignatures","inputs":[{"name":"dataHash","type":"bytes32","internalType":"bytes32"},{"name":"data","type":"bytes","internalType":"bytes"},{"name":"signatures","type":"bytes","internalType":"bytes"},{"name":"requiredSignatures","type":"uint256","internalType":"uint256"}],"outputs":[],"stateMutability":"view"},{"type":"function","name":"checkNSignatures","inputs":[{"name":"executor","type":"address","internalType":"address"},{"name":"dataHash","type":"bytes32","internalType":"bytes32"},{"name":"signatures","type":"bytes","internalType":"bytes"},{"name":"requiredSignatures","type":"uint256","internalType":"uint256"}],"outputs":[],"stateMutability":"view"},{"type":"function","name":"checkSignatures","inputs":[{"name":"dataHash","type":"bytes32","internalType":"bytes32"},{"name":"data","type":"bytes","internalType":"bytes"},{"name":"signatures","type":"bytes","internalType":"bytes"}],"outputs":[],"stateMutability":"view"},{"type":"function","name":"checkSignatures","inputs":[{"name":"executor","type":"address","internalType":"address"},{"name":"dataHash","type":"bytes32","internalType":"bytes32"},{"name":"signatures","type":"bytes","internalType":"bytes"}],"outputs":[],"stateMutability":"view"},{"type":"function","name":"disableModule","inputs":[{"name":"prevModule","type":"address","internalType":"address"},{"name":"module","type":"address","internalType":"address"}],"outputs":[],"stateMutability":"nonpayable"},{"type":"function","name":"domainSeparator","inputs":[],"outputs":[{"name":"","type":"bytes32","internalType":"bytes32"}],"stateMutability":"view"},{"type":"function","name":"enableModule","inputs":[{"name":"module","type":"address","internalType":"address"}],"outputs":[],"stateMutability":"nonpayable"},{"type":"function","name":"execTransaction","inputs":[{"name":"to","type":"address","internalType":"address"},{"name":"value","type":"uint256","internalType":"uint256"},{"name":"data","type":"bytes","internalType":"bytes"},{"name":"operation","type":"uint8","internalType":"enum Enum.Operation"},{"name":"safeTxGas","type":"uint256","internalType":"uint256"},{"name":"baseGas","type":"uint256","internalType":"uint256"},{"name":"gasPrice","type":"uint256","internalType":"uint256"},{"name":"gasToken","type":"address","internalType":"address"},{"name":"refundReceiver","type":"address","internalType":"address payable"},{"name":"signatures","type":"bytes","internalType":"bytes"}],"outputs":[{"name":"success","type":"bool","internalType":"bool"}],"stateMutability":"payable"},{"type":"function","name":"execTransactionFromModule","inputs":[{"name":"to","type":"address","internalType":"address"},{"name":"value","type":"uint256","internalType":"uint256"},{"name":"data","type":"bytes","internalType":"bytes"},{"name":"operation","type":"uint8","internalType":"enum Enum.Operation"}],"outputs":[{"name":"success","type":"bool","internalType":"bool"}],"stateMutability":"nonpayable"},{"type":"function","name":"execTransactionFromModuleReturnData","inputs":[{"name":"to","type":"address","internalType":"address"},{"name":"value","type":"uint256","internalType":"uint256"},{"name":"data","type":"bytes","internalType":"bytes"},{"name":"operation","type":"uint8","internalType":"enum Enum.Operation"}],"outputs":[{"name":"success","type":"bool","internalType":"bool"},{"name":"returnData","type":"bytes","internalType":"bytes"}],"stateMutability":"nonpayable"},{"type":"function","name":"getModulesPaginated","inputs":[{"name":"start","type":"address","internalType":"address"},{"name":"pageSize","type":"uint256","internalType":"uint256"}],"outputs":[{"name":"array","type":"address[]","internalType":"address[]"},{"name":"next","type":"address","internalType":"address"}],"stateMutability":"view"},{"type":"function","name":"getOwners","inputs":[],"outputs":[{"name":"","type":"address[]","internalType":"address[]"}],"stateMutability":"view"},{"type":"function","name":"getStorageAt","inputs":[{"name":"offset","type":"uint256","internalType":"uint256"},{"name":"length","type":"uint256","internalType":"uint256"}],"outputs":[{"name":"","type":"bytes","internalType":"bytes"}],"stateMutability":"view"},{"type":"function","name":"getThreshold","inputs":[],"outputs":[{"name":"","type":"uint256","internalType":"uint256"}],"stateMutability":"view"},{"type":"function","name":"getTransactionHash","inputs":[{"name":"to","type":"address","internalType":"address"},{"name":"value","type":"uint256","internalType":"uint256"},{"name":"data","type":"bytes","internalType":"bytes"},{"name":"operation","type":"uint8","internalType":"enum Enum.Operation"},{"name":"safeTxGas","type":"uint256","internalType":"uint256"},{"name":"baseGas","type":"uint256","internalType":"uint256"},{"name":"gasPrice","type":"uint256","internalType":"uint256"},{"name":"gasToken","type":"address","internalType":"address"},{"name":"refundReceiver","type":"address","internalType":"address"},{"name":"_nonce","type":"uint256","internalType":"uint256"}],"outputs":[{"name":"txHash","type":"bytes32","internalType":"bytes32"}],"stateMutability":"view"},{"type":"function","name":"isModuleEnabled","inputs":[{"name":"module","type":"address","internalType":"address"}],"outputs":[{"name":"","type":"bool","internalType":"bool"}],"stateMutability":"view"},{"type":"function","name":"isOwner","inputs":[{"name":"owner","type":"address","internalType":"address"}],"outputs":[{"name":"","type":"bool","internalType":"bool"}],"stateMutability":"view"},{"type":"function","name":"nonce","inputs":[],"outputs":[{"name":"","type":"uint256","internalType":"uint256"}],"stateMutability":"view"},{"type":"function","name":"removeOwner","inputs":[{"name":"prevOwner","type":"address","internalType":"address"},{"name":"owner","type":"address","internalType":"address"},{"name":"_threshold","type":"uint256","internalType":"uint256"}],"outputs":[],"stateMutability":"nonpayable"},{"type":"function","name":"setFallbackHandler","inputs":[{"name":"handler","type":"address","internalType":"address"}],"outputs":[],"stateMutability":"nonpayable"},{"type":"function","name":"setGuard","inputs":[{"name":"guard","type":"address","internalType":"address"}],"outputs":[],"stateMutability":"nonpayable"},{"type":"function","name":"setModuleGuard","inputs":[{"name":"moduleGuard","type":"address","internalType":"address"}],"outputs":[],"stateMutability":"nonpayable"},{"type":"function","name":"setup","inputs":[{"name":"_owners","type":"address[]","internalType":"address[]"},{"name":"_threshold","type":"uint256","internalType":"uint256"},{"name":"to","type":"address","internalType":"address"},{"name":"data","type":"bytes","internalType":"bytes"},{"name":"fallbackHandler","type":"address","internalType":"address"},{"name":"paymentToken","type":"address","internalType":"address"},{"name":"payment","type":"uint256","internalType":"uint256"},{"name":"paymentReceiver","type":"address","internalType":"address payable"}],"outputs":[],"stateMutability":"nonpayable"},{"type":"function","name":"signedMessages","inputs":[{"name":"","type":"bytes32","internalType":"bytes32"}],"outputs":[{"name":"","type":"uint256","internalType":"uint256"}],"stateMutability":"view"},{"type":"function","name":"simulateAndRevert","inputs":[{"name":"targetContract","type":"address","internalType":"address"},{"name":"calldataPayload","type":"bytes","internalType":"bytes"}],"outputs":[],"stateMutability":"nonpayable"},{"type":"function","name":"swapOwner","inputs":[{"name":"prevOwner","type":"address","internalType":"address"},{"name":"oldOwner","type":"address","internalType":"address"},{"name":"newOwner","type":"address","internalType":"address"}],"outputs":[],"stateMutability":"nonpayable"},{"type":"event","name":"AddedOwner","inputs":[{"name":"owner","type":"address","indexed":true,"internalType":"address"}],"anonymous":false},{"type":"event","name":"ApproveHash","inputs":[{"name":"approvedHash","type":"bytes32","indexed":true,"internalType":"bytes32"},{"name":"owner","type":"address","indexed":true,"internalType":"address"}],"anonymous":false},{"type":"event","name":"ChangedFallbackHandler","inputs":[{"name":"handler","type":"address","indexed":true,"internalType":"address"}],"anonymous":false},{"type":"event","name":"ChangedGuard","inputs":[{"name":"guard","type":"address","indexed":true,"internalType":"address"}],"anonymous":false},{"type":"event","name":"ChangedModuleGuard","inputs":[{"name":"moduleGuard","type":"address","indexed":true,"internalType":"address"}],"anonymous":false},{"type":"event","name":"ChangedThreshold","inputs":[{"name":"threshold","type":"uint256","indexed":false,"internalType":"uint256"}],"anonymous":false},{"type":"event","name":"DisabledModule","inputs":[{"name":"module","type":"address","indexed":true,"internalType":"address"}],"anonymous":false},{"type":"event","name":"EnabledModule","inputs":[{"name":"module","type":"address","indexed":true,"internalType":"address"}],"anonymous":false},{"type":"event","name":"ExecutionFailure","inputs":[{"name":"txHash","type":"bytes32","indexed":true,"internalType":"bytes32"},{"name":"payment","type":"uint256","indexed":false,"internalType":"uint256"}],"anonymous":false},{"type":"event","name":"ExecutionFromModuleFailure","inputs":[{"name":"module","type":"address","indexed":true,"internalType":"address"}],"anonymous":false},{"type":"event","name":"ExecutionFromModuleSuccess","inputs":[{"name":"module","type":"address","indexed":true,"internalType":"address"}],"anonymous":false},{"type":"event","name":"ExecutionSuccess","inputs":[{"name":"txHash","type":"bytes32","indexed":true,"internalType":"bytes32"},{"name":"payment","type":"uint256","indexed":false,"internalType":"uint256"}],"anonymous":false},{"type":"event","name":"RemovedOwner","inputs":[{"name":"owner","type":"address","indexed":true,"internalType":"address"}],"anonymous":false},{"type":"event","name":"SafeModuleTransaction","inputs":[{"name":"module","type":"address","indexed":false,"internalType":"address"},{"name":"to","type":"address","indexed":false,"internalType":"address"},{"name":"value","type":"uint256","indexed":false,"internalType":"uint256"},{"name":"data","type":"bytes","indexed":false,"internalType":"bytes"},{"name":"operation","type":"uint8","indexed":false,"internalType":"enum Enum.Operation"}],"anonymous":false},{"type":"event","name":"SafeMultiSigTransaction","inputs":[{"name":"to","type":"address","indexed":false,"internalType":"address"},{"name":"value","type":"uint256","indexed":false,"internalType":"uint256"},{"name":"data","type":"bytes","indexed":false,"internalType":"bytes"},{"name":"operation","type":"uint8","indexed":false,"internalType":"enum Enum.Operation"},{"name":"safeTxGas","type":"uint256","indexed":false,"internalType":"uint256"},{"name":"baseGas","type":"uint256","indexed":false,"internalType":"uint256"},{"name":"gasPrice","type":"uint256","indexed":false,"internalType":"uint256"},{"name":"gasToken","type":"address","indexed":false,"internalType":"address"},{"name":"refundReceiver","type":"address","indexed":false,"internalType":"address payable"},{"name":"signatures","type":"bytes","indexed":false,"internalType":"bytes"},{"name":"additionalInfo","type":"bytes","indexed":false,"internalType":"bytes"}],"anonymous":false},{"type":"event","name":"SafeReceived","inputs":[{"name":"sender","type":"address","indexed":true,"internalType":"address"},{"name":"value","type":"uint256","indexed":false,"internalType":"uint256"}],"anonymous":false},{"type":"event","name":"SafeSetup","inputs":[{"name":"initiator","type":"address","indexed":true,"internalType":"address"},{"name":"owners","type":"address[]","indexed":false,"internalType":"address[]"},{"name":"threshold","type":"uint256","indexed":false,"internalType":"uint256"},{"name":"initializer","type":"address","indexed":false,"internalType":"address"},{"name":"fallbackHandler","type":"address","indexed":false,"internalType":"address"}],"anonymous":false},{"type":"event","name":"SignMsg","inputs":[{"name":"msgHash","type":"bytes32","indexed":true,"internalType":"bytes32"}],"anonymous":false}],"bytecode":{"object":"0x60808060405234601a576001600455612bd490816100208239f35b600080fdfe608060405260043610156100a4575b36156100765734610071577f6c9a6c4a39284e37ed1cf53d337577d14212a4870fb976a4366c693b939918d554801561006f5760008060405192368285373360601b36850152838260143601925af13d6000833e1561006b573d90f35b3d90fd5b005b600080fd5b6040513481527f3d0ce9bfc3ed7d6862dbb28b2dea94561fe714a1b4d019aa8af39730d1ad7c3d60203392a2005b6000803560e01c80630d582f1314611b8557806312fb68e014611b235780631fcac7f314611ad95780632d9ad53d14611ab55780632f54bf6e14611a59578063468721a714611a305780635229073f146119c65780635624b25b146119465780635ae6bd371461191c578063610b592514611825578063694e80c3146118085780636a761202146111cb5780637d83297414611188578063934f3a111461112a578063a0e67e2b14611099578063affed0e01461107b578063b4faba0914611016578063b63e800d14610c22578063cc2f845214610a65578063d4d9bdcd146109c5578063d8d11f7814610949578063e009cfde1461083f578063e068df3714610737578063e19a9dd914610614578063e318b52b146104ae578063e75235b814610490578063f08a032314610435578063f698da2514610412578063f855438b146103c4578063f8dc5dd9146102545763ffa1ad7414610205575061000e565b346102515780600319360112610251575061024d604051610227604082611d78565b60058152640312e352e360dc1b6020820152604051918291602083526020830190611e71565b0390f35b80fd5b50346102515760603660031901126102515761026e611cc8565b610276611d21565b9060443591610283612581565b60035480156103b0578390600019018060035510610397576001600160a01b031690811580156103a6575b6103a1576001600160a01b039081168085526002602052604085205490911682900361039c578184526002602081815260408087205493875282825280872080546001600160a01b039095166001600160a01b03199586161790558487529190528420805490911690557ff8d49fc529812e9a7c5c50e69c20f0dccc0db8fa95c98bc58cc9a4f1c1299eaf8380a28060045403610349575080f35b610351612581565b6003548111610397578015610392576020817f610f7ff2b304ae8903c3de74c60c6ab1f7d6226b3f52c5161905bb5ad4039c9392600455604051908152a180f35b61263e565b612611565b612698565b6125b7565b50600182146102ae565b634e487b7160e01b85526011600452602485fd5b5034610251576060366003190112610251576103de611cc8565b604435906001600160401b03821161040e5761040161040b923690600401611e01565b906024359061253e565b80f35b8280fd5b5034610251578060031936011261025157602061042d6124f2565b604051908152f35b50346102515760203660031901126102515761044f611cc8565b610457612581565b61046081612b3d565b6001600160a01b03167f5ac6c46c93c8d0e53714ba3b53db3e7c046da994313d7ed0d192028bc7c228b08280a280f35b50346102515780600319360112610251576020600454604051908152f35b5034610251576060366003190112610251576104c8611cc8565b6104d0611d21565b906104d9611cf4565b6104e1612581565b6001600160a01b0316918215801561060a575b8015610601575b6103a157828452600260205260408420546001600160a01b03166105fc576001600160a01b031690811580156105f2575b6103a1576001600160a01b039081168085526002602052604085205490911682900361039c578184526002602081815260408087205486885283835281882080546001600160a01b039092166001600160a01b031992831617905593875282825280872080548516871790558487529190528420805490911690557ff8d49fc529812e9a7c5c50e69c20f0dccc0db8fa95c98bc58cc9a4f1c1299eaf8380a27f9465fa0c962cc76958e6373a993326400c1c94f8be2fe3a952adfa7f60b2ea268280a280f35b506001821461052c565b6125e4565b503083146104fb565b50600183146104f4565b50346102515760203660031901126102515761062e611cc8565b610636612581565b6001600160a01b03811690811515806106c4575b610697577f4a204f620c8c5ccdca3fd54d003badd85ba500436a431f0cbda4f558c93c34c8557f1151116914515bc0891ff9047a6cb32cf902546f83066499bcf8ba33d2353fa28280a280f35b60405162461bcd60e51b8152602060048201526005602482015264047533330360dc1b6044820152606490fd5b506040516301ffc9a760e01b815263736bd41d60e11b6004820152602081602481865afa90811561072c5784916106fd575b501561064a565b61071f915060203d602011610725575b6107178183611d78565b8101906124da565b386106f6565b503d61070d565b6040513d86823e3d90fd5b503461025157602036600319011261025157610751611cc8565b610759612581565b6001600160a01b03811690811515806107e7575b6107ba577fb104e0b93118902c651344349b610029d694cfdec91c589c91ebafbcd0289947557fcd1966d6be16bc0c030cc741a06c6e0efaf8d00de2c8b6a9e11827e125de8bb88280a280f35b60405162461bcd60e51b8152602060048201526005602482015264475333303160d81b6044820152606490fd5b506040516301ffc9a760e01b8152630b0803db60e31b6004820152602081602481865afa90811561072c578491610820575b501561076d565b610839915060203d602011610725576107178183611d78565b38610819565b503461025157604036600319011261025157610859611cc8565b610861611d21565b610869612581565b6001600160a01b0316908115801561093f575b61093a576001600160a01b039081168084526001602052604084205490911682900361090d578183526001602081815260408086205493865282825280862080546001600160a01b039095166001600160a01b03199586161790558486529190528320805490911690557faab4fa2b463f581b2b32cb3b7e3b704b9ce37cc209b5fb4d77e593ace40542768280a280f35b60405162461bcd60e51b8152602060048201526005602482015264475331303360d81b6044820152606490fd5b61266b565b506001821461087c565b50346102515761014036600319011261025157610964611cc8565b6044356001600160401b03811161040e57610983903690600401611d4b565b60643593600285101561025157602061042d868686866109a1611cde565b916109aa611d0a565b93610124359560c4359360a43593608435936024359061244b565b50346102515760203660031901126102515733815260026020526040812054600435906001600160a01b031615610a38573382526008602052604082208183526020526001604083205533907ff2a0eb156472d1440255b0d7c1e19cc07115d1051fe605b0dce69acfec884d9c8380a380f35b60405162461bcd60e51b8152602060048201526005602482015264047533033360dc1b6044820152606490fd5b503461025157604036600319011261025157610a7f611cc8565b6001600160a01b038116906024359060018314159081610c11575b50610be4578015610bb757610aae816123ef565b918352600160205260408320548392906001600160a01b03165b6001600160a01b0381169081151580610bac575b80610ba3575b15610b19575080610af38584612421565b528452600160205260408420546001600160a01b031692610b1390611eef565b92610ac8565b9193919250506000196001600160a01b03831601610b61575b610b4d93508252604051928392604084526040840190611eb2565b6001600160a01b0390911660208301520390f35b90506000198101818111610b8f57610b4d93506001600160a01b0390610b879084612421565b511690610b32565b634e487b7160e01b84526011600452602484fd5b50838510610ae2565b506001821415610adc565b60405162461bcd60e51b815260206004820152600560248201526423a998981b60d91b6044820152606490fd5b60405162461bcd60e51b8152602060048201526005602482015264475331303560d81b6044820152606490fd5b610c1b9150612322565b1538610a9a565b503461025157610100366003190112610251576004356001600160401b0381116110125736602382011215611012578060040135906001600160401b03821161040e576024808201918360051b010136811161100e5760243591610c84611cf4565b906064356001600160401b03811161100a57610ca4903690600401611d4b565b6084356001600160a01b038116949291908581036110065760a435956001600160a01b0387168703611002578a95979860c43599610ce0611cde565b998c604051998160808c0160808d525260a08b019183915b818110610fdc575050508360208b01527f141df868a6331af528e38c83b7aa03edc19be66e37ae67f9285bf4f8e3c6a1a860018060a01b038a169a8b60408201528660608201528033930390a2610d4e8d6123d8565b9c610d5c6040519e8f611d78565b8d5260208d015b828210610fc457505050600454610f97578a5181116103975780156103925760018b519b8d905b8d8210610eec5750509a610dd6969798999a9b60018060a01b03168d52600260205260408d2060016001600160601b0360a01b825416179055600355600455610edd575b503691611dca565b600180885260205260408720549092906001600160a01b0316610eb0576001875260016020526040872060016001600160601b0360a01b825416179055610e34575b505082610e23578380f35b610e2c92612a14565b503880808380f35b803b15610e83578591829160208251920190600019f415610e56573880610e18565b60405162461bcd60e51b8152602060048201526005602482015264047533030360dc1b6044820152606490fd5b60405162461bcd60e51b815260206004820152600560248201526423a998181960d91b6044820152606490fd5b60405162461bcd60e51b8152602060048201526005602482015264047533130360dc1b6044820152606490fd5b610ee690612b3d565b38610dce565b6001600160a01b03610efe8383612421565b51169283158015610f8d575b8015610f84575b8015610f72575b6103a1578f8481526002602052604060018060a01b03912054166105fc578f938f94604090600193848060a01b03168152600260205220828060a01b0382166001600160601b0360a01b8254161790559201919250610d8a565b506001600160a01b0381168414610f18565b50308414610f11565b5060018414610f0a565b60405162461bcd60e51b8152602060048201526005602482015264047533230360dc1b6044820152606490fd5b60208091610fd184611d37565b815201910190610d63565b909192602080600192838060a01b03610ff488611d37565b168152019401929101610cf8565b8a80fd5b8980fd5b8680fd5b8380fd5b5080fd5b50346102515760403660031901126102515780611031611cc8565b602435906001600160401b0382116110775761105283923690600401611e01565b90602082519201905af4906040519182523d60208301523d90604083013e60403d0190fd5b5050fd5b50346102515780600319360112610251576020600554604051908152f35b50346102515780600319360112610251576110b56003546123ef565b600182526002602052604082205490919081906001600160a01b03165b6001600160a01b03166001811461111457806110ee8486612421565b528152600260205260408120546001600160a01b03169161110e90611eef565b916110d2565b6040516020808252819061024d90820187611eb2565b5034610251576060366003190112610251576024356001600160401b0381116110125761115b903690600401611d4b565b50506044356001600160401b0381116110125761117f61040b913690600401611e01565b6004353361253e565b5034610251576040366003190112610251576020906040906001600160a01b036111b0611cc8565b16815260088352818120602435825283522054604051908152f35b50610140366003190112610251576111e1611cc8565b6044356001600160401b03811161040e57611200903690600401611d4b565b906002606435101561100e57611214611cde565b9261121d611d0a565b91610124356001600160401b03811161100a5761123e903690600401611e01565b916113546005547f66753cd2356569ee081232e3be8909b950e0a76c1f8460c3a5e3c2be32b11bed6112c58861132360045460405190866020830152336040830152606082015260608152611294608082611d78565b6113148d60405195869560018060a01b038c168752602435602088015261016060408801526101608701908d612359565b906112d56060870160643561237a565b608435608087015260a43560a087015260c43560c08701526001600160a01b0390811660e08701528d166101008601528481036101208601528b611e71565b90838203610140850152611e71565b0390a161132f81611eef565b6005556001600160a01b0386168860c43560a4356084356064358c8a6024358b61244b565b9461136084873361253e565b7f4a204f620c8c5ccdca3fd54d003badd85ba500436a431f0cbda4f558c93c34c8546001600160a01b03169384611733575b505a6109c4608435016084351161171f576109c460843501603f60843560061b04101560001461171257603f60843560061b04905b6101f482018092116116c057106116e5575a928860c4356116d457505a806109c3198101116116c057916114078a949285946109c31901925b3691611dca565b916064356001036116ad5760208351930191f4925b5a8281116116a957820391821161169557831595868061168b575b80611681575b61167657859288809360c43561152c575b50505050836000146114fc5760207f442e715f626346e8c54381002da614f62bee8d27386535b2521ec8540898556e91604051908152a25b80611498575b60208460405190158152f35b908185923b1561040e57604051631264e26d60e31b8152600481019490945290151560248401528290604490829084905af180156114f1576114dc575b808061148c565b6114e7838092611d78565b61101257816114d5565b6040513d85823e3d90fd5b60207f23428b18acfb3ea64b08dc0c1d296ea9c09702c09083ca5272e64d115b687d2391604051908152a2611486565b929450909250906001600160a01b038116611670575032925b6001600160a01b0381166115dc57509061156160a435826123cb565b90811061101257818061158481933a60c435106000146115d55760c4359061274e565b9485906001600160a01b03165af13d156115d0573d6115a281611daf565b906115b06040519283611d78565b81528760203d92013e5b156115cb5783905b3880888161144e565b6126f2565b6115ba565b3a9061274e565b6115e860a435846123cb565b928310611012576115fe60209360c4359061274e565b93826040518581019263a9059cbb60e01b845260018060a01b0316602482015286604482015260448152611633606482611d78565b519261270f195a01f13d801561166a5760201461165e5750855b156116595783906115c2565b6126c5565b8651159015171561164d565b5061164d565b92611545565b6040513d89823e3d90fd5b5060c4351561143d565b5060843515611437565b634e487b7160e01b87526011600452602487fd5b8780fd5b906020835193019160243591f19261141c565b634e487b7160e01b8a52601160045260248afd5b929091611407849360843592611400565b60405162461bcd60e51b8152602060048201526005602482015264047533031360dc1b6044820152606490fd5b6109c460843501906113c7565b634e487b7160e01b89526011600452602489fd5b88853b1561025157604051633af85da960e11b81526001600160a01b03851660048201526024803590820152610160604482015291829081906117d19061177f6101648401888b612359565b9061178f6064850160643561237a565b608480359085015260a480359085015260c48035908501526001600160a01b03808f1660e48601528c1661010485015283820360031901610124850152611e71565b33610144830152038183895af180156117fd571561139257886117f691999299611d78565b9638611392565b6040513d8b823e3d90fd5b503461025157602036600319011261025157600435610351612581565b50346102515760203660031901126102515761183f611cc8565b611847612581565b6001600160a01b031680158015611912575b61093a57808252600160205260408220546001600160a01b03166118e5576001808352602081815260408085205484865283835281862080546001600160a01b039092166001600160a01b03199283161790558386529290915283208054909116821790557fecdf3a3effea5783a3c4c2140e677577666428d44ed9d474a0b3a4c9943f84408280a280f35b60405162461bcd60e51b815260206004820152600560248201526423a998981960d91b6044820152606490fd5b5060018114611859565b50346102515760203660031901126102515760406020916004358152600783522054604051908152f35b503461025157604036600319011261025157600435602435908160051b9261196d84611daf565b9361197b6040519586611d78565b80855261198a601f1991611daf565b013660208601375b8281106119af576040516020808252819061024d90820187611e71565b8060019183015460208260051b8701015201611992565b5034610251576119f3611a126119db36611e1f565b906119eb82828587999699612773565b969094612915565b9283916040519560203d8801016040523d87523d90602088013e612949565b61024d60405192839215158352604060208401526040830190611e71565b5034610251576020611a47611a4f6119db36611e1f565b928391612949565b6040519015158152f35b5034610251576020366003190112610251576020906001600160a01b03611a7e611cc8565b169060018214918215611a97575b505060405190158152f35b81526002835260409020546001600160a01b03161590503880611a8c565b5034610251576020366003190112610251576020611a4f611ad4611cc8565b612322565b503461025157608036600319011261025157611af3611cc8565b604435906001600160401b03821161040e57611b1661040b923690600401611e01565b6064359160243590611f14565b5034610251576080366003190112610251576024356001600160401b03811161101257611b54903690600401611d4b565b50506044356001600160401b03811161101257611b7861040b913690600401611e01565b6064359060043533611f14565b503461025157604036600319011261025157611b9f611cc8565b60243590611bab612581565b6001600160a01b031680158015611cbe575b8015611cb5575b6103a157808352600260205260408320546001600160a01b03166105fc5760018084526002602081815260408087205485885283835281882080546001600160a01b039092166001600160a01b03199283161790559387529190528420805490911682179055600354611c3690611eef565b90816003557f9465fa0c962cc76958e6373a993326400c1c94f8be2fe3a952adfa7f60b2ea268480a28160045403611c6c578280f35b611c74612581565b8111610397578015610392576020817f610f7ff2b304ae8903c3de74c60c6ab1f7d6226b3f52c5161905bb5ad4039c9392600455604051908152a138808280f35b50308114611bc4565b5060018114611bbd565b600435906001600160a01b038216820361007157565b60e435906001600160a01b038216820361007157565b604435906001600160a01b038216820361007157565b61010435906001600160a01b038216820361007157565b602435906001600160a01b038216820361007157565b35906001600160a01b038216820361007157565b9181601f84011215610071578235916001600160401b038311610071576020838186019501011161007157565b90601f801991011681019081106001600160401b03821117611d9957604052565b634e487b7160e01b600052604160045260246000fd5b6001600160401b038111611d9957601f01601f191660200190565b929192611dd682611daf565b91611de46040519384611d78565b829481845281830111610071578281602093846000960137010152565b9080601f8301121561007157816020611e1c93359101611dca565b90565b6080600319820112610071576004356001600160a01b0381168103610071579160243591604435906001600160401b03821161007157611e6191600401611e01565b9060643560028110156100715790565b919082519283825260005b848110611e9d575050826000602080949584010152601f8019910116010190565b80602080928401015182828601015201611e7c565b906020808351928381520192019060005b818110611ed05750505090565b82516001600160a01b0316845260209384019390920191600101611ec3565b6000198114611efe5760010190565b634e487b7160e01b600052601160045260246000fd5b918051611f208561271f565b116122f557600091825b858410611f3957505050505050565b8360410283019060208201516060604084015193015160001a80156000146121a357506001600160a01b031691611f6f8861271f565b811061217657611f7e816123bd565b8181106100715785511061214957602081860101908151611f9e826123bd565b91821061007157611faf90826123cb565b9081106100715785511061211c576020611feb9160405180938192630b135d3f60e11b8352886004840152604060248401526044830190611e71565b0381865afa908115612110576000916120ce575b506001600160e01b0319166374eca2c160e11b016120a1575b6001600160a01b0390811690821690811180159190612081575b8115612076575b5061204957600190930192611f2a565b60405162461bcd60e51b815260206004820152600560248201526423a998191b60d91b6044820152606490fd5b600191501438612039565b6000818152600260205260409020546001600160a01b0316159150612032565b60405162461bcd60e51b815260206004820152600560248201526411d4cc0c8d60da1b6044820152606490fd5b6020813d8211612108575b816120e660209383611d78565b810103126110125751906001600160e01b031982168203610251575038611fff565b3d91506120d9565b6040513d6000823e3d90fd5b60405162461bcd60e51b8152602060048201526005602482015264475330323360d81b6044820152606490fd5b60405162461bcd60e51b815260206004820152600560248201526423a998191960d91b6044820152606490fd5b60405162461bcd60e51b8152602060048201526005602482015264475330323160d81b6044820152606490fd5b9091926001821460001461221f5750506001600160a01b0390811691908616821415806121fd575b156120185760405162461bcd60e51b8152602060048201526005602482015264475330323560d81b6044820152606490fd5b50816000526008602052604060002083600052602052604060002054156121cb565b9091601e8311156122c55760405160208101907f19457468657265756d205369676e6564204d6573736167653a0a333200000000825286603c820152603c815261226a605c82611d78565b519020926003198101908111611efe576122ae60009360ff936020966040519586951690859094939260ff6060936080840197845216602083015260408201520152565b838052039060015afa156121105760005190612018565b6020926122ae60009360405193849389859094939260ff6060936080840197845216602083015260408201520152565b60405162461bcd60e51b8152602060048201526005602482015264047533032360dc1b6044820152606490fd5b6001600160a01b03166001811415908161233a575090565b6000908152600160205260409020546001600160a01b03161515919050565b908060209392818452848401376000828201840152601f01601f1916010190565b9060028210156123875752565b634e487b7160e01b600052602160045260246000fd5b81156123a7570490565b634e487b7160e01b600052601260045260246000fd5b9060208201809211611efe57565b91908201809211611efe57565b6001600160401b038111611d995760051b60200190565b906123f9826123d8565b6124066040519182611d78565b8281528092612417601f19916123d8565b0190602036910137565b80518210156124355760209160051b010190565b634e487b7160e01b600052603260045260246000fd5b95601e999397919560429b959993996124626124f2565b99806040519c8d378b207fbb8310d486368db6bd6f849402fdd73ad53d316b5a4b2644ad6efe0f941286d88c5260208c01998a5260408c0198895260608c015260808b015260a08a015260c089015260e088015261010087015261012086015261014085015261016084209052611901835252012090565b90816020910312610071575180151581036100715790565b60405160208101907f47e79534a245952e8b16893a336b85a3d9ea9fa8c573f3d803afb92a79469218825246604082015230606082015260608152612538608082611d78565b51902090565b916004549182156125545761255293611f14565b565b60405162461bcd60e51b8152602060048201526005602482015264475330303160d81b6044820152606490fd5b30330361258a57565b60405162461bcd60e51b8152602060048201526005602482015264475330333160d81b6044820152606490fd5b60405162461bcd60e51b8152602060048201526005602482015264475332303360d81b6044820152606490fd5b60405162461bcd60e51b815260206004820152600560248201526411d4cc8c0d60da1b6044820152606490fd5b60405162461bcd60e51b8152602060048201526005602482015264475332303160d81b6044820152606490fd5b60405162461bcd60e51b815260206004820152600560248201526423a999181960d91b6044820152606490fd5b60405162461bcd60e51b8152602060048201526005602482015264475331303160d81b6044820152606490fd5b60405162461bcd60e51b8152602060048201526005602482015264475332303560d81b6044820152606490fd5b60405162461bcd60e51b815260206004820152600560248201526423a998189960d91b6044820152606490fd5b60405162461bcd60e51b8152602060048201526005602482015264475330313160d81b6044820152606490fd5b8015612748576041810290808204604103611efe576127406041918361239d565b036100715790565b50600090565b90811561276c57808202918083048203611efe57612740908361239d565b5050600090565b92919390936000927fb648d3644f584ed1c2232d53c46d87e693586486ad0d1175f8656013110b714e6040519533875260018060a01b03169586602082015287604082015260a06060820152806127cd60a0820186611e71565b6127da608083018661237a565b0390a17fb104e0b93118902c651344349b610029d694cfdec91c589c91ebafbcd028994754956001331480156128f5575b6128c8576001600160a01b0387169182612829575b50505050909150565b6128679550602094966000916128726040519889978896879563394614b960e11b87526004870152602486015260a0604486015260a4850190611e71565b91606484019061237a565b33608483015203925af190811561211057600091612896575b508138808080612820565b90506020813d6020116128c0575b816128b160209383611d78565b8101031261007157513861288b565b3d91506128a4565b60405162461bcd60e51b815260206004820152600560248201526411d4cc4c0d60da1b6044820152606490fd5b50336000908152600160205260409020546001600160a01b03161561280b565b92919092600283101561238757600093849360010361293c5750602082519201908319f490565b602083519301918419f190565b6000916001600160a01b0390911690816129b6575b50509060001461298f577f6895c13664aa4f67288b25d7a21d7aaa34916e355fb9b6fae0a139a9085becb8339180a2565b7facd2c8702804128fdb0db2bb49f6d127dd0181c13fd45dbfe16de0930e2bd375339180a2565b813b1561040e576040516315661bd560e11b8152600481019190915283151560248201529082908290604490829084905af18015612a09576129f9575b8061295e565b81612a0391611d78565b386129f3565b6040513d84823e3d90fd5b9092916000906001600160a01b038116612b37575032935b6001600160a01b038116612ab8575080612aa45750612a609060008080809481943a6001106000146115d55760019061274e565b9687906001600160a01b03165af1903d15612a9e573d90612a8082611daf565b91612a8e6040519384611d78565b825260203d92013e5b156115cb57565b50612a97565b634e487b7160e01b81526011600452602490fd5b60009260209250839190612ace9060019061274e565b95826040518581019263a9059cbb60e01b845260018060a01b0316602482015288604482015260448152612b03606482611d78565b519261270f195a01f13d8015612b2f57602014612b2357505b1561165957565b90511590151715612b1c565b509050612b1c565b93612a2c565b6001600160a01b0381163014612b71577f6c9a6c4a39284e37ed1cf53d337577d14212a4870fb976a4366c693b939918d555565b60405162461bcd60e51b8152602060048201526005602482015264047533430360dc1b6044820152606490fdfea2646970667358221220dc5a8748bdcb149354e3bebb6fca2d044a85165be099dc39833ff88810a57fbe64736f6c634300081a0033","linkReferences":{}},"methodIdentifiers":{"VERSION()":"ffa1ad74","addOwnerWithThreshold(address,uint256)":"0d582f13","approveHash(bytes32)":"d4d9bdcd","approvedHashes(address,bytes32)":"7d832974","changeThreshold(uint256)":"694e80c3","checkNSignatures(address,bytes32,bytes,uint256)":"1fcac7f3","checkNSignatures(bytes32,bytes,bytes,uint256)":"12fb68e0","checkSignatures(address,bytes32,bytes)":"f855438b","checkSignatures(bytes32,bytes,bytes)":"934f3a11","disableModule(address,address)":"e009cfde","domainSeparator()":"f698da25","enableModule(address)":"610b5925","execTransaction(address,uint256,bytes,uint8,uint256,uint256,uint256,address,address,bytes)":"6a761202","execTransactionFromModule(address,uint256,bytes,uint8)":"468721a7","execTransactionFromModuleReturnData(address,uint256,bytes,uint8)":"5229073f","getModulesPaginated(address,uint256)":"cc2f8452","getOwners()":"a0e67e2b","getStorageAt(uint256,uint256)":"5624b25b","getThreshold()":"e75235b8","getTransactionHash(address,uint256,bytes,uint8,uint256,uint256,uint256,address,address,uint256)":"d8d11f78","isModuleEnabled(address)":"2d9ad53d","isOwner(address)":"2f54bf6e","nonce()":"affed0e0","removeOwner(address,address,uint256)":"f8dc5dd9","setFallbackHandler(address)":"f08a0323","setGuard(address)":"e19a9dd9","setModuleGuard(address)":"e068df37","setup(address[],uint256,address,bytes,address,address,uint256,address)":"b63e800d","signedMessages(bytes32)":"5ae6bd37","simulateAndRevert(address,bytes)":"b4faba09","swapOwner(address,address,address)":"e318b52b"},"id":22}