{"abi":[{"type":"function","name":"multiSend","inputs":[{"name":"transactions","type":"bytes","internalType":"bytes"}],"outputs":[],"stateMutability":"payable"}],"bytecode":{"object":"0x60808060405234601557610172908161001b8239f35b600080fdfe6080600436101561000f57600080fd5b60003560e01c638d80ff0a1461002457600080fd5b602036600319011261010b5760043567ffffffffffffffff811161010b573660238201121561010b5780600401359067ffffffffffffffff821161012657601f8201601f19908116603f0116830167ffffffffffffffff81118482101761012657604052818352366024838301011161010b5781600092602460209301838601378301015280519060205b8281106100b857005b808201805160f81c600182015160601c91601581015191603582015180946000948593948560001461011057505050505060011461010b575b156100ff57016055016100af565b6040513d6000823e3d90fd5b600080fd5b6055919293949550019130811502175af16100f1565b634e487b7160e01b600052604160045260246000fdfea2646970667358221220b1cfb2ac996d91d4556a6551f3b431d74eb211f7e4b92094b61cbac26014c3f264736f6c634300081a0033","linkReferences":{}},"methodIdentifiers":{"multiSend(bytes)":"8d80ff0a"},"id":63}