{"abi":[{"type":"fallback","stateMutability":"nonpayable"},{"type":"function","name":"addSupportedInterfaceBatch","inputs":[{"name":"_interfaceId","type":"bytes4","internalType":"bytes4"},{"name":"handlerWithSelectors","type":"bytes32[]","internalType":"bytes32[]"}],"outputs":[],"stateMutability":"nonpayable"},{"type":"function","name":"domainVerifiers","inputs":[{"name":"","type":"address","internalType":"contract ISafe"},{"name":"","type":"bytes32","internalType":"bytes32"}],"outputs":[{"name":"","type":"address","internalType":"contract ISafeSignatureVerifier"}],"stateMutability":"view"},{"type":"function","name":"isValidSignature","inputs":[{"name":"_hash","type":"bytes32","internalType":"bytes32"},{"name":"signature","type":"bytes","internalType":"bytes"}],"outputs":[{"name":"magic","type":"bytes4","internalType":"bytes4"}],"stateMutability":"view"},{"type":"function","name":"onERC1155BatchReceived","inputs":[{"name":"","type":"address","internalType":"address"},{"name":"","type":"address","internalType":"address"},{"name":"","type":"uint256[]","internalType":"uint256[]"},{"name":"","type":"uint256[]","internalType":"uint256[]"},{"name":"","type":"bytes","internalType":"bytes"}],"outputs":[{"name":"","type":"bytes4","internalType":"bytes4"}],"stateMutability":"view"},{"type":"function","name":"onERC1155Received","inputs":[{"name":"","type":"address","internalType":"address"},{"name":"","type":"address","internalType":"address"},{"name":"","type":"uint256","internalType":"uint256"},{"name":"","type":"uint256","internalType":"uint256"},{"name":"","type":"bytes","internalType":"bytes"}],"outputs":[{"name":"","type":"bytes4","internalType":"bytes4"}],"stateMutability":"view"},{"type":"function","name":"onERC721Received","inputs":[{"name":"","type":"address","internalType":"address"},{"name":"","type":"address","internalType":"address"},{"name":"","type":"uint256","internalType":"uint256"},{"name":"","type":"bytes","internalType":"bytes"}],"outputs":[{"name":"","type":"bytes4","internalType":"bytes4"}],"stateMutability":"view"},{"type":"function","name":"removeSupportedInterfaceBatch","inputs":[{"name":"_interfaceId","type":"bytes4","internalType":"bytes4"},{"name":"selectors","type":"bytes4[]","internalType":"bytes4[]"}],"outputs":[],"stateMutability":"nonpayable"},{"type":"function","name":"safeInterfaces","inputs":[{"name":"","type":"address","internalType":"contract ISafe"},{"name":"","type":"bytes4","internalType":"bytes4"}],"outputs":[{"name":"","type":"bool","internalType":"bool"}],"stateMutability":"view"},{"type":"function","name":"safeMethods","inputs":[{"name":"","type":"address","internalType":"contract ISafe"},{"name":"","type":"bytes4","internalType":"bytes4"}],"outputs":[{"name":"","type":"bytes32","internalType":"bytes32"}],"stateMutability":"view"},{"type":"function","name":"setDomainVerifier","inputs":[{"name":"domainSeparator","type":"bytes32","internalType":"bytes32"},{"name":"newVerifier","type":"address","internalType":"contract ISafeSignatureVerifier"}],"outputs":[],"stateMutability":"nonpayable"},{"type":"function","name":"setSafeMethod","inputs":[{"name":"selector","type":"bytes4","internalType":"bytes4"},{"name":"newMethod","type":"bytes32","internalType":"bytes32"}],"outputs":[],"stateMutability":"nonpayable"},{"type":"function","name":"setSupportedInterface","inputs":[{"name":"interfaceId","type":"bytes4","internalType":"bytes4"},{"name":"supported","type":"bool","internalType":"bool"}],"outputs":[],"stateMutability":"nonpayable"},{"type":"function","name":"supportsInterface","inputs":[{"name":"interfaceId","type":"bytes4","internalType":"bytes4"}],"outputs":[{"name":"","type":"bool","internalType":"bool"}],"stateMutability":"view"},{"type":"event","name":"AddedInterface","inputs":[{"name":"safe","type":"address","indexed":true,"internalType":"contract ISafe"},{"name":"interfaceId","type":"bytes4","indexed":false,"internalType":"bytes4"}],"anonymous":false},{"type":"event","name":"ChangedDomainVerifier","inputs":[{"name":"safe","type":"address","indexed":true,"internalType":"contract ISafe"},{"name":"domainSeparator","type":"bytes32","indexed":false,"internalType":"bytes32"},{"name":"oldVerifier","type":"address","indexed":false,"internalType":"contract ISafeSignatureVerifier"},{"name":"newVerifier","type":"address","indexed":false,"internalType":"contract ISafeSignatureVerifier"}],"anonymous":false},{"type":"event","name":"ChangedSafeMethod","inputs":[{"name":"safe","type":"address","indexed":true,"internalType":"contract ISafe"},{"name":"selector","type":"bytes4","indexed":false,"internalType":"bytes4"},{"name":"oldMethod","type":"bytes32","indexed":false,"internalType":"bytes32"},{"name":"newMethod","type":"bytes32","indexed":false,"internalType":"bytes32"}],"anonymous":false},{"type":"event","name":"RemovedInterface","inputs":[{"name":"safe","type":"address","indexed":true,"internalType":"contract ISafe"},{"name":"interfaceId","type":"bytes4","indexed":false,"internalType":"bytes4"}],"anonymous":false}],"bytecode":{"object":"0x608080604052346015576114f5908161001b8239f35b600080fdfe60808060405260043610156101e7575b50346101e2576018361061019d576100256113d8565b3360009081526020818152604080832083356001600160e01b03191684529091529020546001600160a01b0381169190821561015f5760f81c6100f7576013193601903682116100e1576100959160009384926040518095819482936325d6803f60e01b845233600485016112bd565b03915afa9182156100d55780926100b2575b50505b602081519101f35b6100ce92503d8091833e6100c68183610c1a565b81019061125f565b38806100a7565b604051903d90823e3d90fd5b634e487b7160e01b600052601160045260246000fd5b6013193601903682116100e15761012b916000938492836040518096819582946325d6803f60e01b845233600485016112bd565b03925af19182156100d5578092610144575b50506100aa565b61015892503d8091833e6100c68183610c1a565b388061013d565b60405162461bcd60e51b81526020600482015260166024820152751b595d1a1bd9081a185b991b195c881b9bdd081cd95d60521b6044820152606490fd5b60405162461bcd60e51b815260206004820152601760248201527f696e76616c6964206d6574686f642073656c6563746f720000000000000000006044820152606490fd5b600080fd5b60003560e01c90816301ffc9a714610a18575080630a3fe054146109c1578063150b7a02146109635780631626ba7e14610912578063327b533c146107ca5780633365582c1461071957806351cad5ee146106c957806361f5401b1461055657806364f95acc146105155780637f73528b146103dd578063b435a13b14610381578063bc197c81146102e15763f23a6e6114610283573861000f565b346101e25760a03660031901126101e25761029c610b4d565b506102a5610b63565b506084356001600160401b0381116101e2576102c5903690600401610b79565b50506102cf611306565b60405163f23a6e6160e01b8152602090f35b346101e25760a03660031901126101e2576102fa610b4d565b50610303610b63565b506044356001600160401b0381116101e257610323903690600401610ba6565b50506064356001600160401b0381116101e257610344903690600401610ba6565b50506084356001600160401b0381116101e257610365903690600401610b79565b505061036f611306565b60405163bc197c8160e01b8152602090f35b346101e25760403660031901126101e25761039a610b4d565b6103a2610b36565b9060018060a01b0316600052600260205260406000209063ffffffff60e01b16600052602052602060ff604060002054166040519015158152f35b346101e25760403660031901126101e2576103f6610b1f565b602435801515918282036101e25761041f61040f6113d8565b6001600160a01b03163314611194565b6001600160e01b0319908116929083146104d9573360005260026020526040600020836000528060205260ff604060002054161515820361045c57005b8360005260205260406000209060ff801983541691161790556000146104ab576040519081527f3d5024c13f12fa602dbf52b1979058940c224ebf170c83a4e358725ae50db36d60203392a25b005b6040519081527ff159d834f487747c1b3f17e2107743e42e6eecff444d894e511c18943072b29f60203392a2005b60405162461bcd60e51b81526020600482015260146024820152731a5b9d985b1a59081a5b9d195c999858d9481a5960621b6044820152606490fd5b346101e25760403660031901126101e2576104a9610531610b1f565b61053c61040f6113d8565b602435906001600160a01b036105506113d8565b16611431565b346101e25761056436610bd6565b919061057161040f6113d8565b6001600160a01b036105816113d8565b166000936000925b818410610638576001600160e01b0319808616906105aa9088168214611206565b6105c5336001600160a01b036105be6113d8565b1614611194565b60006001600160e01b031982146104d9573381526002602052604081208282528060205260ff6040832054166105f757005b8282526020526040812060ff198154169055506040519081527ff159d834f487747c1b3f17e2107743e42e6eecff444d894e511c18943072b29f60203392a2005b90919294600190847fe6e8ad7e5547dc860775f9f0638e195a4751a4cfbb7fd2ab60a52eb6c07082ec60606106766106718b89896111e0565b61124a565b6000848152602081815260408083206001600160e01b0319909416808452938252808320805490849055815194855291840191909152820152a26106be6106718886866111e0565b189501929190610589565b346101e25760403660031901126101e2576001600160a01b036106ea610b4d565b1660005260016020526040600020602435600052602052602060018060a01b0360406000205416604051908152f35b346101e25760403660031901126101e2576024356001600160a01b03811690600435908290036101e25760607f06341ac2f62eb79165de8c8b54ab89a8825b12746c2b98e01dff1007837d2ba89161077261040f6113d8565b6001600160a01b036107826113d8565b16600081815260016020908152604080832085845282529182902080546001600160a01b03198116891790915582519485526001600160a01b031690840152820194909452a2005b346101e2576107d836610bd6565b6107e661040f9392936113d8565b6001600160a01b036107f66113d8565b16926000936000925b8084106108b2576001600160e01b0319808616906108209088168214611206565b610834336001600160a01b036105be6113d8565b6001600160e01b031981146104d9573360005260026020526040600020816000528060205260ff60406000205416151560010361086d57005b816000526020526040600020600160ff198254161790556040519081527f3d5024c13f12fa602dbf52b1979058940c224ebf170c83a4e358725ae50db36d60203392a2005b909192946001906108c48784876111e0565b35906108fd6affffffffffffffffffffff60a81b8360081b16928060f81c15600014610908576000905b858060a01b0316178387611431565b1895019291906107ff565b8460f81b906108ee565b346101e25760403660031901126101e2576024356001600160401b0381116101e2576109506109476020923690600401610b79565b90600435610d09565b6040516001600160e01b03199091168152f35b346101e25760803660031901126101e25761097c610b4d565b50610985610b63565b506064356001600160401b0381116101e2576109a5903690600401610b79565b50506109af611306565b604051630a85bd0160e11b8152602090f35b346101e25760403660031901126101e2576109da610b4d565b6109e2610b36565b9060018060a01b0316600052600060205260406000209063ffffffff60e01b166000526020526020604060002054604051908152f35b346101e25760203660031901126101e2576020906001600160e01b0319610a3d610b1f565b166301ffc9a760e01b8114908115610b0e575b8115610a89575b8115610a65575b5015158152f35b90503360005260028352604060002090600052825260ff6040600020541683610a5e565b9050630a85bd0160e11b81148015610afe575b8015610aee575b8015610ade575b8015610ace575b8015610abe575b90610a57565b5063193e56b360e21b8114610ab8565b50630993729360e41b8114610ab1565b50633157c6e160e11b8114610aaa565b50630b135d3f60e11b8114610aa3565b50630271189760e51b8114610a9c565b6398c8e09760e01b81149150610a50565b600435906001600160e01b0319821682036101e257565b602435906001600160e01b0319821682036101e257565b600435906001600160a01b03821682036101e257565b602435906001600160a01b03821682036101e257565b9181601f840112156101e2578235916001600160401b0383116101e257602083818601950101116101e257565b9181601f840112156101e2578235916001600160401b0383116101e2576020808501948460051b0101116101e257565b9060406003198301126101e2576004356001600160e01b0319811681036101e25791602435906001600160401b0382116101e257610c1691600401610ba6565b9091565b90601f801991011681019081106001600160401b03821117610c3b57604052565b634e487b7160e01b600052604160045260246000fd5b6001600160401b038111610c3b57601f01601f191660200190565b929192610c7882610c51565b91610c866040519384610c1a565b8294818452818301116101e2578281602093846000960137010152565b9080601f830112156101e257816020610cbe93359101610c6c565b90565b60005b838110610cd45750506000910152565b8181015183820152602001610cc4565b90602091610cfd81518092818552858086019101610cc1565b601f01601f1916010190565b90600092610d156113d8565b6004821015610f87575b5090610d2c913691610c6c565b60405163f698da2560e01b81529091602082600481335afa918215610f7c578492610f44575b506040516020810191825260208152610d6c604082610c1a565b519020604051906020820190815260208252610d89604083610c1a565b610dda604080518093610dc960208301967f60b3cbf8b4a223d68d641b3b6ddf9a298e7f33710cf3d3a9d1146b5a6150fbca885251809285850190610cc1565b81010301601f198101835282610c1a565b519020604051906020820192601960f81b8452600160f81b60218401526022830152604282015260428152610e10606282610c1a565b51902090805115600014610ecd575060405190635ae6bd3760e01b82526004820152602081602481335afa9182156100d5578092610e95575b505015610e5c575b630b135d3f60e11b90565b60405162461bcd60e51b815260206004820152601160248201527012185cda081b9bdd08185c1c1c9bdd9959607a1b6044820152606490fd5b9091506020823d602011610ec5575b81610eb160209383610c1a565b81010312610ec25750513880610e49565b80fd5b3d9150610ea4565b90333b15610f4057610f09918391604051938492839263f855438b60e01b84528560048501526024840152606060448401526064830190610ce4565b0381335afa8015610f3557610f20575b5050610e51565b610f2b828092610c1a565b610ec25780610f19565b6040513d84823e3d90fd5b8280fd5b9091506020813d602011610f74575b81610f6060209383610c1a565b81010312610f7057519038610d52565b8380fd5b3d9150610f53565b6040513d86823e3d90fd5b82356001600160e01b031916635fd7e97d60e01b1480611189575b15610d1f579381604411610ec25793600483013560248401359133600052600160205260406000208260005260205260018060a01b03604060002054169081610fee575b505050610d1f565b846004116101e257858501608087820360031901126101e25760448701356001600160401b0381116101e257816004611029928a0101610ca3565b906064880135906001600160401b0382116101e257600461104c928a0101610ca3565b908860405160208101908882526110716040828651610dc98184840160208b01610cc1565b5190206040516020810191601960f81b8352600160f81b60218301528860228301526042820152604281526110a7606282610c1a565b519020146110b6575050610fe6565b6020989599506111119192949750611123939650604051998a98899788976314fc02c560e21b89523360048a015260018060a01b0316602489015260448801526064870152608486015260e060a486015260e4850190610ce4565b8381036003190160c485015290610ce4565b03915afa90811561117d57600091611139575090565b6020813d602011611175575b8161115260209383610c1a565b810103126111715751906001600160e01b031982168203610ec2575090565b5080fd5b3d9150611145565b6040513d6000823e3d90fd5b506044821015610fa2565b1561119b57565b60405162461bcd60e51b815260206004820152601e60248201527f6f6e6c7920736166652063616e2063616c6c2074686973206d6574686f6400006044820152606490fd5b91908110156111f05760051b0190565b634e487b7160e01b600052603260045260246000fd5b1561120d57565b60405162461bcd60e51b81526020600482015260156024820152740d2dce8cae4ccc2c6ca40d2c840dad2e6dac2e8c6d605b1b6044820152606490fd5b356001600160e01b0319811681036101e25790565b6020818303126101e2578051906001600160401b0382116101e2570181601f820112156101e257805161129181610c51565b9261129f6040519485610c1a565b818452602082840101116101e257610cbe9160208085019101610cc1565b6001600160a01b03918216815291166020820152600060408201819052608060608301819052820183905260a092908190848401376000828201840152601f01601f1916010190565b604051635624b25b60e01b81527f6c9a6c4a39284e37ed1cf53d337577d14212a4870fb976a4366c693b939918d5600482015260016024820152600081604481335afa90811561117d576000916113bf575b506020818051810103126101e257602001516001600160a01b038116908190036101e257300361138457565b60405162461bcd60e51b81526020600482015260136024820152721b9bdd08184819985b1b189858dac818d85b1b606a1b6044820152606490fd5b6113d2913d8091833e6100c68183610c1a565b38611358565b601436106113ec5736601319013560601c90565b60405162461bcd60e51b815260206004820152601760248201527f496e76616c69642063616c6c64617461206c656e6774680000000000000000006044820152606490fd5b6001600160a01b039081166000818152602081815260408083206001600160e01b0319909616808452918690529091205491947fe6e8ad7e5547dc860775f9f0638e195a4751a4cfbb7fd2ab60a52eb6c07082ec94606094929391928316156114b6575b836000526020528160406000205560405192835260208301526040820152a2565b6000925061149556fea2646970667358221220c07488d86d8508a548d934624f2e7ed7b8ac8ff3f887be181c1a689a28926fa664736f6c634300081a0033","linkReferences":{}},"methodIdentifiers":{"addSupportedInterfaceBatch(bytes4,bytes32[])":"327b533c","domainVerifiers(address,bytes32)":"51cad5ee","isValidSignature(bytes32,bytes)":"1626ba7e","onERC1155BatchReceived(address,address,uint256[],uint256[],bytes)":"bc197c81","onERC1155Received(address,address,uint256,uint256,bytes)":"f23a6e61","onERC721Received(address,address,uint256,bytes)":"150b7a02","removeSupportedInterfaceBatch(bytes4,bytes4[])":"61f5401b","safeInterfaces(address,bytes4)":"b435a13b","safeMethods(address,bytes4)":"0a3fe054","setDomainVerifier(bytes32,address)":"3365582c","setSafeMethod(bytes4,bytes32)":"64f95acc","setSupportedInterface(bytes4,bool)":"7f73528b","supportsInterface(bytes4)":"01ffc9a7"},"id":37}