{"abi":[{"type":"function","name":"encodeMessageDataForSafe","inputs":[{"name":"safe","type":"address","internalType":"contract Safe"},{"name":"message","type":"bytes","internalType":"bytes"}],"outputs":[{"name":"","type":"bytes","internalType":"bytes"}],"stateMutability":"view"},{"type":"function","name":"getMessageHash","inputs":[{"name":"message","type":"bytes","internalType":"bytes"}],"outputs":[{"name":"","type":"bytes32","internalType":"bytes32"}],"stateMutability":"view"},{"type":"function","name":"getMessageHashForSafe","inputs":[{"name":"safe","type":"address","internalType":"contract Safe"},{"name":"message","type":"bytes","internalType":"bytes"}],"outputs":[{"name":"","type":"bytes32","internalType":"bytes32"}],"stateMutability":"view"},{"type":"function","name":"getModules","inputs":[],"outputs":[{"name":"","type":"address[]","internalType":"address[]"}],"stateMutability":"view"},{"type":"function","name":"isValidSignature","inputs":[{"name":"_dataHash","type":"bytes32","internalType":"bytes32"},{"name":"_signature","type":"bytes","internalType":"bytes"}],"outputs":[{"name":"","type":"bytes4","internalType":"bytes4"}],"stateMutability":"view"},{"type":"function","name":"isValidSignature","inputs":[{"name":"_data","type":"bytes","internalType":"bytes"},{"name":"_signature","type":"bytes","internalType":"bytes"}],"outputs":[{"name":"","type":"bytes4","internalType":"bytes4"}],"stateMutability":"view"},{"type":"function","name":"onERC1155BatchReceived","inputs":[{"name":"","type":"address","internalType":"address"},{"name":"","type":"address","internalType":"address"},{"name":"","type":"uint256[]","internalType":"uint256[]"},{"name":"","type":"uint256[]","internalType":"uint256[]"},{"name":"","type":"bytes","internalType":"bytes"}],"outputs":[{"name":"","type":"bytes4","internalType":"bytes4"}],"stateMutability":"pure"},{"type":"function","name":"onERC1155Received","inputs":[{"name":"","type":"address","internalType":"address"},{"name":"","type":"address","internalType":"address"},{"name":"","type":"uint256","internalType":"uint256"},{"name":"","type":"uint256","internalType":"uint256"},{"name":"","type":"bytes","internalType":"bytes"}],"outputs":[{"name":"","type":"bytes4","internalType":"bytes4"}],"stateMutability":"pure"},{"type":"function","name":"onERC721Received","inputs":[{"name":"","type":"address","internalType":"address"},{"name":"","type":"address","internalType":"address"},{"name":"","type":"uint256","internalType":"uint256"},{"name":"","type":"bytes","internalType":"bytes"}],"outputs":[{"name":"","type":"bytes4","internalType":"bytes4"}],"stateMutability":"pure"},{"type":"function","name":"simulate","inputs":[{"name":"targetContract","type":"address","internalType":"address"},{"name":"calldataPayload","type":"bytes","internalType":"bytes"}],"outputs":[{"name":"response","type":"bytes","internalType":"bytes"}],"stateMutability":"nonpayable"},{"type":"function","name":"supportsInterface","inputs":[{"name":"interfaceId","type":"bytes4","internalType":"bytes4"}],"outputs":[{"name":"","type":"bool","internalType":"bool"}],"stateMutability":"view"},{"type":"function","name":"tokensReceived","inputs":[{"name":"","type":"address","internalType":"address"},{"name":"","type":"address","internalType":"address"},{"name":"","type":"address","internalType":"address"},{"name":"","type":"uint256","internalType":"uint256"},{"name":"","type":"bytes","internalType":"bytes"},{"name":"","type":"bytes","internalType":"bytes"}],"outputs":[],"stateMutability":"pure"}],"bytecode":{"object":"0x6080604052348015600f57600080fd5b50610e0b8061001f6000396000f3fe608060405234801561001057600080fd5b50600436106100b35760003560e01c8063230316401161007157806323031640146101795780636ac2478414610199578063b2494df3146101ac578063bc197c81146101c1578063bd61951d146101e3578063f23a6e61146101f657600080fd5b806223de29146100b857806301ffc9a7146100d25780630a1028c4146100fa578063150b7a021461011b5780631626ba7e1461015357806320c13b0b14610166575b600080fd5b6100d06100c63660046106ce565b5050505050505050565b005b6100e56100e0366004610798565b610216565b60405190151581526020015b60405180910390f35b61010d61010836600461086a565b610268565b6040519081526020016100f1565b61013a6101293660046108a6565b630a85bd0160e11b95945050505050565b6040516001600160e01b031990911681526020016100f1565b61013a610161366004610918565b610274565b61013a610174366004610963565b610332565b61018c6101873660046109ca565b61047c565b6040516100f19190610a49565b61010d6101a73660046109ca565b61058e565b6101b46105a9565b6040516100f19190610a5c565b61013a6101cf366004610aec565b63bc197c8160e01b98975050505050505050565b61018c6101f1366004610b94565b610624565b61013a610204366004610bcf565b63f23a6e6160e01b9695505050505050565b60006001600160e01b03198216630271189760e51b148061024757506001600160e01b03198216630a85bd0160e11b145b8061026257506001600160e01b031982166301ffc9a760e01b145b92915050565b6000610262338361058e565b60408051602080820186905282518083039091018152818301928390526320c13b0b60e01b9092526000913391839183916320c13b0b916102bb9189908990604401610c4a565b602060405180830381865afa1580156102d8573d6000803e3d6000fd5b505050506040513d601f19601f820116820180604052508101906102fc9190610c90565b90506001600160e01b031981166320c13b0b60e01b1461031d576000610326565b630b135d3f60e11b5b925050505b9392505050565b60003381610340828661047c565b8051602082012085519192509060000361040957604051635ae6bd3760e01b8152600481018290526001600160a01b03841690635ae6bd3790602401602060405180830381865afa158015610399573d6000803e3d6000fd5b505050506040513d601f19601f820116820180604052508101906103bd9190610cad565b6000036104045760405162461bcd60e51b815260206004820152601160248201527012185cda081b9bdd08185c1c1c9bdd9959607a1b604482015260640160405180910390fd5b61046a565b60405163934f3a1160e01b81526001600160a01b0384169063934f3a119061043990849086908a90600401610cc6565b60006040518083038186803b15801561045157600080fd5b505afa158015610465573d6000803e3d6000fd5b505050505b506320c13b0b60e01b95945050505050565b606060007f60b3cbf8b4a223d68d641b3b6ddf9a298e7f33710cf3d3a9d1146b5a6150fbca60001b83805190602001206040516020016104c6929190918252602082015260400190565b604051602081830303815290604052805190602001209050601960f81b600160f81b856001600160a01b031663f698da256040518163ffffffff1660e01b8152600401602060405180830381865afa158015610526573d6000803e3d6000fd5b505050506040513d601f19601f8201168201806040525081019061054a9190610cad565b6040516001600160f81b0319938416602082015292909116602183015260228201526042810182905260620160405160208183030381529060405291505092915050565b600061059a838361047c565b80519060200120905092915050565b604051636617c22960e11b815260016004820152600a60248201526060903390600090829063cc2f845290604401600060405180830381865afa1580156105f4573d6000803e3d6000fd5b505050506040513d6000823e601f3d908101601f1916820160405261061c9190810190610d0b565b509392505050565b606060405163b4faba0960e01b8152600436036004808301376020600036836000335af1505060203d036040519150808201604052806020833e5060005161032b57805160208201fd5b6001600160a01b038116811461068357600080fd5b50565b60008083601f84011261069857600080fd5b5081356001600160401b038111156106af57600080fd5b6020830191508360208285010111156106c757600080fd5b9250929050565b60008060008060008060008060c0898b0312156106ea57600080fd5b88356106f58161066e565b975060208901356107058161066e565b965060408901356107158161066e565b95506060890135945060808901356001600160401b0381111561073757600080fd5b6107438b828c01610686565b90955093505060a08901356001600160401b0381111561076257600080fd5b61076e8b828c01610686565b999c989b5096995094979396929594505050565b6001600160e01b03198116811461068357600080fd5b6000602082840312156107aa57600080fd5b813561032b81610782565b634e487b7160e01b600052604160045260246000fd5b604051601f8201601f191681016001600160401b03811182821017156107f3576107f36107b5565b604052919050565b600082601f83011261080c57600080fd5b81356001600160401b03811115610825576108256107b5565b610838601f8201601f19166020016107cb565b81815284602083860101111561084d57600080fd5b816020850160208301376000918101602001919091529392505050565b60006020828403121561087c57600080fd5b81356001600160401b0381111561089257600080fd5b61089e848285016107fb565b949350505050565b6000806000806000608086880312156108be57600080fd5b85356108c98161066e565b945060208601356108d98161066e565b93506040860135925060608601356001600160401b038111156108fb57600080fd5b61090788828901610686565b969995985093965092949392505050565b60008060006040848603121561092d57600080fd5b8335925060208401356001600160401b0381111561094a57600080fd5b61095686828701610686565b9497909650939450505050565b6000806040838503121561097657600080fd5b82356001600160401b0381111561098c57600080fd5b610998858286016107fb565b92505060208301356001600160401b038111156109b457600080fd5b6109c0858286016107fb565b9150509250929050565b600080604083850312156109dd57600080fd5b82356109e88161066e565b915060208301356001600160401b038111156109b457600080fd5b6000815180845260005b81811015610a2957602081850181015186830182015201610a0d565b506000602082860101526020601f19601f83011685010191505092915050565b60208152600061032b6020830184610a03565b602080825282518282018190526000918401906040840190835b81811015610a9d5783516001600160a01b0316835260209384019390920191600101610a76565b509095945050505050565b60008083601f840112610aba57600080fd5b5081356001600160401b03811115610ad157600080fd5b6020830191508360208260051b85010111156106c757600080fd5b60008060008060008060008060a0898b031215610b0857600080fd5b8835610b138161066e565b97506020890135610b238161066e565b965060408901356001600160401b03811115610b3e57600080fd5b610b4a8b828c01610aa8565b90975095505060608901356001600160401b03811115610b6957600080fd5b610b758b828c01610aa8565b90955093505060808901356001600160401b0381111561076257600080fd5b600080600060408486031215610ba957600080fd5b8335610bb48161066e565b925060208401356001600160401b0381111561094a57600080fd5b60008060008060008060a08789031215610be857600080fd5b8635610bf38161066e565b95506020870135610c038161066e565b9450604087013593506060870135925060808701356001600160401b03811115610c2c57600080fd5b610c3889828a01610686565b979a9699509497509295939492505050565b604081526000610c5d6040830186610a03565b8281036020840152838152838560208301376000602085830101526020601f19601f860116820101915050949350505050565b600060208284031215610ca257600080fd5b815161032b81610782565b600060208284031215610cbf57600080fd5b5051919050565b838152606060208201526000610cdf6060830185610a03565b8281036040840152610cf18185610a03565b9695505050505050565b8051610d068161066e565b919050565b60008060408385031215610d1e57600080fd5b82516001600160401b03811115610d3457600080fd5b8301601f81018513610d4557600080fd5b80516001600160401b03811115610d5e57610d5e6107b5565b8060051b610d6e602082016107cb565b91825260208184018101929081019088841115610d8a57600080fd5b6020850194505b83851015610db85784519250610da68361066e565b82825260209485019490910190610d91565b8096505050505050610dcc60208401610cfb565b9050925092905056fea2646970667358221220c771233e7e6f019224a82b6091adab8eeb65b6960abeb8bbb8a99d6f080ac62f64736f6c634300081a0033","linkReferences":{}},"methodIdentifiers":{"encodeMessageDataForSafe(address,bytes)":"23031640","getMessageHash(bytes)":"0a1028c4","getMessageHashForSafe(address,bytes)":"6ac24784","getModules()":"b2494df3","isValidSignature(bytes,bytes)":"20c13b0b","isValidSignature(bytes32,bytes)":"1626ba7e","onERC1155BatchReceived(address,address,uint256[],uint256[],bytes)":"bc197c81","onERC1155Received(address,address,uint256,uint256,bytes)":"f23a6e61","onERC721Received(address,address,uint256,bytes)":"150b7a02","simulate(address,bytes)":"bd61951d","supportsInterface(bytes4)":"01ffc9a7","tokensReceived(address,address,address,uint256,bytes,bytes)":"0023de29"},"id":36}