{"abi":[{"type":"function","name":"encodeMessageDataForSafe","inputs":[{"name":"safe","type":"address","internalType":"contract ISafe"},{"name":"message","type":"bytes","internalType":"bytes"}],"outputs":[{"name":"","type":"bytes","internalType":"bytes"}],"stateMutability":"view"},{"type":"function","name":"encodeTransactionData","inputs":[{"name":"to","type":"address","internalType":"address"},{"name":"value","type":"uint256","internalType":"uint256"},{"name":"data","type":"bytes","internalType":"bytes"},{"name":"operation","type":"uint8","internalType":"enum Enum.Operation"},{"name":"safeTxGas","type":"uint256","internalType":"uint256"},{"name":"baseGas","type":"uint256","internalType":"uint256"},{"name":"gasPrice","type":"uint256","internalType":"uint256"},{"name":"gasToken","type":"address","internalType":"address"},{"name":"refundReceiver","type":"address","internalType":"address"},{"name":"nonce","type":"uint256","internalType":"uint256"}],"outputs":[{"name":"","type":"bytes","internalType":"bytes"}],"stateMutability":"view"},{"type":"function","name":"getMessageHash","inputs":[{"name":"message","type":"bytes","internalType":"bytes"}],"outputs":[{"name":"","type":"bytes32","internalType":"bytes32"}],"stateMutability":"view"},{"type":"function","name":"getMessageHashForSafe","inputs":[{"name":"safe","type":"address","internalType":"contract ISafe"},{"name":"message","type":"bytes","internalType":"bytes"}],"outputs":[{"name":"","type":"bytes32","internalType":"bytes32"}],"stateMutability":"view"},{"type":"function","name":"getModules","inputs":[],"outputs":[{"name":"","type":"address[]","internalType":"address[]"}],"stateMutability":"view"},{"type":"function","name":"isValidSignature","inputs":[{"name":"_dataHash","type":"bytes32","internalType":"bytes32"},{"name":"_signature","type":"bytes","internalType":"bytes"}],"outputs":[{"name":"","type":"bytes4","internalType":"bytes4"}],"stateMutability":"view"},{"type":"function","name":"onERC1155BatchReceived","inputs":[{"name":"","type":"address","internalType":"address"},{"name":"","type":"address","internalType":"address"},{"name":"","type":"uint256[]","internalType":"uint256[]"},{"name":"","type":"uint256[]","internalType":"uint256[]"},{"name":"","type":"bytes","internalType":"bytes"}],"outputs":[{"name":"","type":"bytes4","internalType":"bytes4"}],"stateMutability":"view"},{"type":"function","name":"onERC1155Received","inputs":[{"name":"","type":"address","internalType":"address"},{"name":"","type":"address","internalType":"address"},{"name":"","type":"uint256","internalType":"uint256"},{"name":"","type":"uint256","internalType":"uint256"},{"name":"","type":"bytes","internalType":"bytes"}],"outputs":[{"name":"","type":"bytes4","internalType":"bytes4"}],"stateMutability":"view"},{"type":"function","name":"onERC721Received","inputs":[{"name":"","type":"address","internalType":"address"},{"name":"","type":"address","internalType":"address"},{"name":"","type":"uint256","internalType":"uint256"},{"name":"","type":"bytes","internalType":"bytes"}],"outputs":[{"name":"","type":"bytes4","internalType":"bytes4"}],"stateMutability":"view"},{"type":"function","name":"simulate","inputs":[{"name":"targetContract","type":"address","internalType":"address"},{"name":"calldataPayload","type":"bytes","internalType":"bytes"}],"outputs":[{"name":"response","type":"bytes","internalType":"bytes"}],"stateMutability":"nonpayable"},{"type":"function","name":"supportsInterface","inputs":[{"name":"interfaceId","type":"bytes4","internalType":"bytes4"}],"outputs":[{"name":"","type":"bool","internalType":"bool"}],"stateMutability":"view"},{"type":"function","name":"tokensReceived","inputs":[{"name":"","type":"address","internalType":"address"},{"name":"","type":"address","internalType":"address"},{"name":"","type":"address","internalType":"address"},{"name":"","type":"uint256","internalType":"uint256"},{"name":"","type":"bytes","internalType":"bytes"},{"name":"","type":"bytes","internalType":"bytes"}],"outputs":[],"stateMutability":"pure"}],"bytecode":{"object":"0x60808060405234601557610d22908161001b8239f35b600080fdfe608080604052600436101561001357600080fd5b600090813560e01c90816223de291461086f57816301ffc9a714610802575080630a1028c4146107cc578063150b7a021461076d5780631626ba7e146105d157806323031640146105bc5780636ac2478414610594578063b2494df314610431578063bc197c8114610390578063bd61951d146102f9578063e86637db146101095763f23a6e61146100a457600080fd5b346101065760a0366003190112610106576100bd6108e1565b506100c66108f7565b506084356001600160401b038111610102576100e6903690600401610923565b50506100f0610bb9565b60405163f23a6e6160e01b8152602090f35b5080fd5b80fd5b503461010657610140366003190112610106576101246108e1565b906044356001600160401b03811161010257610144903690600401610923565b92909160643560028110156101025760e4356001600160a01b038116908190036102f557610104356001600160a01b03811692908390036102f15760405163f698da2560e01b815295602087600481335afa9687156102e657859761029b575b50906101bc61028b96959493926102979936916109a2565b60208151910120936040519460208601967fbb8310d486368db6bd6f849402fdd73ad53d316b5a4b2644ad6efe0f941286d8885260018060a01b03166040870152602435606087015260808601525060a084015260843560c084015260a43560e084015260c43561010084015261012083015261014082015261012435610160820152610160815261025061018082610950565b519020604051601960f81b6020820152600160f81b60218201526022810193909352604283015281606281015b03601f198101835282610950565b60405191829182610a59565b0390f35b97965094939291906020883d6020116102de575b816102bc60209383610950565b810103126102d957965195969394929391929091906101bc6101a4565b600080fd5b3d91506102af565b6040513d87823e3d90fd5b8380fd5b8280fd5b503461010657366003190160408112610102576103146108e1565b5081602435916001600160401b038311610102576103386040933690600401610923565b505082519063b4faba0960e01b8252600480830137369082335af160403d1017610106576020516020810191602060405192830101604052826020833e511561038b576102979060405191829182610a59565b602001fd5b50346101065760a0366003190112610106576103aa6108e1565b506103b36108f7565b506044356001600160401b038111610102576103d3903690600401610a85565b50506064356001600160401b038111610102576103f4903690600401610a85565b50506084356001600160401b03811161010257610415903690600401610923565b505061041f610bb9565b60405163bc197c8160e01b8152602090f35b5034610106578060031936011261010657604051636617c22960e11b815260016004820152600a60248201528181604481335afa9081156105895782916104c2575b5090604051918291602083016020845282518091526020604085019301915b8181106104a0575050500390f35b82516001600160a01b0316845285945060209384019390920191600101610492565b90503d8083833e6104d38183610950565b8101906040818303126102f55780516001600160401b0381116102f15781019180601f840112156102f1578251926001600160401b038411610575578360051b90604051946105256020840187610950565b855260208086019282010192831161057157602001905b8282106105595750505060206105529101610ba5565b5038610473565b6020809161056684610ba5565b81520191019061053c565b8580fd5b634e487b7160e01b85526041600452602485fd5b6040513d84823e3d90fd5b50346101065760206105ae6105a8366109f7565b90610ab5565b818151910120604051908152f35b50346101065761029761028b6105a8366109f7565b5034610106576040366003190112610106576024356001600160401b03811161010257610602903690600401610923565b82610626604051600435602082015260208152610620604082610950565b33610ab5565b602081519101209282156000146106f85750505060405190635ae6bd3760e01b82526004820152602081602481335afa9182156106ec5780926106b7575b50501561067e575b604051630b135d3f60e11b8152602090f35b60405162461bcd60e51b815260206004820152601160248201527012185cda081b9bdd08185c1c1c9bdd9959607a1b6044820152606490fd5b9091506020823d6020116106e4575b816106d360209383610950565b810103126101065750513880610664565b3d91506106c6565b604051903d90823e3d90fd5b909192333b156102f55760849084604051958694859363f855438b60e01b8552876004860152602485015260606044850152816064850152848401378181018301859052601f01601f19168101030181335afa80156105895761075d575b505061066c565b8161076791610950565b38610756565b5034610106576080366003190112610106576107876108e1565b506107906108f7565b506064356001600160401b038111610102576107b0903690600401610923565b50506107ba610bb9565b604051630a85bd0160e11b8152602090f35b503461010657602036600319011261010657600435906001600160401b0382116101065760206105ae61062036600486016109d9565b9050346101025760203660031901126101025760043563ffffffff60e01b81168091036102f55760209250630271189760e51b811490811561085e575b811561084d575b5015158152f35b6301ffc9a760e01b14905038610846565b630a85bd0160e11b8114915061083f565b82346101065760c0366003190112610106576108896108e1565b506108926108f7565b5061089b61090d565b506084356001600160401b038111610102576108bb903690600401610923565b505060a4356001600160401b038111610102576108dc903690600401610923565b505080f35b600435906001600160a01b03821682036102d957565b602435906001600160a01b03821682036102d957565b604435906001600160a01b03821682036102d957565b9181601f840112156102d9578235916001600160401b0383116102d957602083818601950101116102d957565b90601f801991011681019081106001600160401b0382111761097157604052565b634e487b7160e01b600052604160045260246000fd5b6001600160401b03811161097157601f01601f191660200190565b9291926109ae82610987565b916109bc6040519384610950565b8294818452818301116102d9578281602093846000960137010152565b9080601f830112156102d9578160206109f4933591016109a2565b90565b9060406003198301126102d9576004356001600160a01b03811681036102d95791602435906001600160401b0382116102d9576109f4916004016109d9565b60005b838110610a495750506000910152565b8181015183820152602001610a39565b60409160208252610a798151809281602086015260208686019101610a36565b601f01601f1916010190565b9181601f840112156102d9578235916001600160401b0383116102d9576020808501948460051b0101116102d957565b906020600491818151910120604051828101917f60b3cbf8b4a223d68d641b3b6ddf9a298e7f33710cf3d3a9d1146b5a6150fbca8352604082015260408152610aff606082610950565b51902060405163f698da2560e01b815290939092839182906001600160a01b03165afa8015610b9957600090610b65575b604051601960f81b6020820152600160f81b602182015260228101919091526042810192909252506109f4816062810161027d565b506020813d602011610b91575b81610b7f60209383610950565b810103126102d9576109f49051610b30565b3d9150610b72565b6040513d6000823e3d90fd5b51906001600160a01b03821682036102d957565b604051635624b25b60e01b81527f6c9a6c4a39284e37ed1cf53d337577d14212a4870fb976a4366c693b939918d5600482015260016024820152600081604481335afa908115610b9957600091610c72575b506020818051810103126102d957602001516001600160a01b038116908190036102d9573003610c3757565b60405162461bcd60e51b81526020600482015260136024820152721b9bdd08184819985b1b189858dac818d85b1b606a1b6044820152606490fd5b903d8082843e610c828184610950565b820191602081840312610102578051906001600160401b0382116102f5570182601f8201121561010257805191610cb883610987565b93610cc66040519586610950565b83855260208484010111610106575090610ce69160208085019101610a36565b38610c0b56fea2646970667358221220fab0c77a1227eabdf6c63e8bf0099f3f5d68e0cb9b65cf7a113617d2f72f5a6b64736f6c634300081a0033","linkReferences":{}},"methodIdentifiers":{"encodeMessageDataForSafe(address,bytes)":"23031640","encodeTransactionData(address,uint256,bytes,uint8,uint256,uint256,uint256,address,address,uint256)":"e86637db","getMessageHash(bytes)":"0a1028c4","getMessageHashForSafe(address,bytes)":"6ac24784","getModules()":"b2494df3","isValidSignature(bytes32,bytes)":"1626ba7e","onERC1155BatchReceived(address,address,uint256[],uint256[],bytes)":"bc197c81","onERC1155Received(address,address,uint256,uint256,bytes)":"f23a6e61","onERC721Received(address,address,uint256,bytes)":"150b7a02","simulate(address,bytes)":"bd61951d","supportsInterface(bytes4)":"01ffc9a7","tokensReceived(address,address,address,uint256,bytes,bytes)":"0023de29"},"id":36}