{"abi":[{"type":"constructor","inputs":[],"stateMutability":"nonpayable"},{"type":"fallback","stateMutability":"nonpayable"},{"type":"receive","stateMutability":"payable"},{"type":"function","name":"VERSION","inputs":[],"outputs":[{"name":"","type":"string","internalType":"string"}],"stateMutability":"view"},{"type":"function","name":"addOwnerWithThreshold","inputs":[{"name":"owner","type":"address","internalType":"address"},{"name":"_threshold","type":"uint256","internalType":"uint256"}],"outputs":[],"stateMutability":"nonpayable"},{"type":"function","name":"approveHash","inputs":[{"name":"hashToApprove","type":"bytes32","internalType":"bytes32"}],"outputs":[],"stateMutability":"nonpayable"},{"type":"function","name":"approvedHashes","inputs":[{"name":"","type":"address","internalType":"address"},{"name":"","type":"bytes32","internalType":"bytes32"}],"outputs":[{"name":"","type":"uint256","internalType":"uint256"}],"stateMutability":"view"},{"type":"function","name":"changeThreshold","inputs":[{"name":"_threshold","type":"uint256","internalType":"uint256"}],"outputs":[],"stateMutability":"nonpayable"},{"type":"function","name":"checkNSignatures","inputs":[{"name":"dataHash","type":"bytes32","internalType":"bytes32"},{"name":"data","type":"bytes","internalType":"bytes"},{"name":"signatures","type":"bytes","internalType":"bytes"},{"name":"requiredSignatures","type":"uint256","internalType":"uint256"}],"outputs":[],"stateMutability":"view"},{"type":"function","name":"checkSignatures","inputs":[{"name":"dataHash","type":"bytes32","internalType":"bytes32"},{"name":"data","type":"bytes","internalType":"bytes"},{"name":"signatures","type":"bytes","internalType":"bytes"}],"outputs":[],"stateMutability":"view"},{"type":"function","name":"disableModule","inputs":[{"name":"prevModule","type":"address","internalType":"address"},{"name":"module","type":"address","internalType":"address"}],"outputs":[],"stateMutability":"nonpayable"},{"type":"function","name":"domainSeparator","inputs":[],"outputs":[{"name":"","type":"bytes32","internalType":"bytes32"}],"stateMutability":"view"},{"type":"function","name":"enableModule","inputs":[{"name":"module","type":"address","internalType":"address"}],"outputs":[],"stateMutability":"nonpayable"},{"type":"function","name":"encodeTransactionData","inputs":[{"name":"to","type":"address","internalType":"address"},{"name":"value","type":"uint256","internalType":"uint256"},{"name":"data","type":"bytes","internalType":"bytes"},{"name":"operation","type":"uint8","internalType":"enum Enum.Operation"},{"name":"safeTxGas","type":"uint256","internalType":"uint256"},{"name":"baseGas","type":"uint256","internalType":"uint256"},{"name":"gasPrice","type":"uint256","internalType":"uint256"},{"name":"gasToken","type":"address","internalType":"address"},{"name":"refundReceiver","type":"address","internalType":"address"},{"name":"_nonce","type":"uint256","internalType":"uint256"}],"outputs":[{"name":"","type":"bytes","internalType":"bytes"}],"stateMutability":"view"},{"type":"function","name":"execTransaction","inputs":[{"name":"to","type":"address","internalType":"address"},{"name":"value","type":"uint256","internalType":"uint256"},{"name":"data","type":"bytes","internalType":"bytes"},{"name":"operation","type":"uint8","internalType":"enum Enum.Operation"},{"name":"safeTxGas","type":"uint256","internalType":"uint256"},{"name":"baseGas","type":"uint256","internalType":"uint256"},{"name":"gasPrice","type":"uint256","internalType":"uint256"},{"name":"gasToken","type":"address","internalType":"address"},{"name":"refundReceiver","type":"address","internalType":"address payable"},{"name":"signatures","type":"bytes","internalType":"bytes"}],"outputs":[{"name":"success","type":"bool","internalType":"bool"}],"stateMutability":"payable"},{"type":"function","name":"execTransactionFromModule","inputs":[{"name":"to","type":"address","internalType":"address"},{"name":"value","type":"uint256","internalType":"uint256"},{"name":"data","type":"bytes","internalType":"bytes"},{"name":"operation","type":"uint8","internalType":"enum Enum.Operation"}],"outputs":[{"name":"success","type":"bool","internalType":"bool"}],"stateMutability":"nonpayable"},{"type":"function","name":"execTransactionFromModuleReturnData","inputs":[{"name":"to","type":"address","internalType":"address"},{"name":"value","type":"uint256","internalType":"uint256"},{"name":"data","type":"bytes","internalType":"bytes"},{"name":"operation","type":"uint8","internalType":"enum Enum.Operation"}],"outputs":[{"name":"success","type":"bool","internalType":"bool"},{"name":"returnData","type":"bytes","internalType":"bytes"}],"stateMutability":"nonpayable"},{"type":"function","name":"getChainId","inputs":[],"outputs":[{"name":"","type":"uint256","internalType":"uint256"}],"stateMutability":"view"},{"type":"function","name":"getModulesPaginated","inputs":[{"name":"start","type":"address","internalType":"address"},{"name":"pageSize","type":"uint256","internalType":"uint256"}],"outputs":[{"name":"array","type":"address[]","internalType":"address[]"},{"name":"next","type":"address","internalType":"address"}],"stateMutability":"view"},{"type":"function","name":"getOwners","inputs":[],"outputs":[{"name":"","type":"address[]","internalType":"address[]"}],"stateMutability":"view"},{"type":"function","name":"getStorageAt","inputs":[{"name":"offset","type":"uint256","internalType":"uint256"},{"name":"length","type":"uint256","internalType":"uint256"}],"outputs":[{"name":"","type":"bytes","internalType":"bytes"}],"stateMutability":"view"},{"type":"function","name":"getThreshold","inputs":[],"outputs":[{"name":"","type":"uint256","internalType":"uint256"}],"stateMutability":"view"},{"type":"function","name":"getTransactionHash","inputs":[{"name":"to","type":"address","internalType":"address"},{"name":"value","type":"uint256","internalType":"uint256"},{"name":"data","type":"bytes","internalType":"bytes"},{"name":"operation","type":"uint8","internalType":"enum Enum.Operation"},{"name":"safeTxGas","type":"uint256","internalType":"uint256"},{"name":"baseGas","type":"uint256","internalType":"uint256"},{"name":"gasPrice","type":"uint256","internalType":"uint256"},{"name":"gasToken","type":"address","internalType":"address"},{"name":"refundReceiver","type":"address","internalType":"address"},{"name":"_nonce","type":"uint256","internalType":"uint256"}],"outputs":[{"name":"","type":"bytes32","internalType":"bytes32"}],"stateMutability":"view"},{"type":"function","name":"isModuleEnabled","inputs":[{"name":"module","type":"address","internalType":"address"}],"outputs":[{"name":"","type":"bool","internalType":"bool"}],"stateMutability":"view"},{"type":"function","name":"isOwner","inputs":[{"name":"owner","type":"address","internalType":"address"}],"outputs":[{"name":"","type":"bool","internalType":"bool"}],"stateMutability":"view"},{"type":"function","name":"nonce","inputs":[],"outputs":[{"name":"","type":"uint256","internalType":"uint256"}],"stateMutability":"view"},{"type":"function","name":"removeOwner","inputs":[{"name":"prevOwner","type":"address","internalType":"address"},{"name":"owner","type":"address","internalType":"address"},{"name":"_threshold","type":"uint256","internalType":"uint256"}],"outputs":[],"stateMutability":"nonpayable"},{"type":"function","name":"setFallbackHandler","inputs":[{"name":"handler","type":"address","internalType":"address"}],"outputs":[],"stateMutability":"nonpayable"},{"type":"function","name":"setGuard","inputs":[{"name":"guard","type":"address","internalType":"address"}],"outputs":[],"stateMutability":"nonpayable"},{"type":"function","name":"setup","inputs":[{"name":"_owners","type":"address[]","internalType":"address[]"},{"name":"_threshold","type":"uint256","internalType":"uint256"},{"name":"to","type":"address","internalType":"address"},{"name":"data","type":"bytes","internalType":"bytes"},{"name":"fallbackHandler","type":"address","internalType":"address"},{"name":"paymentToken","type":"address","internalType":"address"},{"name":"payment","type":"uint256","internalType":"uint256"},{"name":"paymentReceiver","type":"address","internalType":"address payable"}],"outputs":[],"stateMutability":"nonpayable"},{"type":"function","name":"signedMessages","inputs":[{"name":"","type":"bytes32","internalType":"bytes32"}],"outputs":[{"name":"","type":"uint256","internalType":"uint256"}],"stateMutability":"view"},{"type":"function","name":"simulateAndRevert","inputs":[{"name":"targetContract","type":"address","internalType":"address"},{"name":"calldataPayload","type":"bytes","internalType":"bytes"}],"outputs":[],"stateMutability":"nonpayable"},{"type":"function","name":"swapOwner","inputs":[{"name":"prevOwner","type":"address","internalType":"address"},{"name":"oldOwner","type":"address","internalType":"address"},{"name":"newOwner","type":"address","internalType":"address"}],"outputs":[],"stateMutability":"nonpayable"},{"type":"event","name":"AddedOwner","inputs":[{"name":"owner","type":"address","indexed":true,"internalType":"address"}],"anonymous":false},{"type":"event","name":"ApproveHash","inputs":[{"name":"approvedHash","type":"bytes32","indexed":true,"internalType":"bytes32"},{"name":"owner","type":"address","indexed":true,"internalType":"address"}],"anonymous":false},{"type":"event","name":"ChangedFallbackHandler","inputs":[{"name":"handler","type":"address","indexed":true,"internalType":"address"}],"anonymous":false},{"type":"event","name":"ChangedGuard","inputs":[{"name":"guard","type":"address","indexed":true,"internalType":"address"}],"anonymous":false},{"type":"event","name":"ChangedThreshold","inputs":[{"name":"threshold","type":"uint256","indexed":false,"internalType":"uint256"}],"anonymous":false},{"type":"event","name":"DisabledModule","inputs":[{"name":"module","type":"address","indexed":true,"internalType":"address"}],"anonymous":false},{"type":"event","name":"EnabledModule","inputs":[{"name":"module","type":"address","indexed":true,"internalType":"address"}],"anonymous":false},{"type":"event","name":"ExecutionFailure","inputs":[{"name":"txHash","type":"bytes32","indexed":true,"internalType":"bytes32"},{"name":"payment","type":"uint256","indexed":false,"internalType":"uint256"}],"anonymous":false},{"type":"event","name":"ExecutionFromModuleFailure","inputs":[{"name":"module","type":"address","indexed":true,"internalType":"address"}],"anonymous":false},{"type":"event","name":"ExecutionFromModuleSuccess","inputs":[{"name":"module","type":"address","indexed":true,"internalType":"address"}],"anonymous":false},{"type":"event","name":"ExecutionSuccess","inputs":[{"name":"txHash","type":"bytes32","indexed":true,"internalType":"bytes32"},{"name":"payment","type":"uint256","indexed":false,"internalType":"uint256"}],"anonymous":false},{"type":"event","name":"RemovedOwner","inputs":[{"name":"owner","type":"address","indexed":true,"internalType":"address"}],"anonymous":false},{"type":"event","name":"SafeReceived","inputs":[{"name":"sender","type":"address","indexed":true,"internalType":"address"},{"name":"value","type":"uint256","indexed":false,"internalType":"uint256"}],"anonymous":false},{"type":"event","name":"SafeSetup","inputs":[{"name":"initiator","type":"address","indexed":true,"internalType":"address"},{"name":"owners","type":"address[]","indexed":false,"internalType":"address[]"},{"name":"threshold","type":"uint256","indexed":false,"internalType":"uint256"},{"name":"initializer","type":"address","indexed":false,"internalType":"address"},{"name":"fallbackHandler","type":"address","indexed":false,"internalType":"address"}],"anonymous":false},{"type":"event","name":"SignMsg","inputs":[{"name":"msgHash","type":"bytes32","indexed":true,"internalType":"bytes32"}],"anonymous":false}],"bytecode":{"object":"0x6080604052348015600f57600080fd5b5060016004556130d5806100246000396000f3fe6080604052600436106101d15760003560e01c8063affed0e0116100f7578063e19a9dd911610095578063f08a032311610064578063f08a0323146105f5578063f698da2514610615578063f8dc5dd91461062a578063ffa1ad741461064a5761020d565b8063e19a9dd914610580578063e318b52b146105a0578063e75235b8146105c0578063e86637db146105d55761020d565b8063cc2f8452116100d1578063cc2f8452146104f2578063d4d9bdcd14610520578063d8d11f7814610540578063e009cfde146105605761020d565b8063affed0e01461049c578063b4faba09146104b2578063b63e800d146104d25761020d565b80635624b25b1161016f5780636a7612021161013e5780636a7612021461040f5780637d83297414610422578063934f3a111461045a578063a0e67e2b1461047a5761020d565b80635624b25b146103755780635ae6bd37146103a2578063610b5925146103cf578063694e80c3146103ef5761020d565b80632f54bf6e116101ab5780632f54bf6e146102ea5780633408e4701461030a578063468721a7146103275780635229073f146103475761020d565b80630d582f131461027357806312fb68e0146102955780632d9ad53d146102b55761020d565b3661020d5760405134815233907f3d0ce9bfc3ed7d6862dbb28b2dea94561fe714a1b4d019aa8af39730d1ad7c3d9060200160405180910390a2005b34801561021957600080fd5b507f6c9a6c4a39284e37ed1cf53d337577d14212a4870fb976a4366c693b939918d580548061024457005b36600080373360601b365260008060143601600080855af190503d6000803e8061026d573d6000fd5b503d6000f35b34801561027f57600080fd5b5061029361028e36600461259c565b61067b565b005b3480156102a157600080fd5b506102936102b036600461266b565b6107d3565b3480156102c157600080fd5b506102d56102d03660046126e3565b610c72565b60405190151581526020015b60405180910390f35b3480156102f657600080fd5b506102d56103053660046126e3565b610cad565b34801561031657600080fd5b50465b6040519081526020016102e1565b34801561033357600080fd5b506102d561034236600461270f565b610ce5565b34801561035357600080fd5b5061036761036236600461270f565b610dbe565b6040516102e19291906127be565b34801561038157600080fd5b506103956103903660046127d9565b610df4565b6040516102e191906127fb565b3480156103ae57600080fd5b506103196103bd36600461280e565b60076020526000908152604090205481565b3480156103db57600080fd5b506102936103ea3660046126e3565b610e6f565b3480156103fb57600080fd5b5061029361040a36600461280e565b610fa8565b6102d561041d36600461286f565b611046565b34801561042e57600080fd5b5061031961043d36600461259c565b600860209081526000928352604080842090915290825290205481565b34801561046657600080fd5b50610293610475366004612948565b611391565b34801561048657600080fd5b5061048f6113db565b6040516102e191906129fd565b3480156104a857600080fd5b5061031960055481565b3480156104be57600080fd5b506102936104cd366004612a10565b6114cb565b3480156104de57600080fd5b506102936104ed366004612a5f565b6114ee565b3480156104fe57600080fd5b5061051261050d36600461259c565b6115f0565b6040516102e1929190612b59565b34801561052c57600080fd5b5061029361053b36600461280e565b6117ab565b34801561054c57600080fd5b5061031961055b366004612b83565b611840565b34801561056c57600080fd5b5061029361057b366004612c49565b61186d565b34801561058c57600080fd5b5061029361059b3660046126e3565b61198f565b3480156105ac57600080fd5b506102936105bb366004612c82565b611aa5565b3480156105cc57600080fd5b50600454610319565b3480156105e157600080fd5b506103956105f0366004612b83565b611c80565b34801561060157600080fd5b506102936106103660046126e3565b611d59565b34801561062157600080fd5b50610319611da1565b34801561063657600080fd5b50610293610645366004612ccd565b611df8565b34801561065657600080fd5b5061039560405180604001604052806005815260200164312e342e3160d81b81525081565b610683611f63565b6001600160a01b038216158015906106a557506001600160a01b038216600114155b80156106ba57506001600160a01b0382163014155b6106df5760405162461bcd60e51b81526004016106d690612d0e565b60405180910390fd5b6001600160a01b0382811660009081526002602052604090205416156107175760405162461bcd60e51b81526004016106d690612d2d565b60026020527fe90b7bceb6e7df5418fb78d8ee546e97c83a08bbccc01a0644d599ccd2a7c2e080546001600160a01b038481166000818152604081208054939094166001600160a01b03199384161790935560018352835490911617909155600380549161078483612d62565b90915550506040516001600160a01b038316907f9465fa0c962cc76958e6373a993326400c1c94f8be2fe3a952adfa7f60b2ea2690600090a280600454146107cf576107cf81610fa8565b5050565b6107de816041611f9c565b825110156108165760405162461bcd60e51b8152602060048201526005602482015264047533032360dc1b60448201526064016106d6565b6000808060008060005b86811015610c66576041818102890160208101516040820151919092015160ff16955090935091506000849003610a2e57885160208a01208a1461088e5760405162461bcd60e51b8152602060048201526005602482015264475330323760d81b60448201526064016106d6565b919350839161089e876041611f9c565b8210156108d55760405162461bcd60e51b8152602060048201526005602482015264475330323160d81b60448201526064016106d6565b87516108e2836020611fd8565b11156109185760405162461bcd60e51b815260206004820152600560248201526423a998191960d91b60448201526064016106d6565b60208289018101518951909161093b908390610935908790611fd8565b90611fd8565b11156109715760405162461bcd60e51b8152602060048201526005602482015264475330323360d81b60448201526064016106d6565b6040516320c13b0b60e01b8082528a8501602001916001600160a01b038916906320c13b0b906109a7908f908690600401612d7b565b602060405180830381865afa1580156109c4573d6000803e3d6000fd5b505050506040513d601f19601f820116820180604052508101906109e89190612da0565b6001600160e01b03191614610a275760405162461bcd60e51b815260206004820152600560248201526411d4cc0c8d60da1b60448201526064016106d6565b5050610bd5565b8360ff16600103610ab0579193508391336001600160a01b0384161480610a7757506001600160a01b03851660009081526008602090815260408083208d845290915290205415155b610aab5760405162461bcd60e51b8152602060048201526005602482015264475330323560d81b60448201526064016106d6565b610bd5565b601e8460ff161115610b75576040517f19457468657265756d205369676e6564204d6573736167653a0a3332000000006020820152603c81018b9052600190605c0160405160208183030381529060405280519060200120600486610b159190612dca565b6040805160008152602081018083529390935260ff90911690820152606081018590526080810184905260a0016020604051602081039080840390855afa158015610b64573d6000803e3d6000fd5b505050602060405103519450610bd5565b6040805160008152602081018083528c905260ff861691810191909152606081018490526080810183905260019060a0016020604051602081039080840390855afa158015610bc8573d6000803e3d6000fd5b5050506020604051035194505b856001600160a01b0316856001600160a01b0316118015610c0f57506001600160a01b038581166000908152600260205260409020541615155b8015610c2557506001600160a01b038516600114155b610c595760405162461bcd60e51b815260206004820152600560248201526423a998191b60d91b60448201526064016106d6565b9394508493600101610820565b50505050505050505050565b600060016001600160a01b03831614801590610ca757506001600160a01b038281166000908152600160205260409020541615155b92915050565b60006001600160a01b038216600114801590610ca75750506001600160a01b0390811660009081526002602052604090205416151590565b600033600114801590610d0f5750336000908152600160205260409020546001600160a01b031615155b610d435760405162461bcd60e51b815260206004820152600560248201526411d4cc4c0d60da1b60448201526064016106d6565b610d5285858585600019611ff4565b90508015610d8a5760405133907f6895c13664aa4f67288b25d7a21d7aaa34916e355fb9b6fae0a139a9085becb890600090a2610db6565b60405133907facd2c8702804128fdb0db2bb49f6d127dd0181c13fd45dbfe16de0930e2bd37590600090a25b949350505050565b60006060610dce86868686610ce5565b915060405160203d0181016040523d81523d6000602083013e8091505094509492505050565b60606000610e03836020612de3565b6001600160401b03811115610e1a57610e1a6125c8565b6040519080825280601f01601f191660200182016040528015610e44576020820181803683370190505b50905060005b83811015610e675784810154602080830284010152600101610e4a565b509392505050565b610e77611f63565b6001600160a01b03811615801590610e9957506001600160a01b038116600114155b610ecd5760405162461bcd60e51b8152602060048201526005602482015264475331303160d81b60448201526064016106d6565b6001600160a01b038181166000908152600160205260409020541615610f1d5760405162461bcd60e51b815260206004820152600560248201526423a998981960d91b60448201526064016106d6565b600160208190527fcc69885fda6bcc1a4ace058b4a62bf5e179ea78fd58a1ccd71c22cc9b688792f80546001600160a01b03848116600081815260408082208054949095166001600160a01b031994851617909455948552835490911681179092555190917fecdf3a3effea5783a3c4c2140e677577666428d44ed9d474a0b3a4c9943f844091a250565b610fb0611f63565b600354811115610fd25760405162461bcd60e51b81526004016106d690612dfa565b600181101561100b5760405162461bcd60e51b815260206004820152600560248201526423a999181960d91b60448201526064016106d6565b60048190556040518181527f610f7ff2b304ae8903c3de74c60c6ab1f7d6226b3f52c5161905bb5ad4039c939060200160405180910390a150565b60008060006110608e8e8e8e8e8e8e8e8e8e600554611c80565b60058054919250600061107283612d62565b909155505080516020820120915061108b828286611391565b5060006110b67f4a204f620c8c5ccdca3fd54d003badd85ba500436a431f0cbda4f558c93c34c85490565b90506001600160a01b0381161561113c57806001600160a01b03166375f0bb528f8f8f8f8f8f8f8f8f8f8f336040518d63ffffffff1660e01b81526004016111099c9b9a99989796959493929190612e51565b600060405180830381600087803b15801561112357600080fd5b505af1158015611137573d6000803e3d6000fd5b505050505b61116861114b8a6109c4612f1a565b603f6111588c6040612de3565b6111629190612f2d565b9061203b565b611174906101f4612f1a565b5a10156111ab5760405162461bcd60e51b8152602060048201526005602482015264047533031360dc1b60448201526064016106d6565b60005a905061121c8f8f8f8f8080601f016020809104026020016040519081016040528093929190818152602001838380828437600081840152601f19601f820116905080830192505050505050508e8c600014611209578e611ff4565b6109c45a6112179190612f4f565b611ff4565b93506112295a8290612052565b9050838061123657508915155b8061124057508715155b6112745760405162461bcd60e51b8152602060048201526005602482015264475330313360d81b60448201526064016106d6565b6000881561128c57611289828b8b8b8b61206d565b90505b84156112d157837f442e715f626346e8c54381002da614f62bee8d27386535b2521ec8540898556e826040516112c491815260200190565b60405180910390a261130c565b837f23428b18acfb3ea64b08dc0c1d296ea9c09702c09083ca5272e64d115b687d238260405161130391815260200190565b60405180910390a25b50506001600160a01b0381161561138057604051631264e26d60e31b81526004810183905283151560248201526001600160a01b03821690639327136890604401600060405180830381600087803b15801561136757600080fd5b505af115801561137b573d6000803e3d6000fd5b505050505b50509b9a5050505050505050505050565b600454806113c95760405162461bcd60e51b8152602060048201526005602482015264475330303160d81b60448201526064016106d6565b6113d5848484846107d3565b50505050565b606060006003546001600160401b038111156113f9576113f96125c8565b604051908082528060200260200182016040528015611422578160200160208202803683370190505b506001600090815260026020527fe90b7bceb6e7df5418fb78d8ee546e97c83a08bbccc01a0644d599ccd2a7c2e054919250906001600160a01b03165b6001600160a01b0381166001146114c3578083838151811061148357611483612f62565b6001600160a01b039283166020918202929092018101919091529181166000908152600290925260409091205416816114bb81612d62565b92505061145f565b509092915050565b600080825160208401855af480600052503d6020523d600060403e60403d016000fd5b61152c8a8a808060200260200160405190810160405280939291908181526020018383602002808284376000920191909152508c9250612173915050565b6001600160a01b03841615611544576115448461234f565b6115848787878080601f0160208091040260200160405190810160405280939291908181526020018383808284376000920191909152506123b392505050565b811561159b576115998260006001868561206d565b505b336001600160a01b03167f141df868a6331af528e38c83b7aa03edc19be66e37ae67f9285bf4f8e3c6a1a88b8b8b8b896040516115dc959493929190612f78565b60405180910390a250505050505050505050565b606060006001600160a01b03841660011480611610575061161084610c72565b6116445760405162461bcd60e51b8152602060048201526005602482015264475331303560d81b60448201526064016106d6565b6000831161167c5760405162461bcd60e51b815260206004820152600560248201526423a998981b60d91b60448201526064016106d6565b826001600160401b03811115611694576116946125c8565b6040519080825280602002602001820160405280156116bd578160200160208202803683370190505b506001600160a01b03808616600090815260016020526040812054929450911691505b6001600160a01b0382161580159061170257506001600160a01b038216600114155b801561170d57508381105b15611768578183828151811061172557611725612f62565b6001600160a01b0392831660209182029290920181019190915292811660009081526001909352604090922054909116908061176081612d62565b9150506116e0565b6001600160a01b0382166001146117a05782611785600183612f4f565b8151811061179557611795612f62565b602002602001015191505b808352509250929050565b336000908152600260205260409020546001600160a01b03166117f85760405162461bcd60e51b8152602060048201526005602482015264047533033360dc1b60448201526064016106d6565b336000818152600860209081526040808320858452909152808220600190555183917ff2a0eb156472d1440255b0d7c1e19cc07115d1051fe605b0dce69acfec884d9c91a350565b60006118558c8c8c8c8c8c8c8c8c8c8c611c80565b8051906020012090509b9a5050505050505050505050565b611875611f63565b6001600160a01b0381161580159061189757506001600160a01b038116600114155b6118cb5760405162461bcd60e51b8152602060048201526005602482015264475331303160d81b60448201526064016106d6565b6001600160a01b0382811660009081526001602052604090205481169082161461191f5760405162461bcd60e51b8152602060048201526005602482015264475331303360d81b60448201526064016106d6565b6001600160a01b03818116600081815260016020526040808220805487861684528284208054919096166001600160a01b0319918216179095558383528054909416909355915190917faab4fa2b463f581b2b32cb3b7e3b704b9ce37cc209b5fb4d77e593ace405427691a25050565b611997611f63565b6001600160a01b03811615611a49576040516301ffc9a760e01b815263736bd41d60e11b60048201526001600160a01b038216906301ffc9a790602401602060405180830381865afa1580156119f1573d6000803e3d6000fd5b505050506040513d601f19601f82011682018060405250810190611a159190612fe4565b611a495760405162461bcd60e51b8152602060048201526005602482015264047533330360dc1b60448201526064016106d6565b7f4a204f620c8c5ccdca3fd54d003badd85ba500436a431f0cbda4f558c93c34c88181556040516001600160a01b038316907f1151116914515bc0891ff9047a6cb32cf902546f83066499bcf8ba33d2353fa290600090a25050565b611aad611f63565b6001600160a01b03811615801590611acf57506001600160a01b038116600114155b8015611ae457506001600160a01b0381163014155b611b005760405162461bcd60e51b81526004016106d690612d0e565b6001600160a01b038181166000908152600260205260409020541615611b385760405162461bcd60e51b81526004016106d690612d2d565b6001600160a01b03821615801590611b5a57506001600160a01b038216600114155b611b765760405162461bcd60e51b81526004016106d690612d0e565b6001600160a01b03838116600090815260026020526040902054811690831614611bca5760405162461bcd60e51b8152602060048201526005602482015264475332303560d81b60448201526064016106d6565b6001600160a01b03828116600081815260026020526040808220805486861680855283852080549288166001600160a01b03199384161790559589168452828420805482169096179095558383528054909416909355915190917ff8d49fc529812e9a7c5c50e69c20f0dccc0db8fa95c98bc58cc9a4f1c1299eaf91a26040516001600160a01b038216907f9465fa0c962cc76958e6373a993326400c1c94f8be2fe3a952adfa7f60b2ea2690600090a2505050565b606060007fbb8310d486368db6bd6f849402fdd73ad53d316b5a4b2644ad6efe0f941286d860001b8d8d8d8d604051611cba929190613006565b604051908190038120611ce0949392918e908e908e908e908e908e908e90602001613016565b60408051601f1981840301815291905280516020909101209050601960f81b600160f81b611d0c611da1565b6040516001600160f81b031993841660208201529290911660218301526022820152604281018290526062016040516020818303038152906040529150509b9a5050505050505050505050565b611d61611f63565b611d6a8161234f565b6040516001600160a01b038216907f5ac6c46c93c8d0e53714ba3b53db3e7c046da994313d7ed0d192028bc7c228b090600090a250565b60007f47e79534a245952e8b16893a336b85a3d9ea9fa8c573f3d803afb92a794692184660408051602081019390935282015230606082015260800160405160208183030381529060405280519060200120905090565b611e00611f63565b806001600354611e109190612f4f565b1015611e2e5760405162461bcd60e51b81526004016106d690612dfa565b6001600160a01b03821615801590611e5057506001600160a01b038216600114155b611e6c5760405162461bcd60e51b81526004016106d690612d0e565b6001600160a01b03838116600090815260026020526040902054811690831614611ec05760405162461bcd60e51b8152602060048201526005602482015264475332303560d81b60448201526064016106d6565b6001600160a01b03828116600081815260026020526040808220805488861684529183208054929095166001600160a01b03199283161790945591815282549091169091556003805491611f1383613088565b90915550506040516001600160a01b038316907ff8d49fc529812e9a7c5c50e69c20f0dccc0db8fa95c98bc58cc9a4f1c1299eaf90600090a28060045414611f5e57611f5e81610fa8565b505050565b333014611f9a5760405162461bcd60e51b8152602060048201526005602482015264475330333160d81b60448201526064016106d6565b565b600082600003611fae57506000610ca7565b6000611fba8385612de3565b905082611fc78583612f2d565b14611fd157600080fd5b9392505050565b600080611fe58385612f1a565b905083811015611fd157600080fd5b6000600183600181111561200a5761200a612e19565b03612022576000808551602087018986f49050612032565b600080855160208701888a87f190505b95945050505050565b60008183101561204b5781611fd1565b5090919050565b60008282111561206157600080fd5b6000610db68385612f4f565b6000806001600160a01b038316156120855782612087565b325b90506001600160a01b03841661211a576120b93a86106120a7573a6120a9565b855b6120b38989611fd8565b90611f9c565b6040519092506001600160a01b0382169083156108fc029084906000818181858888f193505050506121155760405162461bcd60e51b8152602060048201526005602482015264475330313160d81b60448201526064016106d6565b612169565b612128856120b38989611fd8565b91506121358482846124e5565b6121695760405162461bcd60e51b815260206004820152600560248201526423a998189960d91b60448201526064016106d6565b5095945050505050565b600454156121ab5760405162461bcd60e51b8152602060048201526005602482015264047533230360dc1b60448201526064016106d6565b81518111156121cc5760405162461bcd60e51b81526004016106d690612dfa565b60018110156122055760405162461bcd60e51b815260206004820152600560248201526423a999181960d91b60448201526064016106d6565b600160005b835181101561231c57600084828151811061222757612227612f62565b6020026020010151905060006001600160a01b0316816001600160a01b03161415801561225e57506001600160a01b038116600114155b801561227357506001600160a01b0381163014155b80156122915750806001600160a01b0316836001600160a01b031614155b6122ad5760405162461bcd60e51b81526004016106d690612d0e565b6001600160a01b0381811660009081526002602052604090205416156122e55760405162461bcd60e51b81526004016106d690612d2d565b6001600160a01b03928316600090815260026020526040902080546001600160a01b0319169382169390931790925560010161220a565b506001600160a01b0316600090815260026020526040902080546001600160a01b03191660011790559051600355600455565b306001600160a01b0382160361238f5760405162461bcd60e51b8152602060048201526005602482015264047533430360dc1b60448201526064016106d6565b7f6c9a6c4a39284e37ed1cf53d337577d14212a4870fb976a4366c693b939918d555565b600160008190526020527fcc69885fda6bcc1a4ace058b4a62bf5e179ea78fd58a1ccd71c22cc9b688792f546001600160a01b03161561241d5760405162461bcd60e51b8152602060048201526005602482015264047533130360dc1b60448201526064016106d6565b6001600081905260208190527fcc69885fda6bcc1a4ace058b4a62bf5e179ea78fd58a1ccd71c22cc9b688792f80546001600160a01b03191690911790556001600160a01b038216156107cf57813b6124a05760405162461bcd60e51b815260206004820152600560248201526423a998181960d91b60448201526064016106d6565b6124b1826000836001600019611ff4565b6107cf5760405162461bcd60e51b8152602060048201526005602482015264047533030360dc1b60448201526064016106d6565b604080516001600160a01b03841660248201526044808201849052825180830390910181526064909101909152602080820180516001600160e01b031663a9059cbb60e01b1781528251600093929184919082896127105a03f13d8015612557576020811461255f576000935061256a565b81935061256a565b600051158215171593505b5050509392505050565b6001600160a01b038116811461258957600080fd5b50565b803561259781612574565b919050565b600080604083850312156125af57600080fd5b82356125ba81612574565b946020939093013593505050565b634e487b7160e01b600052604160045260246000fd5b600082601f8301126125ef57600080fd5b81356001600160401b03811115612608576126086125c8565b604051601f8201601f19908116603f011681016001600160401b0381118282101715612636576126366125c8565b60405281815283820160200185101561264e57600080fd5b816020850160208301376000918101602001919091529392505050565b6000806000806080858703121561268157600080fd5b8435935060208501356001600160401b0381111561269e57600080fd5b6126aa878288016125de565b93505060408501356001600160401b038111156126c657600080fd5b6126d2878288016125de565b949793965093946060013593505050565b6000602082840312156126f557600080fd5b8135611fd181612574565b80356002811061259757600080fd5b6000806000806080858703121561272557600080fd5b843561273081612574565b93506020850135925060408501356001600160401b0381111561275257600080fd5b61275e878288016125de565b92505061276d60608601612700565b905092959194509250565b6000815180845260005b8181101561279e57602081850181015186830182015201612782565b506000602082860101526020601f19601f83011685010191505092915050565b8215158152604060208201526000610db66040830184612778565b600080604083850312156127ec57600080fd5b50508035926020909101359150565b602081526000611fd16020830184612778565b60006020828403121561282057600080fd5b5035919050565b60008083601f84011261283957600080fd5b5081356001600160401b0381111561285057600080fd5b60208301915083602082850101111561286857600080fd5b9250929050565b60008060008060008060008060008060006101408c8e03121561289157600080fd5b61289a8c61258c565b9a5060208c0135995060408c01356001600160401b038111156128bc57600080fd5b6128c88e828f01612827565b909a5098506128db905060608d01612700565b965060808c0135955060a08c0135945060c08c013593506128fe60e08d0161258c565b925061290d6101008d0161258c565b91506101208c01356001600160401b0381111561292957600080fd5b6129358e828f016125de565b9150509295989b509295989b9093969950565b60008060006060848603121561295d57600080fd5b8335925060208401356001600160401b0381111561297a57600080fd5b612986868287016125de565b92505060408401356001600160401b038111156129a257600080fd5b6129ae868287016125de565b9150509250925092565b600081518084526020840193506020830160005b828110156129f35781516001600160a01b03168652602095860195909101906001016129cc565b5093949350505050565b602081526000611fd160208301846129b8565b60008060408385031215612a2357600080fd5b8235612a2e81612574565b915060208301356001600160401b03811115612a4957600080fd5b612a55858286016125de565b9150509250929050565b6000806000806000806000806000806101008b8d031215612a7f57600080fd5b8a356001600160401b03811115612a9557600080fd5b8b01601f81018d13612aa657600080fd5b80356001600160401b03811115612abc57600080fd5b8d60208260051b8401011115612ad157600080fd5b60209182019b5099508b01359750612aeb60408c0161258c565b965060608b01356001600160401b03811115612b0657600080fd5b612b128d828e01612827565b9097509550612b25905060808c0161258c565b9350612b3360a08c0161258c565b925060c08b01359150612b4860e08c0161258c565b90509295989b9194979a5092959850565b604081526000612b6c60408301856129b8565b905060018060a01b03831660208301529392505050565b60008060008060008060008060008060006101408c8e031215612ba557600080fd5b8b35612bb081612574565b9a5060208c0135995060408c01356001600160401b03811115612bd257600080fd5b612bde8e828f01612827565b909a509850612bf1905060608d01612700565b965060808c0135955060a08c0135945060c08c0135935060e08c0135612c1681612574565b92506101008c0135612c2781612574565b8092505060006101208d01359050809150509295989b509295989b9093969950565b60008060408385031215612c5c57600080fd5b8235612c6781612574565b91506020830135612c7781612574565b809150509250929050565b600080600060608486031215612c9757600080fd5b8335612ca281612574565b92506020840135612cb281612574565b91506040840135612cc281612574565b809150509250925092565b600080600060608486031215612ce257600080fd5b8335612ced81612574565b92506020840135612cfd81612574565b929592945050506040919091013590565b602080825260059082015264475332303360d81b604082015260600190565b60208082526005908201526411d4cc8c0d60da1b604082015260600190565b634e487b7160e01b600052601160045260246000fd5b600060018201612d7457612d74612d4c565b5060010190565b604081526000612d8e6040830185612778565b82810360208401526120328185612778565b600060208284031215612db257600080fd5b81516001600160e01b031981168114611fd157600080fd5b60ff8281168282160390811115610ca757610ca7612d4c565b8082028115828204841417610ca757610ca7612d4c565b602080825260059082015264475332303160d81b604082015260600190565b634e487b7160e01b600052602160045260246000fd5b60028110612e4d57634e487b7160e01b600052602160045260246000fd5b9052565b6001600160a01b038d168152602081018c90526101606040820181905281018a9052898b61018083013760006101808b830101526000601f19601f8c01168201612e9e606084018c612e2f565b8960808401528860a08401528760c0840152612ec560e08401886001600160a01b03169052565b6001600160a01b03861661010084015261018083820301610120840152612ef0610180820186612778565b915050612f096101408301846001600160a01b03169052565b9d9c50505050505050505050505050565b80820180821115610ca757610ca7612d4c565b600082612f4a57634e487b7160e01b600052601260045260246000fd5b500490565b81810381811115610ca757610ca7612d4c565b634e487b7160e01b600052603260045260246000fd5b6080808252810185905260008660a08301825b88811015612fbb578235612f9e81612574565b6001600160a01b0316825260209283019290910190600101612f8b565b50602084019690965250506001600160a01b039283166040820152911660609091015292915050565b600060208284031215612ff657600080fd5b81518015158114611fd157600080fd5b8183823760009101908152919050565b8b81526001600160a01b038b166020820152604081018a9052606081018990526101608101613048608083018a612e2f565b60a082019790975260c081019590955260e08501939093526001600160a01b03918216610100850152166101208301526101409091015295945050505050565b60008161309757613097612d4c565b50600019019056fea2646970667358221220bb719e5053c7f50c184a062403c515eb138bc3fc46ee6fa298ff50cc55ba493664736f6c634300081a0033","linkReferences":{}},"methodIdentifiers":{"VERSION()":"ffa1ad74","addOwnerWithThreshold(address,uint256)":"0d582f13","approveHash(bytes32)":"d4d9bdcd","approvedHashes(address,bytes32)":"7d832974","changeThreshold(uint256)":"694e80c3","checkNSignatures(bytes32,bytes,bytes,uint256)":"12fb68e0","checkSignatures(bytes32,bytes,bytes)":"934f3a11","disableModule(address,address)":"e009cfde","domainSeparator()":"f698da25","enableModule(address)":"610b5925","encodeTransactionData(address,uint256,bytes,uint8,uint256,uint256,uint256,address,address,uint256)":"e86637db","execTransaction(address,uint256,bytes,uint8,uint256,uint256,uint256,address,address,bytes)":"6a761202","execTransactionFromModule(address,uint256,bytes,uint8)":"468721a7","execTransactionFromModuleReturnData(address,uint256,bytes,uint8)":"5229073f","getChainId()":"3408e470","getModulesPaginated(address,uint256)":"cc2f8452","getOwners()":"a0e67e2b","getStorageAt(uint256,uint256)":"5624b25b","getThreshold()":"e75235b8","getTransactionHash(address,uint256,bytes,uint8,uint256,uint256,uint256,address,address,uint256)":"d8d11f78","isModuleEnabled(address)":"2d9ad53d","isOwner(address)":"2f54bf6e","nonce()":"affed0e0","removeOwner(address,address,uint256)":"f8dc5dd9","setFallbackHandler(address)":"f08a0323","setGuard(address)":"e19a9dd9","setup(address[],uint256,address,bytes,address,address,uint256,address)":"b63e800d","signedMessages(bytes32)":"5ae6bd37","simulateAndRevert(address,bytes)":"b4faba09","swapOwner(address,address,address)":"e318b52b"},"id":20}