{"abi":[{"type":"constructor","inputs":[],"stateMutability":"nonpayable"},{"type":"fallback","stateMutability":"nonpayable"},{"type":"receive","stateMutability":"payable"},{"type":"function","name":"VERSION","inputs":[],"outputs":[{"name":"","type":"string","internalType":"string"}],"stateMutability":"view"},{"type":"function","name":"addOwnerWithThreshold","inputs":[{"name":"owner","type":"address","internalType":"address"},{"name":"_threshold","type":"uint256","internalType":"uint256"}],"outputs":[],"stateMutability":"nonpayable"},{"type":"function","name":"approveHash","inputs":[{"name":"hashToApprove","type":"bytes32","internalType":"bytes32"}],"outputs":[],"stateMutability":"nonpayable"},{"type":"function","name":"approvedHashes","inputs":[{"name":"","type":"address","internalType":"address"},{"name":"","type":"bytes32","internalType":"bytes32"}],"outputs":[{"name":"","type":"uint256","internalType":"uint256"}],"stateMutability":"view"},{"type":"function","name":"changeThreshold","inputs":[{"name":"_threshold","type":"uint256","internalType":"uint256"}],"outputs":[],"stateMutability":"nonpayable"},{"type":"function","name":"checkNSignatures","inputs":[{"name":"dataHash","type":"bytes32","internalType":"bytes32"},{"name":"data","type":"bytes","internalType":"bytes"},{"name":"signatures","type":"bytes","internalType":"bytes"},{"name":"requiredSignatures","type":"uint256","internalType":"uint256"}],"outputs":[],"stateMutability":"view"},{"type":"function","name":"checkNSignatures","inputs":[{"name":"executor","type":"address","internalType":"address"},{"name":"dataHash","type":"bytes32","internalType":"bytes32"},{"name":"signatures","type":"bytes","internalType":"bytes"},{"name":"requiredSignatures","type":"uint256","internalType":"uint256"}],"outputs":[],"stateMutability":"view"},{"type":"function","name":"checkSignatures","inputs":[{"name":"dataHash","type":"bytes32","internalType":"bytes32"},{"name":"data","type":"bytes","internalType":"bytes"},{"name":"signatures","type":"bytes","internalType":"bytes"}],"outputs":[],"stateMutability":"view"},{"type":"function","name":"checkSignatures","inputs":[{"name":"executor","type":"address","internalType":"address"},{"name":"dataHash","type":"bytes32","internalType":"bytes32"},{"name":"signatures","type":"bytes","internalType":"bytes"}],"outputs":[],"stateMutability":"view"},{"type":"function","name":"disableModule","inputs":[{"name":"prevModule","type":"address","internalType":"address"},{"name":"module","type":"address","internalType":"address"}],"outputs":[],"stateMutability":"nonpayable"},{"type":"function","name":"domainSeparator","inputs":[],"outputs":[{"name":"","type":"bytes32","internalType":"bytes32"}],"stateMutability":"view"},{"type":"function","name":"enableModule","inputs":[{"name":"module","type":"address","internalType":"address"}],"outputs":[],"stateMutability":"nonpayable"},{"type":"function","name":"execTransaction","inputs":[{"name":"to","type":"address","internalType":"address"},{"name":"value","type":"uint256","internalType":"uint256"},{"name":"data","type":"bytes","internalType":"bytes"},{"name":"operation","type":"uint8","internalType":"enum Enum.Operation"},{"name":"safeTxGas","type":"uint256","internalType":"uint256"},{"name":"baseGas","type":"uint256","internalType":"uint256"},{"name":"gasPrice","type":"uint256","internalType":"uint256"},{"name":"gasToken","type":"address","internalType":"address"},{"name":"refundReceiver","type":"address","internalType":"address payable"},{"name":"signatures","type":"bytes","internalType":"bytes"}],"outputs":[{"name":"success","type":"bool","internalType":"bool"}],"stateMutability":"payable"},{"type":"function","name":"execTransactionFromModule","inputs":[{"name":"to","type":"address","internalType":"address"},{"name":"value","type":"uint256","internalType":"uint256"},{"name":"data","type":"bytes","internalType":"bytes"},{"name":"operation","type":"uint8","internalType":"enum Enum.Operation"}],"outputs":[{"name":"success","type":"bool","internalType":"bool"}],"stateMutability":"nonpayable"},{"type":"function","name":"execTransactionFromModuleReturnData","inputs":[{"name":"to","type":"address","internalType":"address"},{"name":"value","type":"uint256","internalType":"uint256"},{"name":"data","type":"bytes","internalType":"bytes"},{"name":"operation","type":"uint8","internalType":"enum Enum.Operation"}],"outputs":[{"name":"success","type":"bool","internalType":"bool"},{"name":"returnData","type":"bytes","internalType":"bytes"}],"stateMutability":"nonpayable"},{"type":"function","name":"getModulesPaginated","inputs":[{"name":"start","type":"address","internalType":"address"},{"name":"pageSize","type":"uint256","internalType":"uint256"}],"outputs":[{"name":"array","type":"address[]","internalType":"address[]"},{"name":"next","type":"address","internalType":"address"}],"stateMutability":"view"},{"type":"function","name":"getOwners","inputs":[],"outputs":[{"name":"","type":"address[]","internalType":"address[]"}],"stateMutability":"view"},{"type":"function","name":"getStorageAt","inputs":[{"name":"offset","type":"uint256","internalType":"uint256"},{"name":"length","type":"uint256","internalType":"uint256"}],"outputs":[{"name":"","type":"bytes","internalType":"bytes"}],"stateMutability":"view"},{"type":"function","name":"getThreshold","inputs":[],"outputs":[{"name":"","type":"uint256","internalType":"uint256"}],"stateMutability":"view"},{"type":"function","name":"getTransactionHash","inputs":[{"name":"to","type":"address","internalType":"address"},{"name":"value","type":"uint256","internalType":"uint256"},{"name":"data","type":"bytes","internalType":"bytes"},{"name":"operation","type":"uint8","internalType":"enum Enum.Operation"},{"name":"safeTxGas","type":"uint256","internalType":"uint256"},{"name":"baseGas","type":"uint256","internalType":"uint256"},{"name":"gasPrice","type":"uint256","internalType":"uint256"},{"name":"gasToken","type":"address","internalType":"address"},{"name":"refundReceiver","type":"address","internalType":"address"},{"name":"_nonce","type":"uint256","internalType":"uint256"}],"outputs":[{"name":"txHash","type":"bytes32","internalType":"bytes32"}],"stateMutability":"view"},{"type":"function","name":"isModuleEnabled","inputs":[{"name":"module","type":"address","internalType":"address"}],"outputs":[{"name":"","type":"bool","internalType":"bool"}],"stateMutability":"view"},{"type":"function","name":"isOwner","inputs":[{"name":"owner","type":"address","internalType":"address"}],"outputs":[{"name":"","type":"bool","internalType":"bool"}],"stateMutability":"view"},{"type":"function","name":"nonce","inputs":[],"outputs":[{"name":"","type":"uint256","internalType":"uint256"}],"stateMutability":"view"},{"type":"function","name":"removeOwner","inputs":[{"name":"prevOwner","type":"address","internalType":"address"},{"name":"owner","type":"address","internalType":"address"},{"name":"_threshold","type":"uint256","internalType":"uint256"}],"outputs":[],"stateMutability":"nonpayable"},{"type":"function","name":"setFallbackHandler","inputs":[{"name":"handler","type":"address","internalType":"address"}],"outputs":[],"stateMutability":"nonpayable"},{"type":"function","name":"setGuard","inputs":[{"name":"guard","type":"address","internalType":"address"}],"outputs":[],"stateMutability":"nonpayable"},{"type":"function","name":"setModuleGuard","inputs":[{"name":"moduleGuard","type":"address","internalType":"address"}],"outputs":[],"stateMutability":"nonpayable"},{"type":"function","name":"setup","inputs":[{"name":"_owners","type":"address[]","internalType":"address[]"},{"name":"_threshold","type":"uint256","internalType":"uint256"},{"name":"to","type":"address","internalType":"address"},{"name":"data","type":"bytes","internalType":"bytes"},{"name":"fallbackHandler","type":"address","internalType":"address"},{"name":"paymentToken","type":"address","internalType":"address"},{"name":"payment","type":"uint256","internalType":"uint256"},{"name":"paymentReceiver","type":"address","internalType":"address payable"}],"outputs":[],"stateMutability":"nonpayable"},{"type":"function","name":"signedMessages","inputs":[{"name":"","type":"bytes32","internalType":"bytes32"}],"outputs":[{"name":"","type":"uint256","internalType":"uint256"}],"stateMutability":"view"},{"type":"function","name":"simulateAndRevert","inputs":[{"name":"targetContract","type":"address","internalType":"address"},{"name":"calldataPayload","type":"bytes","internalType":"bytes"}],"outputs":[],"stateMutability":"nonpayable"},{"type":"function","name":"swapOwner","inputs":[{"name":"prevOwner","type":"address","internalType":"address"},{"name":"oldOwner","type":"address","internalType":"address"},{"name":"newOwner","type":"address","internalType":"address"}],"outputs":[],"stateMutability":"nonpayable"},{"type":"event","name":"AddedOwner","inputs":[{"name":"owner","type":"address","indexed":true,"internalType":"address"}],"anonymous":false},{"type":"event","name":"ApproveHash","inputs":[{"name":"approvedHash","type":"bytes32","indexed":true,"internalType":"bytes32"},{"name":"owner","type":"address","indexed":true,"internalType":"address"}],"anonymous":false},{"type":"event","name":"ChangedFallbackHandler","inputs":[{"name":"handler","type":"address","indexed":true,"internalType":"address"}],"anonymous":false},{"type":"event","name":"ChangedGuard","inputs":[{"name":"guard","type":"address","indexed":true,"internalType":"address"}],"anonymous":false},{"type":"event","name":"ChangedModuleGuard","inputs":[{"name":"moduleGuard","type":"address","indexed":true,"internalType":"address"}],"anonymous":false},{"type":"event","name":"ChangedThreshold","inputs":[{"name":"threshold","type":"uint256","indexed":false,"internalType":"uint256"}],"anonymous":false},{"type":"event","name":"DisabledModule","inputs":[{"name":"module","type":"address","indexed":true,"internalType":"address"}],"anonymous":false},{"type":"event","name":"EnabledModule","inputs":[{"name":"module","type":"address","indexed":true,"internalType":"address"}],"anonymous":false},{"type":"event","name":"ExecutionFailure","inputs":[{"name":"txHash","type":"bytes32","indexed":true,"internalType":"bytes32"},{"name":"payment","type":"uint256","indexed":false,"internalType":"uint256"}],"anonymous":false},{"type":"event","name":"ExecutionFromModuleFailure","inputs":[{"name":"module","type":"address","indexed":true,"internalType":"address"}],"anonymous":false},{"type":"event","name":"ExecutionFromModuleSuccess","inputs":[{"name":"module","type":"address","indexed":true,"internalType":"address"}],"anonymous":false},{"type":"event","name":"ExecutionSuccess","inputs":[{"name":"txHash","type":"bytes32","indexed":true,"internalType":"bytes32"},{"name":"payment","type":"uint256","indexed":false,"internalType":"uint256"}],"anonymous":false},{"type":"event","name":"RemovedOwner","inputs":[{"name":"owner","type":"address","indexed":true,"internalType":"address"}],"anonymous":false},{"type":"event","name":"SafeReceived","inputs":[{"name":"sender","type":"address","indexed":true,"internalType":"address"},{"name":"value","type":"uint256","indexed":false,"internalType":"uint256"}],"anonymous":false},{"type":"event","name":"SafeSetup","inputs":[{"name":"initiator","type":"address","indexed":true,"internalType":"address"},{"name":"owners","type":"address[]","indexed":false,"internalType":"address[]"},{"name":"threshold","type":"uint256","indexed":false,"internalType":"uint256"},{"name":"initializer","type":"address","indexed":false,"internalType":"address"},{"name":"fallbackHandler","type":"address","indexed":false,"internalType":"address"}],"anonymous":false},{"type":"event","name":"SignMsg","inputs":[{"name":"msgHash","type":"bytes32","indexed":true,"internalType":"bytes32"}],"anonymous":false}],"bytecode":{"object":"0x60808060405234601a576001600455612a9390816100208239f35b600080fdfe608060405260043610156100a4575b36156100765734610071577f6c9a6c4a39284e37ed1cf53d337577d14212a4870fb976a4366c693b939918d554801561006f5760008060405192368285373360601b36850152838260143601925af13d6000833e1561006b573d90f35b3d90fd5b005b600080fd5b6040513481527f3d0ce9bfc3ed7d6862dbb28b2dea94561fe714a1b4d019aa8af39730d1ad7c3d60203392a2005b6000803560e01c80630d582f1314611ac057806312fb68e014611a5e5780631fcac7f314611a145780632d9ad53d146119f05780632f54bf6e14611994578063468721a71461196b5780635229073f146119015780635624b25b146118815780635ae6bd3714611857578063610b592514611760578063694e80c3146117435780636a761202146111cb5780637d83297414611188578063934f3a111461112a578063a0e67e2b14611099578063affed0e01461107b578063b4faba0914611016578063b63e800d14610c22578063cc2f845214610a65578063d4d9bdcd146109c5578063d8d11f7814610949578063e009cfde1461083f578063e068df3714610737578063e19a9dd914610614578063e318b52b146104ae578063e75235b814610490578063f08a032314610435578063f698da2514610412578063f855438b146103c4578063f8dc5dd9146102545763ffa1ad7414610205575061000e565b346102515780600319360112610251575061024d604051610227604082611cb3565b60058152640312e352e360dc1b6020820152604051918291602083526020830190611dac565b0390f35b80fd5b50346102515760603660031901126102515761026e611c03565b610276611c5c565b906044359161028361249b565b60035480156103b0578390600019018060035510610397576001600160a01b031690811580156103a6575b6103a1576001600160a01b039081168085526002602052604085205490911682900361039c578184526002602081815260408087205493875282825280872080546001600160a01b039095166001600160a01b03199586161790558487529190528420805490911690557ff8d49fc529812e9a7c5c50e69c20f0dccc0db8fa95c98bc58cc9a4f1c1299eaf8380a28060045403610349575080f35b61035161249b565b6003548111610397578015610392576020817f610f7ff2b304ae8903c3de74c60c6ab1f7d6226b3f52c5161905bb5ad4039c9392600455604051908152a180f35b612558565b61252b565b6125b2565b6124d1565b50600182146102ae565b634e487b7160e01b85526011600452602485fd5b5034610251576060366003190112610251576103de611c03565b604435906001600160401b03821161040e5761040161040b923690600401611d3c565b9060243590612458565b80f35b8280fd5b5034610251578060031936011261025157602061042d61240c565b604051908152f35b50346102515760203660031901126102515761044f611c03565b61045761249b565b610460816129fc565b6001600160a01b03167f5ac6c46c93c8d0e53714ba3b53db3e7c046da994313d7ed0d192028bc7c228b08280a280f35b50346102515780600319360112610251576020600454604051908152f35b5034610251576060366003190112610251576104c8611c03565b6104d0611c5c565b906104d9611c2f565b6104e161249b565b6001600160a01b0316918215801561060a575b8015610601575b6103a157828452600260205260408420546001600160a01b03166105fc576001600160a01b031690811580156105f2575b6103a1576001600160a01b039081168085526002602052604085205490911682900361039c578184526002602081815260408087205486885283835281882080546001600160a01b039092166001600160a01b031992831617905593875282825280872080548516871790558487529190528420805490911690557ff8d49fc529812e9a7c5c50e69c20f0dccc0db8fa95c98bc58cc9a4f1c1299eaf8380a27f9465fa0c962cc76958e6373a993326400c1c94f8be2fe3a952adfa7f60b2ea268280a280f35b506001821461052c565b6124fe565b503083146104fb565b50600183146104f4565b50346102515760203660031901126102515761062e611c03565b61063661249b565b6001600160a01b03811690811515806106c4575b610697577f4a204f620c8c5ccdca3fd54d003badd85ba500436a431f0cbda4f558c93c34c8557f1151116914515bc0891ff9047a6cb32cf902546f83066499bcf8ba33d2353fa28280a280f35b60405162461bcd60e51b8152602060048201526005602482015264047533330360dc1b6044820152606490fd5b506040516301ffc9a760e01b815263736bd41d60e11b6004820152602081602481865afa90811561072c5784916106fd575b501561064a565b61071f915060203d602011610725575b6107178183611cb3565b8101906123f4565b386106f6565b503d61070d565b6040513d86823e3d90fd5b503461025157602036600319011261025157610751611c03565b61075961249b565b6001600160a01b03811690811515806107e7575b6107ba577fb104e0b93118902c651344349b610029d694cfdec91c589c91ebafbcd0289947557fcd1966d6be16bc0c030cc741a06c6e0efaf8d00de2c8b6a9e11827e125de8bb88280a280f35b60405162461bcd60e51b8152602060048201526005602482015264475333303160d81b6044820152606490fd5b506040516301ffc9a760e01b8152630b0803db60e31b6004820152602081602481865afa90811561072c578491610820575b501561076d565b610839915060203d602011610725576107178183611cb3565b38610819565b503461025157604036600319011261025157610859611c03565b610861611c5c565b61086961249b565b6001600160a01b0316908115801561093f575b61093a576001600160a01b039081168084526001602052604084205490911682900361090d578183526001602081815260408086205493865282825280862080546001600160a01b039095166001600160a01b03199586161790558486529190528320805490911690557faab4fa2b463f581b2b32cb3b7e3b704b9ce37cc209b5fb4d77e593ace40542768280a280f35b60405162461bcd60e51b8152602060048201526005602482015264475331303360d81b6044820152606490fd5b612585565b506001821461087c565b50346102515761014036600319011261025157610964611c03565b6044356001600160401b03811161040e57610983903690600401611c86565b60643593600285101561025157602061042d868686866109a1611c19565b916109aa611c45565b93610124359560c4359360a435936084359360243590612365565b50346102515760203660031901126102515733815260026020526040812054600435906001600160a01b031615610a38573382526008602052604082208183526020526001604083205533907ff2a0eb156472d1440255b0d7c1e19cc07115d1051fe605b0dce69acfec884d9c8380a380f35b60405162461bcd60e51b8152602060048201526005602482015264047533033360dc1b6044820152606490fd5b503461025157604036600319011261025157610a7f611c03565b6001600160a01b038116906024359060018314159081610c11575b50610be4578015610bb757610aae81612309565b918352600160205260408320548392906001600160a01b03165b6001600160a01b0381169081151580610bac575b80610ba3575b15610b19575080610af3858461233b565b528452600160205260408420546001600160a01b031692610b1390611e2a565b92610ac8565b9193919250506000196001600160a01b03831601610b61575b610b4d93508252604051928392604084526040840190611ded565b6001600160a01b0390911660208301520390f35b90506000198101818111610b8f57610b4d93506001600160a01b0390610b87908461233b565b511690610b32565b634e487b7160e01b84526011600452602484fd5b50838510610ae2565b506001821415610adc565b60405162461bcd60e51b815260206004820152600560248201526423a998981b60d91b6044820152606490fd5b60405162461bcd60e51b8152602060048201526005602482015264475331303560d81b6044820152606490fd5b610c1b915061225d565b1538610a9a565b503461025157610100366003190112610251576004356001600160401b0381116110125736602382011215611012578060040135906001600160401b03821161040e576024808201918360051b010136811161100e5760243591610c84611c2f565b906064356001600160401b03811161100a57610ca4903690600401611c86565b6084356001600160a01b038116949291908581036110065760a435956001600160a01b0387168703611002578a95979860c43599610ce0611c19565b998c604051998160808c0160808d525260a08b019183915b818110610fdc575050508360208b01527f141df868a6331af528e38c83b7aa03edc19be66e37ae67f9285bf4f8e3c6a1a860018060a01b038a169a8b60408201528660608201528033930390a2610d4e8d6122f2565b9c610d5c6040519e8f611cb3565b8d5260208d015b828210610fc457505050600454610f97578a5181116103975780156103925760018b519b8d905b8d8210610eec5750509a610dd6969798999a9b60018060a01b03168d52600260205260408d2060016001600160601b0360a01b825416179055600355600455610edd575b503691611d05565b600180885260205260408720549092906001600160a01b0316610eb0576001875260016020526040872060016001600160601b0360a01b825416179055610e34575b505082610e23578380f35b610e2c926128d3565b503880808380f35b803b15610e83578591829160208251920190600019f415610e56573880610e18565b60405162461bcd60e51b8152602060048201526005602482015264047533030360dc1b6044820152606490fd5b60405162461bcd60e51b815260206004820152600560248201526423a998181960d91b6044820152606490fd5b60405162461bcd60e51b8152602060048201526005602482015264047533130360dc1b6044820152606490fd5b610ee6906129fc565b38610dce565b6001600160a01b03610efe838361233b565b51169283158015610f8d575b8015610f84575b8015610f72575b6103a1578f8481526002602052604060018060a01b03912054166105fc578f938f94604090600193848060a01b03168152600260205220828060a01b0382166001600160601b0360a01b8254161790559201919250610d8a565b506001600160a01b0381168414610f18565b50308414610f11565b5060018414610f0a565b60405162461bcd60e51b8152602060048201526005602482015264047533230360dc1b6044820152606490fd5b60208091610fd184611c72565b815201910190610d63565b909192602080600192838060a01b03610ff488611c72565b168152019401929101610cf8565b8a80fd5b8980fd5b8680fd5b8380fd5b5080fd5b50346102515760403660031901126102515780611031611c03565b602435906001600160401b0382116110775761105283923690600401611d3c565b90602082519201905af4906040519182523d60208301523d90604083013e60403d0190fd5b5050fd5b50346102515780600319360112610251576020600554604051908152f35b50346102515780600319360112610251576110b5600354612309565b600182526002602052604082205490919081906001600160a01b03165b6001600160a01b03166001811461111457806110ee848661233b565b528152600260205260408120546001600160a01b03169161110e90611e2a565b916110d2565b6040516020808252819061024d90820187611ded565b5034610251576060366003190112610251576024356001600160401b0381116110125761115b903690600401611c86565b50506044356001600160401b0381116110125761117f61040b913690600401611d3c565b60043533612458565b5034610251576040366003190112610251576020906040906001600160a01b036111b0611c03565b16815260088352818120602435825283522054604051908152f35b50610140366003190112610251576111e1611c03565b6044356001600160401b03811161040e57611200903690600401611c86565b906002606435101561100e57611214611c19565b9261121d611c45565b91610124356001600160401b03811161100a5761123e903690600401611d3c565b9161127360055461124e81611e2a565b6005556001600160a01b0386168860c43560a4356084356064358c8a6024358b612365565b9461127f848733612458565b7f4a204f620c8c5ccdca3fd54d003badd85ba500436a431f0cbda4f558c93c34c8546001600160a01b03169384611652575b505a6109c4608435016084351161163e576109c460843501603f60843560061b04101560001461163157603f60843560061b04905b6101f482018092116115df5710611604575a928860c4356115f357505a806109c3198101116115df57916113268a949285946109c31901925b3691611d05565b916064356001036115cc5760208351930191f4925b5a8281116115c85782039182116115b45783159586806115aa575b806115a0575b61159557859288809360c43561144b575b505050508360001461141b5760207f442e715f626346e8c54381002da614f62bee8d27386535b2521ec8540898556e91604051908152a25b806113b7575b60208460405190158152f35b908185923b1561040e57604051631264e26d60e31b8152600481019490945290151560248401528290604490829084905af18015611410576113fb575b80806113ab565b611406838092611cb3565b61101257816113f4565b6040513d85823e3d90fd5b60207f23428b18acfb3ea64b08dc0c1d296ea9c09702c09083ca5272e64d115b687d2391604051908152a26113a5565b929450909250906001600160a01b03811661158f575032925b6001600160a01b0381166114fb57509061148060a435826122e5565b9081106110125781806114a381933a60c435106000146114f45760c43590612668565b9485906001600160a01b03165af13d156114ef573d6114c181611cea565b906114cf6040519283611cb3565b81528760203d92013e5b156114ea5783905b3880888161136d565b61260c565b6114d9565b3a90612668565b61150760a435846122e5565b9283106110125761151d60209360c43590612668565b93826040518581019263a9059cbb60e01b845260018060a01b0316602482015286604482015260448152611552606482611cb3565b519261270f195a01f13d80156115895760201461157d5750855b156115785783906114e1565b6125df565b8651159015171561156c565b5061156c565b92611464565b6040513d89823e3d90fd5b5060c4351561135c565b5060843515611356565b634e487b7160e01b87526011600452602487fd5b8780fd5b906020835193019160243591f19261133b565b634e487b7160e01b8a52601160045260248afd5b92909161132684936084359261131f565b60405162461bcd60e51b8152602060048201526005602482015264047533031360dc1b6044820152606490fd5b6109c460843501906112e6565b634e487b7160e01b89526011600452602489fd5b88853b1561025157604051633af85da960e11b81526001600160a01b0385166004820152602480359082015261016060448201526101648101849052918290819061170c9086896101848501378461018488850101526101848d601f19601f8a01168501906116c660648701606435612294565b608480359087015260a480359087015260c48035908701526001600160a01b0390811660e48701528d166101048601528481038201600319016101248601520190611dac565b33610144830152038183895af1801561173857156112b1578861173191999299611cb3565b96386112b1565b6040513d8b823e3d90fd5b50346102515760203660031901126102515760043561035161249b565b50346102515760203660031901126102515761177a611c03565b61178261249b565b6001600160a01b03168015801561184d575b61093a57808252600160205260408220546001600160a01b0316611820576001808352602081815260408085205484865283835281862080546001600160a01b039092166001600160a01b03199283161790558386529290915283208054909116821790557fecdf3a3effea5783a3c4c2140e677577666428d44ed9d474a0b3a4c9943f84408280a280f35b60405162461bcd60e51b815260206004820152600560248201526423a998981960d91b6044820152606490fd5b5060018114611794565b50346102515760203660031901126102515760406020916004358152600783522054604051908152f35b503461025157604036600319011261025157600435602435908160051b926118a884611cea565b936118b66040519586611cb3565b8085526118c5601f1991611cea565b013660208601375b8281106118ea576040516020808252819061024d90820187611dac565b8060019183015460208260051b87010152016118cd565b50346102515761192e61194d61191636611d5a565b906119268282858799969961268d565b9690946127d4565b9283916040519560203d8801016040523d87523d90602088013e612808565b61024d60405192839215158352604060208401526040830190611dac565b503461025157602061198261198a61191636611d5a565b928391612808565b6040519015158152f35b5034610251576020366003190112610251576020906001600160a01b036119b9611c03565b1690600182149182156119d2575b505060405190158152f35b81526002835260409020546001600160a01b031615905038806119c7565b503461025157602036600319011261025157602061198a611a0f611c03565b61225d565b503461025157608036600319011261025157611a2e611c03565b604435906001600160401b03821161040e57611a5161040b923690600401611d3c565b6064359160243590611e4f565b5034610251576080366003190112610251576024356001600160401b03811161101257611a8f903690600401611c86565b50506044356001600160401b03811161101257611ab361040b913690600401611d3c565b6064359060043533611e4f565b503461025157604036600319011261025157611ada611c03565b60243590611ae661249b565b6001600160a01b031680158015611bf9575b8015611bf0575b6103a157808352600260205260408320546001600160a01b03166105fc5760018084526002602081815260408087205485885283835281882080546001600160a01b039092166001600160a01b03199283161790559387529190528420805490911682179055600354611b7190611e2a565b90816003557f9465fa0c962cc76958e6373a993326400c1c94f8be2fe3a952adfa7f60b2ea268480a28160045403611ba7578280f35b611baf61249b565b8111610397578015610392576020817f610f7ff2b304ae8903c3de74c60c6ab1f7d6226b3f52c5161905bb5ad4039c9392600455604051908152a138808280f35b50308114611aff565b5060018114611af8565b600435906001600160a01b038216820361007157565b60e435906001600160a01b038216820361007157565b604435906001600160a01b038216820361007157565b61010435906001600160a01b038216820361007157565b602435906001600160a01b038216820361007157565b35906001600160a01b038216820361007157565b9181601f84011215610071578235916001600160401b038311610071576020838186019501011161007157565b90601f801991011681019081106001600160401b03821117611cd457604052565b634e487b7160e01b600052604160045260246000fd5b6001600160401b038111611cd457601f01601f191660200190565b929192611d1182611cea565b91611d1f6040519384611cb3565b829481845281830111610071578281602093846000960137010152565b9080601f8301121561007157816020611d5793359101611d05565b90565b6080600319820112610071576004356001600160a01b0381168103610071579160243591604435906001600160401b03821161007157611d9c91600401611d3c565b9060643560028110156100715790565b919082519283825260005b848110611dd8575050826000602080949584010152601f8019910116010190565b80602080928401015182828601015201611db7565b906020808351928381520192019060005b818110611e0b5750505090565b82516001600160a01b0316845260209384019390920191600101611dfe565b6000198114611e395760010190565b634e487b7160e01b600052601160045260246000fd5b918051611e5b85612639565b1161223057600091825b858410611e7457505050505050565b8360410283019060208201516060604084015193015160001a80156000146120de57506001600160a01b031691611eaa88612639565b81106120b157611eb9816122d7565b8181106100715785511061208457602081860101908151611ed9826122d7565b91821061007157611eea90826122e5565b90811061007157855110612057576020611f269160405180938192630b135d3f60e11b8352886004840152604060248401526044830190611dac565b0381865afa90811561204b57600091612009575b506001600160e01b0319166374eca2c160e11b01611fdc575b6001600160a01b0390811690821690811180159190611fbc575b8115611fb1575b50611f8457600190930192611e65565b60405162461bcd60e51b815260206004820152600560248201526423a998191b60d91b6044820152606490fd5b600191501438611f74565b6000818152600260205260409020546001600160a01b0316159150611f6d565b60405162461bcd60e51b815260206004820152600560248201526411d4cc0c8d60da1b6044820152606490fd5b6020813d8211612043575b8161202160209383611cb3565b810103126110125751906001600160e01b031982168203610251575038611f3a565b3d9150612014565b6040513d6000823e3d90fd5b60405162461bcd60e51b8152602060048201526005602482015264475330323360d81b6044820152606490fd5b60405162461bcd60e51b815260206004820152600560248201526423a998191960d91b6044820152606490fd5b60405162461bcd60e51b8152602060048201526005602482015264475330323160d81b6044820152606490fd5b9091926001821460001461215a5750506001600160a01b039081169190861682141580612138575b15611f535760405162461bcd60e51b8152602060048201526005602482015264475330323560d81b6044820152606490fd5b5081600052600860205260406000208360005260205260406000205415612106565b9091601e8311156122005760405160208101907f19457468657265756d205369676e6564204d6573736167653a0a333200000000825286603c820152603c81526121a5605c82611cb3565b519020926003198101908111611e39576121e960009360ff936020966040519586951690859094939260ff6060936080840197845216602083015260408201520152565b838052039060015afa1561204b5760005190611f53565b6020926121e960009360405193849389859094939260ff6060936080840197845216602083015260408201520152565b60405162461bcd60e51b8152602060048201526005602482015264047533032360dc1b6044820152606490fd5b6001600160a01b031660018114159081612275575090565b6000908152600160205260409020546001600160a01b03161515919050565b9060028210156122a15752565b634e487b7160e01b600052602160045260246000fd5b81156122c1570490565b634e487b7160e01b600052601260045260246000fd5b9060208201809211611e3957565b91908201809211611e3957565b6001600160401b038111611cd45760051b60200190565b90612313826122f2565b6123206040519182611cb3565b8281528092612331601f19916122f2565b0190602036910137565b805182101561234f5760209160051b010190565b634e487b7160e01b600052603260045260246000fd5b95601e999397919560429b9599939961237c61240c565b99806040519c8d378b207fbb8310d486368db6bd6f849402fdd73ad53d316b5a4b2644ad6efe0f941286d88c5260208c01998a5260408c0198895260608c015260808b015260a08a015260c089015260e088015261010087015261012086015261014085015261016084209052611901835252012090565b90816020910312610071575180151581036100715790565b60405160208101907f47e79534a245952e8b16893a336b85a3d9ea9fa8c573f3d803afb92a79469218825246604082015230606082015260608152612452608082611cb3565b51902090565b9160045491821561246e5761246c93611e4f565b565b60405162461bcd60e51b8152602060048201526005602482015264475330303160d81b6044820152606490fd5b3033036124a457565b60405162461bcd60e51b8152602060048201526005602482015264475330333160d81b6044820152606490fd5b60405162461bcd60e51b8152602060048201526005602482015264475332303360d81b6044820152606490fd5b60405162461bcd60e51b815260206004820152600560248201526411d4cc8c0d60da1b6044820152606490fd5b60405162461bcd60e51b8152602060048201526005602482015264475332303160d81b6044820152606490fd5b60405162461bcd60e51b815260206004820152600560248201526423a999181960d91b6044820152606490fd5b60405162461bcd60e51b8152602060048201526005602482015264475331303160d81b6044820152606490fd5b60405162461bcd60e51b8152602060048201526005602482015264475332303560d81b6044820152606490fd5b60405162461bcd60e51b815260206004820152600560248201526423a998189960d91b6044820152606490fd5b60405162461bcd60e51b8152602060048201526005602482015264475330313160d81b6044820152606490fd5b8015612662576041810290808204604103611e395761265a604191836122b7565b036100715790565b50600090565b90811561268657808202918083048203611e395761265a90836122b7565b5050600090565b7fb104e0b93118902c651344349b610029d694cfdec91c589c91ebafbcd02899475494909360009391923360011480156127b4575b612787576001600160a01b03871691826126e0575b50505050909150565b6127269550602094966000916127316040519889978896879563394614b960e11b875260018060a01b03166004870152602486015260a0604486015260a4850190611dac565b916064840190612294565b33608483015203925af190811561204b57600091612755575b5081388080806126d7565b90506020813d60201161277f575b8161277060209383611cb3565b8101031261007157513861274a565b3d9150612763565b60405162461bcd60e51b815260206004820152600560248201526411d4cc4c0d60da1b6044820152606490fd5b50336000908152600160205260409020546001600160a01b0316156126c2565b9291909260028310156122a15760009384936001036127fb5750602082519201908319f490565b602083519301918419f190565b6000916001600160a01b039091169081612875575b50509060001461284e577f6895c13664aa4f67288b25d7a21d7aaa34916e355fb9b6fae0a139a9085becb8339180a2565b7facd2c8702804128fdb0db2bb49f6d127dd0181c13fd45dbfe16de0930e2bd375339180a2565b813b1561040e576040516315661bd560e11b8152600481019190915283151560248201529082908290604490829084905af180156128c8576128b8575b8061281d565b816128c291611cb3565b386128b2565b6040513d84823e3d90fd5b9092916000906001600160a01b0381166129f6575032935b6001600160a01b038116612977575080612963575061291f9060008080809481943a6001106000146114f457600190612668565b9687906001600160a01b03165af1903d1561295d573d9061293f82611cea565b9161294d6040519384611cb3565b825260203d92013e5b156114ea57565b50612956565b634e487b7160e01b81526011600452602490fd5b6000926020925083919061298d90600190612668565b95826040518581019263a9059cbb60e01b845260018060a01b03166024820152886044820152604481526129c2606482611cb3565b519261270f195a01f13d80156129ee576020146129e257505b1561157857565b905115901517156129db565b5090506129db565b936128eb565b6001600160a01b0381163014612a30577f6c9a6c4a39284e37ed1cf53d337577d14212a4870fb976a4366c693b939918d555565b60405162461bcd60e51b8152602060048201526005602482015264047533430360dc1b6044820152606490fdfea2646970667358221220da89b216d46a1d162e0eb774b34c266468e4231e180cd251226ae30d90039f1664736f6c634300081a0033","linkReferences":{}},"methodIdentifiers":{"VERSION()":"ffa1ad74","addOwnerWithThreshold(address,uint256)":"0d582f13","approveHash(bytes32)":"d4d9bdcd","approvedHashes(address,bytes32)":"7d832974","changeThreshold(uint256)":"694e80c3","checkNSignatures(address,bytes32,bytes,uint256)":"1fcac7f3","checkNSignatures(bytes32,bytes,bytes,uint256)":"12fb68e0","checkSignatures(address,bytes32,bytes)":"f855438b","checkSignatures(bytes32,bytes,bytes)":"934f3a11","disableModule(address,address)":"e009cfde","domainSeparator()":"f698da25","enableModule(address)":"610b5925","execTransaction(address,uint256,bytes,uint8,uint256,uint256,uint256,address,address,bytes)":"6a761202","execTransactionFromModule(address,uint256,bytes,uint8)":"468721a7","execTransactionFromModuleReturnData(address,uint256,bytes,uint8)":"5229073f","getModulesPaginated(address,uint256)":"cc2f8452","getOwners()":"a0e67e2b","getStorageAt(uint256,uint256)":"5624b25b","getThreshold()":"e75235b8","getTransactionHash(address,uint256,bytes,uint8,uint256,uint256,uint256,address,address,uint256)":"d8d11f78","isModuleEnabled(address)":"2d9ad53d","isOwner(address)":"2f54bf6e","nonce()":"affed0e0","removeOwner(address,address,uint256)":"f8dc5dd9","setFallbackHandler(address)":"f08a0323","setGuard(address)":"e19a9dd9","setModuleGuard(address)":"e068df37","setup(address[],uint256,address,bytes,address,address,uint256,address)":"b63e800d","signedMessages(bytes32)":"5ae6bd37","simulateAndRevert(address,bytes)":"b4faba09","swapOwner(address,address,address)":"e318b52b"},"id":21}