{"abi":[{"type":"function","name":"createChainSpecificProxyWithNonce","inputs":[{"name":"_singleton","type":"address","internalType":"address"},{"name":"initializer","type":"bytes","internalType":"bytes"},{"name":"saltNonce","type":"uint256","internalType":"uint256"}],"outputs":[{"name":"proxy","type":"address","internalType":"contract SafeProxy"}],"stateMutability":"nonpayable"},{"type":"function","name":"createChainSpecificProxyWithNonceL2","inputs":[{"name":"_singleton","type":"address","internalType":"address"},{"name":"initializer","type":"bytes","internalType":"bytes"},{"name":"saltNonce","type":"uint256","internalType":"uint256"}],"outputs":[{"name":"proxy","type":"address","internalType":"contract SafeProxy"}],"stateMutability":"nonpayable"},{"type":"function","name":"createProxyWithNonce","inputs":[{"name":"_singleton","type":"address","internalType":"address"},{"name":"initializer","type":"bytes","internalType":"bytes"},{"name":"saltNonce","type":"uint256","internalType":"uint256"}],"outputs":[{"name":"proxy","type":"address","internalType":"contract SafeProxy"}],"stateMutability":"nonpayable"},{"type":"function","name":"createProxyWithNonceL2","inputs":[{"name":"_singleton","type":"address","internalType":"address"},{"name":"initializer","type":"bytes","internalType":"bytes"},{"name":"saltNonce","type":"uint256","internalType":"uint256"}],"outputs":[{"name":"proxy","type":"address","internalType":"contract SafeProxy"}],"stateMutability":"nonpayable"},{"type":"function","name":"getChainId","inputs":[],"outputs":[{"name":"","type":"uint256","internalType":"uint256"}],"stateMutability":"view"},{"type":"function","name":"proxyCreationCode","inputs":[],"outputs":[{"name":"","type":"bytes","internalType":"bytes"}],"stateMutability":"pure"},{"type":"event","name":"ChainSpecificProxyCreationL2","inputs":[{"name":"proxy","type":"address","indexed":true,"internalType":"contract SafeProxy"},{"name":"singleton","type":"address","indexed":false,"internalType":"address"},{"name":"initializer","type":"bytes","indexed":false,"internalType":"bytes"},{"name":"saltNonce","type":"uint256","indexed":false,"internalType":"uint256"},{"name":"chainId","type":"uint256","indexed":false,"internalType":"uint256"}],"anonymous":false},{"type":"event","name":"ProxyCreation","inputs":[{"name":"proxy","type":"address","indexed":true,"internalType":"contract SafeProxy"},{"name":"singleton","type":"address","indexed":false,"internalType":"address"}],"anonymous":false},{"type":"event","name":"ProxyCreationL2","inputs":[{"name":"proxy","type":"address","indexed":true,"internalType":"contract SafeProxy"},{"name":"singleton","type":"address","indexed":false,"internalType":"address"},{"name":"initializer","type":"bytes","indexed":false,"internalType":"bytes"},{"name":"saltNonce","type":"uint256","indexed":false,"internalType":"uint256"}],"anonymous":false}],"bytecode":{"object":"0x60808060405234601557610680908161001b8239f35b600080fdfe6080604052600436101561001257600080fd5b60003560e01c80631688f0b9146101f85780631a334b0b146101735780633408e470146101585780634662f9d6146100d957806353e5d9351461008e5763ec9e80bb1461005e57600080fd5b3461008957602061007761007136610249565b91610398565b6040516001600160a01b039091168152f35b600080fd5b34610089576000366003190112610089576100d5610158604051906100b66020820183610211565b8082526104f360208301396040519182916020835260208301906102fe565b0390f35b346100895760207f6e78ae8c51534f0b801d7aa7cce5a2113f3c3368c61b06fa61415f361d40043161010a36610249565b9192906001600160a01b03610120848387610323565b1693849361014760405193849360018060a01b0316845260608985015260608401906102fe565b9060408301520390a2604051908152f35b34610089576000366003190112610089576020604051468152f35b346100895760207f7a1c96f74273709828c0e67ab96189772005d3b4948bc6902693eb21e4e2cc6a6101a436610249565b9192906001600160a01b036101ba848387610398565b169384936101e160405193849360018060a01b0316845260808985015260808401906102fe565b9060408301524660608301520390a2604051908152f35b3461008957602061007761020b36610249565b91610323565b90601f8019910116810190811067ffffffffffffffff82111761023357604052565b634e487b7160e01b600052604160045260246000fd5b906060600319830112610089576004356001600160a01b0381168103610089579160243567ffffffffffffffff811161008957816023820112156100895780600401359067ffffffffffffffff821161023357604051926102b4601f8401601f191660200185610211565b82845260248383010111610089578160009260246020930183860137830101529060443590565b60005b8381106102ee5750506000910152565b81810151838201526020016102de565b90602091610317815180928185528580860191016102db565b601f01601f1916010190565b92919061035b9181516020830120906040519060208201928352604082015260408152610351606082610211565b51902090846103cc565b6040516001600160a01b03938416815290928316907f4f51faf6c4561ff95f067657e43439f0f856d97c04d9ec9070a6199ad418e23590602090a2565b92919061035b9181516020830120906040519060208201928352604082015246606082015260608152610351608082610211565b92919092803b156104ad5761042e6020806104139361015890604051916103f584820184610211565b808352838301906104f38239604051968793518092868601906102db565b82019060018060a01b03168382015203018084520182610211565b8051906020016000f5916001600160a01b038316156104725780519081610453575050565b600091602083920182865af11561046657565b6040513d6000823e3d90fd5b60405162461bcd60e51b815260206004820152601360248201527210dc99585d194c8818d85b1b0819985a5b1959606a1b6044820152606490fd5b60405162461bcd60e51b815260206004820152601f60248201527f53696e676c65746f6e20636f6e7472616374206e6f74206465706c6f796564006044820152606490fdfe60803460c457601f61015838819003918201601f19168301916001600160401b0383118484101760c95780849260209460405283398101031260c457516001600160a01b0381169081900360c4578015607457600080546001600160a01b031916919091179055604051607890816100e08239f35b60405162461bcd60e51b815260206004820152602260248201527f496e76616c69642073696e676c65746f6e20616464726573732070726f766964604482015261195960f21b6064820152608490fd5b600080fd5b634e487b7160e01b600052604160045260246000fdfe608060405260005463a619486e60003560e01c1460365760008091368280378136915af43d6000803e156031573d6000f35b3d6000fd5b60601b606c5260206060f3fea2646970667358221220a8e8e094ac6271dfbfac99ed0336a2da83adc88115c07290083e3f6b003c9e9364736f6c634300081a0033a2646970667358221220ba0c286d7216d8f5342d12dfbd1ce2db879a4a64b5b92cc44ecba1678bc5eaa364736f6c634300081a0033","linkReferences":{}},"methodIdentifiers":{"createChainSpecificProxyWithNonce(address,bytes,uint256)":"ec9e80bb","createChainSpecificProxyWithNonceL2(address,bytes,uint256)":"1a334b0b","createProxyWithNonce(address,bytes,uint256)":"1688f0b9","createProxyWithNonceL2(address,bytes,uint256)":"4662f9d6","getChainId()":"3408e470","proxyCreationCode()":"53e5d935"},"id":69}