{"abi":[{"type":"function","name":"createChainSpecificProxyWithNonce","inputs":[{"name":"_singleton","type":"address","internalType":"address"},{"name":"initializer","type":"bytes","internalType":"bytes"},{"name":"saltNonce","type":"uint256","internalType":"uint256"}],"outputs":[{"name":"proxy","type":"address","internalType":"contract SafeProxy"}],"stateMutability":"nonpayable"},{"type":"function","name":"createProxyWithCallback","inputs":[{"name":"_singleton","type":"address","internalType":"address"},{"name":"initializer","type":"bytes","internalType":"bytes"},{"name":"saltNonce","type":"uint256","internalType":"uint256"},{"name":"callback","type":"address","internalType":"contract IProxyCreationCallback"}],"outputs":[{"name":"proxy","type":"address","internalType":"contract SafeProxy"}],"stateMutability":"nonpayable"},{"type":"function","name":"createProxyWithNonce","inputs":[{"name":"_singleton","type":"address","internalType":"address"},{"name":"initializer","type":"bytes","internalType":"bytes"},{"name":"saltNonce","type":"uint256","internalType":"uint256"}],"outputs":[{"name":"proxy","type":"address","internalType":"contract SafeProxy"}],"stateMutability":"nonpayable"},{"type":"function","name":"getChainId","inputs":[],"outputs":[{"name":"","type":"uint256","internalType":"uint256"}],"stateMutability":"view"},{"type":"function","name":"proxyCreationCode","inputs":[],"outputs":[{"name":"","type":"bytes","internalType":"bytes"}],"stateMutability":"pure"},{"type":"event","name":"ProxyCreation","inputs":[{"name":"proxy","type":"address","indexed":true,"internalType":"contract SafeProxy"},{"name":"singleton","type":"address","indexed":false,"internalType":"address"}],"anonymous":false}],"bytecode":{"object":"0x6080604052348015600f57600080fd5b506107c48061001f6000396000f3fe608060405234801561001057600080fd5b50600436106100575760003560e01c80631688f0b91461005c5780633408e4701461008c57806353e5d9351461009a578063d18af54d146100af578063ec9e80bb146100c2575b600080fd5b61006f61006a36600461048c565b6100d5565b6040516001600160a01b0390911681526020015b60405180910390f35b604051468152602001610083565b6100a261016a565b6040516100839190610536565b61006f6100bd366004610550565b610194565b61006f6100d036600461048c565b61026a565b6000808380519060200120836040516020016100fb929190918252602082015260400190565b60405160208183030381529060405280519060200120905061011e85858361029c565b6040516001600160a01b038781168252919350908316907f4f51faf6c4561ff95f067657e43439f0f856d97c04d9ec9070a6199ad418e2359060200160405180910390a2509392505050565b60606040518060200161017c906103c2565b601f1982820381018352601f90910116604052919050565b60008083836040516020016101c592919091825260601b6bffffffffffffffffffffffff1916602082015260340190565b6040516020818303038152906040528051906020012060001c90506101eb8686836100d5565b91506001600160a01b03831615610261576040516303ca56a360e31b81526001600160a01b03841690631e52b5189061022e9085908a908a908a906004016105bc565b600060405180830381600087803b15801561024857600080fd5b505af115801561025c573d6000803e3d6000fd5b505050505b50949350505050565b60008083805190602001208361027d4690565b60408051602081019490945283019190915260608201526080016100fb565b6000833b6102f15760405162461bcd60e51b815260206004820152601f60248201527f53696e676c65746f6e20636f6e7472616374206e6f74206465706c6f7965640060448201526064015b60405180910390fd5b600060405180602001610303906103c2565b601f1982820381018352601f90910116604081905261033091906001600160a01b038816906020016105f9565b6040516020818303038152906040529050828151826020016000f591506001600160a01b0382166103995760405162461bcd60e51b815260206004820152601360248201527210dc99585d194c8818d85b1b0819985a5b1959606a1b60448201526064016102e8565b8351156103ba5760008060008651602088016000875af1036103ba57600080fd5b509392505050565b6101738061061c83390190565b6001600160a01b03811681146103e457600080fd5b50565b634e487b7160e01b600052604160045260246000fd5b600082601f83011261040e57600080fd5b813567ffffffffffffffff811115610428576104286103e7565b604051601f8201601f19908116603f0116810167ffffffffffffffff81118282101715610457576104576103e7565b60405281815283820160200185101561046f57600080fd5b816020850160208301376000918101602001919091529392505050565b6000806000606084860312156104a157600080fd5b83356104ac816103cf565b9250602084013567ffffffffffffffff8111156104c857600080fd5b6104d4868287016103fd565b93969395505050506040919091013590565b60005b838110156105015781810151838201526020016104e9565b50506000910152565b600081518084526105228160208601602086016104e6565b601f01601f19169290920160200192915050565b602081526000610549602083018461050a565b9392505050565b6000806000806080858703121561056657600080fd5b8435610571816103cf565b9350602085013567ffffffffffffffff81111561058d57600080fd5b610599878288016103fd565b9350506040850135915060608501356105b1816103cf565b939692955090935050565b6001600160a01b038581168252841660208201526080604082018190526000906105e89083018561050a565b905082606083015295945050505050565b6000835161060b8184602088016104e6565b919091019182525060200191905056fe6080604052348015600f57600080fd5b50604051610173380380610173833981016040819052602c9160b4565b6001600160a01b03811660905760405162461bcd60e51b815260206004820152602260248201527f496e76616c69642073696e676c65746f6e20616464726573732070726f766964604482015261195960f21b606482015260840160405180910390fd5b600080546001600160a01b0319166001600160a01b039290921691909117905560e2565b60006020828403121560c557600080fd5b81516001600160a01b038116811460db57600080fd5b9392505050565b6083806100f06000396000f3fe6080604052600080546001600160a01b03169035632cf35bc960e11b016029578060005260206000f35b3660008037600080366000845af490503d6000803e806047573d6000fd5b503d6000f3fea26469706673582212205ef871cc003c0cd1dc3cae81ffc7932baaed1de155ab2647c73d359c2a7267bc64736f6c634300081a0033a2646970667358221220cbcbd28874f1487bf699f5ee7b7a4c911e1fac50e1b56299715f6c9aa467b9cd64736f6c634300081a0033","linkReferences":{}},"methodIdentifiers":{"createChainSpecificProxyWithNonce(address,bytes,uint256)":"ec9e80bb","createProxyWithCallback(address,bytes,uint256,address)":"d18af54d","createProxyWithNonce(address,bytes,uint256)":"1688f0b9","getChainId()":"3408e470","proxyCreationCode()":"53e5d935"},"id":50}